{
  "contractName": "Auction",
  "abi": [
    {
      "constant": true,
      "inputs": [],
      "name": "softClose",
      "outputs": [
        {
          "name": "",
          "type": "uint256"
        }
      ],
      "payable": false,
      "stateMutability": "view",
      "type": "function"
    },
    {
      "constant": true,
      "inputs": [],
      "name": "tokenLoanContract",
      "outputs": [
        {
          "name": "",
          "type": "address"
        }
      ],
      "payable": false,
      "stateMutability": "view",
      "type": "function"
    },
    {
      "constant": true,
      "inputs": [],
      "name": "lotNumber",
      "outputs": [
        {
          "name": "",
          "type": "uint256"
        }
      ],
      "payable": false,
      "stateMutability": "view",
      "type": "function"
    },
    {
      "inputs": [
        {
          "name": "_tokenLoanContract",
          "type": "address"
        },
        {
          "name": "_softClose",
          "type": "uint256"
        }
      ],
      "payable": false,
      "stateMutability": "nonpayable",
      "type": "constructor"
    },
    {
      "constant": false,
      "inputs": [
        {
          "name": "_tokenLot",
          "type": "address"
        },
        {
          "name": "_expiryBlockHeight",
          "type": "uint256"
        }
      ],
      "name": "createNewAuction",
      "outputs": [],
      "payable": false,
      "stateMutability": "nonpayable",
      "type": "function"
    },
    {
      "constant": false,
      "inputs": [
        {
          "name": "_lotNumber",
          "type": "uint256"
        }
      ],
      "name": "submitBid",
      "outputs": [],
      "payable": true,
      "stateMutability": "payable",
      "type": "function"
    },
    {
      "constant": true,
      "inputs": [
        {
          "name": "_lotNumber",
          "type": "uint256"
        }
      ],
      "name": "twoHightestBidsDifference",
      "outputs": [
        {
          "name": "",
          "type": "uint256"
        }
      ],
      "payable": false,
      "stateMutability": "view",
      "type": "function"
    },
    {
      "constant": true,
      "inputs": [
        {
          "name": "_lotNumber",
          "type": "uint256"
        }
      ],
      "name": "winningBidder",
      "outputs": [
        {
          "name": "",
          "type": "address"
        }
      ],
      "payable": false,
      "stateMutability": "view",
      "type": "function"
    },
    {
      "constant": true,
      "inputs": [
        {
          "name": "_lotNumber",
          "type": "uint256"
        }
      ],
      "name": "tokenLot",
      "outputs": [
        {
          "name": "",
          "type": "address"
        }
      ],
      "payable": false,
      "stateMutability": "view",
      "type": "function"
    },
    {
      "constant": false,
      "inputs": [
        {
          "name": "_lotNumber",
          "type": "uint256"
        }
      ],
      "name": "executePayment",
      "outputs": [],
      "payable": false,
      "stateMutability": "nonpayable",
      "type": "function"
    }
  ],
  "bytecode": "0x608060405234801561001057600080fd5b50604051604080610efe8339810180604052604081101561003057600080fd5b810190808051906020019092919080519060200190929190505050816000806101000a81548173ffffffffffffffffffffffffffffffffffffffff021916908373ffffffffffffffffffffffffffffffffffffffff160217905550806002819055505050610e5b806100a36000396000f3fe608060405260043610610099576000357c0100000000000000000000000000000000000000000000000000000000900463ffffffff168063162a0cf81461009e5780632dd7f648146100d95780634a0befd91461015457806368187e511461017f57806374bdda15146101fa57806377350fa91461022857806388a9d19c146102775780639597fe9f146102ce578063a9d0c219146102f9575b600080fd5b3480156100aa57600080fd5b506100d7600480360360208110156100c157600080fd5b8101908080359060200190929190505050610354565b005b3480156100e557600080fd5b50610112600480360360208110156100fc57600080fd5b81019080803590602001909291905050506105d5565b604051808273ffffffffffffffffffffffffffffffffffffffff1673ffffffffffffffffffffffffffffffffffffffff16815260200191505060405180910390f35b34801561016057600080fd5b50610169610618565b6040518082815260200191505060405180910390f35b34801561018b57600080fd5b506101b8600480360360208110156101a257600080fd5b810190808035906020019092919050505061061e565b604051808273ffffffffffffffffffffffffffffffffffffffff1673ffffffffffffffffffffffffffffffffffffffff16815260200191505060405180910390f35b6102266004803603602081101561021057600080fd5b810190808035906020019092919050505061065e565b005b34801561023457600080fd5b506102616004803603602081101561024b57600080fd5b8101908080359060200190929190505050610996565b6040518082815260200191505060405180910390f35b34801561028357600080fd5b5061028c610a00565b604051808273ffffffffffffffffffffffffffffffffffffffff1673ffffffffffffffffffffffffffffffffffffffff16815260200191505060405180910390f35b3480156102da57600080fd5b506102e3610a25565b6040518082815260200191505060405180910390f35b34801561030557600080fd5b506103526004803603604081101561031c57600080fd5b81019080803573ffffffffffffffffffffffffffffffffffffffff16906020019092919080359060200190929190505050610a2b565b005b43600360008381526020019081526020016000206001015410151561037857600080fd5b6000809054906101000a900473ffffffffffffffffffffffffffffffffffffffff1673ffffffffffffffffffffffffffffffffffffffff166108fc60036000848152602001908152602001600020600201600101549081150290604051600060405180830381858888f193505050501580156103f8573d6000803e3d6000fd5b506003600082815260200190815260200160002060000160009054906101000a900473ffffffffffffffffffffffffffffffffffffffff1673ffffffffffffffffffffffffffffffffffffffff166308daba2d6003600084815260200190815260200160002060020160000160009054906101000a900473ffffffffffffffffffffffffffffffffffffffff166040518263ffffffff167c0100000000000000000000000000000000000000000000000000000000028152600401808273ffffffffffffffffffffffffffffffffffffffff1673ffffffffffffffffffffffffffffffffffffffff168152602001915050600060405180830381600087803b15801561050357600080fd5b505af1158015610517573d6000803e3d6000fd5b5050505060408051908101604052806000809054906101000a900473ffffffffffffffffffffffffffffffffffffffff1673ffffffffffffffffffffffffffffffffffffffff16815260200160008152506003600083815260200190815260200160002060020160008201518160000160006101000a81548173ffffffffffffffffffffffffffffffffffffffff021916908373ffffffffffffffffffffffffffffffffffffffff1602179055506020820151816001015590505050565b60006003600083815260200190815260200160002060020160000160009054906101000a900473ffffffffffffffffffffffffffffffffffffffff169050919050565b60025481565b60006003600083815260200190815260200160002060000160009054906101000a900473ffffffffffffffffffffffffffffffffffffffff169050919050565b43600360008381526020019081526020016000206001015411151561068257600080fd5b600360008281526020019081526020016000206002016001015434111561094b5760036000828152602001908152602001600020600201600360008381526020019081526020016000206004016000820160009054906101000a900473ffffffffffffffffffffffffffffffffffffffff168160000160006101000a81548173ffffffffffffffffffffffffffffffffffffffff021916908373ffffffffffffffffffffffffffffffffffffffff1602179055506001820154816001015590505060408051908101604052803373ffffffffffffffffffffffffffffffffffffffff168152602001348152506003600083815260200190815260200160002060020160008201518160000160006101000a81548173ffffffffffffffffffffffffffffffffffffffff021916908373ffffffffffffffffffffffffffffffffffffffff16021790555060208201518160010155905050600060036000838152602001908152602001600020600401600101541115610894576003600082815260200190815260200160002060040160000160009054906101000a900473ffffffffffffffffffffffffffffffffffffffff1673ffffffffffffffffffffffffffffffffffffffff166108fc60036000848152602001908152602001600020600401600101549081150290604051600060405180830381858888f19350505050158015610892573d6000803e3d6000fd5b505b6002546108c0436003600085815260200190815260200160002060010154610d2590919063ffffffff16565b10156109465761092b6109066108f5436003600086815260200190815260200160002060010154610d2590919063ffffffff16565b600254610d2590919063ffffffff16565b6003600084815260200190815260200160002060010154610daa90919063ffffffff16565b60036000838152602001908152602001600020600101819055505b610993565b3373ffffffffffffffffffffffffffffffffffffffff166108fc349081150290604051600060405180830381858888f19350505050158015610991573d6000803e3d6000fd5b505b50565b60008060036000848152602001908152602001600020600201600101541415156109f657600360008381526020019081526020016000206004016001015460036000848152602001908152602001600020600201600101540390506109fb565b600090505b919050565b6000809054906101000a900473ffffffffffffffffffffffffffffffffffffffff1681565b60015481565b6000809054906101000a900473ffffffffffffffffffffffffffffffffffffffff1673ffffffffffffffffffffffffffffffffffffffff163373ffffffffffffffffffffffffffffffffffffffff16141515610b15576040517f08c379a00000000000000000000000000000000000000000000000000000000081526004018080602001828103825260238152602001807f596f7520617265206e6f742074686520546f6b656e4c6f616e20436f6e74726181526020017f63742e000000000000000000000000000000000000000000000000000000000081525060400191505060405180910390fd5b610b2a60018054610daa90919063ffffffff16565b6001819055506080604051908101604052808373ffffffffffffffffffffffffffffffffffffffff16815260200182815260200160408051908101604052806000809054906101000a900473ffffffffffffffffffffffffffffffffffffffff1673ffffffffffffffffffffffffffffffffffffffff1681526020016000815250815260200160408051908101604052806000809054906101000a900473ffffffffffffffffffffffffffffffffffffffff1673ffffffffffffffffffffffffffffffffffffffff168152602001600081525081525060036000600154815260200190815260200160002060008201518160000160006101000a81548173ffffffffffffffffffffffffffffffffffffffff021916908373ffffffffffffffffffffffffffffffffffffffff1602179055506020820151816001015560408201518160020160008201518160000160006101000a81548173ffffffffffffffffffffffffffffffffffffffff021916908373ffffffffffffffffffffffffffffffffffffffff16021790555060208201518160010155505060608201518160040160008201518160000160006101000a81548173ffffffffffffffffffffffffffffffffffffffff021916908373ffffffffffffffffffffffffffffffffffffffff1602179055506020820151816001015550509050505050565b6000828211151515610d9f576040517f08c379a00000000000000000000000000000000000000000000000000000000081526004018080602001828103825260138152602001807f556e646572666c6f772064657465637465642e0000000000000000000000000081525060200191505060405180910390fd5b818303905092915050565b60008183019050828110151515610e29576040517f08c379a00000000000000000000000000000000000000000000000000000000081526004018080602001828103825260128152602001807f4f766572666c6f772064657465637465642e000000000000000000000000000081525060200191505060405180910390fd5b9291505056fea165627a7a7230582048e1b94df26b4926d3ab7f1a929db73497a189cb3af994d9ed2fd9e07de7eef50029",
  "source": "pragma solidity 0.5.0;\n\n\nimport \"./Collateral.sol\";\nimport \"./SafeMath.sol\";\n\n// ----------------------------------------------------------------------------\n// Collateral Auction Contract.\n// \n// ----------------------------------------------------------------------------\ncontract Auction {\n    using SafeMath for uint;\n\n    address payable public tokenLoanContract;\n    uint public lotNumber;\n    uint public softClose;\n    \n    struct Bid {\n      address payable bidder;\n      uint value;\n    }\n    \n    struct AuctionStruct {\n        address tokenLot;\n        uint expiryBlockHeight;\n        Bid highestBid;\n        Bid nextHighestBid;\n    }\n\n    mapping(uint => AuctionStruct) auctions;\n    \n    constructor(address payable _tokenLoanContract, uint _softClose) public {\n        tokenLoanContract = _tokenLoanContract;\n        softClose = _softClose;\n    }\n\n    modifier onlyTokenLoan {\n        require(msg.sender == tokenLoanContract, \"You are not the TokenLoan Contract.\");\n        _;\n    }\n\n    function createNewAuction(address _tokenLot, uint _expiryBlockHeight) onlyTokenLoan external {\n        lotNumber = lotNumber.add(1);\n        auctions[lotNumber] = AuctionStruct({tokenLot: _tokenLot, expiryBlockHeight: _expiryBlockHeight, highestBid: Bid({bidder: tokenLoanContract, value: 0}), nextHighestBid: Bid({bidder: tokenLoanContract, value: 0})});\n    }\n    \n    function submitBid(uint _lotNumber) external payable {\n        require(auctions[_lotNumber].expiryBlockHeight > block.number);\n        if (msg.value > auctions[_lotNumber].highestBid.value) {\n            auctions[_lotNumber].nextHighestBid = auctions[_lotNumber].highestBid;\n            auctions[_lotNumber].highestBid = Bid({bidder: msg.sender, value: msg.value});\n            if (auctions[_lotNumber].nextHighestBid.value > 0) {\n                auctions[_lotNumber].nextHighestBid.bidder.transfer(auctions[_lotNumber].nextHighestBid.value);\n            }\n            \n            // Extend auction if a new highest bid is received under ~3 minutes before auction closes.\n            // This is called a \"soft close\" auction. It disincentivizes bidders from only bidding at the last second.\n            \n            if ((auctions[_lotNumber].expiryBlockHeight.sub(block.number)) < softClose) {\n                auctions[_lotNumber].expiryBlockHeight = auctions[_lotNumber].expiryBlockHeight.add((softClose.sub(auctions[_lotNumber].expiryBlockHeight.sub(block.number))));\n            }\n        } else {\n            msg.sender.transfer(msg.value);\n        }\n    }\n    \n    function twoHightestBidsDifference(uint _lotNumber) external view returns(uint) {\n        if (auctions[_lotNumber].highestBid.value != 0) {\n            return (auctions[_lotNumber].highestBid.value - auctions[_lotNumber].nextHighestBid.value);\n        }\n        return 0;\n    }\n    \n    function winningBidder(uint _lotNumber) external view returns (address) {\n        return auctions[_lotNumber].highestBid.bidder;\n    }\n    \n    function tokenLot(uint _lotNumber) external view returns (address) {\n        return auctions[_lotNumber].tokenLot;\n    }\n\n    function executePayment(uint _lotNumber) external {\n        require(auctions[_lotNumber].expiryBlockHeight < block.number);\n        tokenLoanContract.transfer(auctions[_lotNumber].highestBid.value);\n        Collateral(auctions[_lotNumber].tokenLot).sendAuctionWinner(auctions[_lotNumber].highestBid.bidder);\n        \n        // Destroy auction\n        auctions[_lotNumber].highestBid = Bid({bidder: tokenLoanContract, value: 0});\n    }\n    \n}",
  "sourcePath": "/home/adam/AdvancedSC/TokenLoan/contracts/Auction.sol",
  "compiler": {
    "name": "solc",
    "version": "0.5.0+commit.1d4f565a.Emscripten.clang"
  },
  "schemaVersion": "3.0.1",
  "updatedAt": "2019-04-04T21:28:25.071Z",
  "devdoc": {
    "methods": {}
  },
  "userdoc": {
    "methods": {}
  }
}