{
  "contractName": "Auction",
  "abi": [
    {
      "inputs": [
        {
          "name": "_tokenLoanContract",
          "type": "address"
        },
        {
          "name": "_softClose",
          "type": "uint256"
        }
      ],
      "payable": false,
      "stateMutability": "nonpayable",
      "type": "constructor"
    },
    {
      "constant": false,
      "inputs": [
        {
          "name": "_tokenLot",
          "type": "address"
        },
        {
          "name": "_expiryBlockHeight",
          "type": "uint256"
        }
      ],
      "name": "createNewAuction",
      "outputs": [],
      "payable": false,
      "stateMutability": "nonpayable",
      "type": "function"
    },
    {
      "constant": false,
      "inputs": [
        {
          "name": "_lotNumber",
          "type": "uint256"
        }
      ],
      "name": "submitBid",
      "outputs": [],
      "payable": true,
      "stateMutability": "payable",
      "type": "function"
    },
    {
      "constant": true,
      "inputs": [
        {
          "name": "_lotNumber",
          "type": "uint256"
        }
      ],
      "name": "twoHightestBidsDifference",
      "outputs": [
        {
          "name": "",
          "type": "uint256"
        }
      ],
      "payable": false,
      "stateMutability": "view",
      "type": "function"
    },
    {
      "constant": true,
      "inputs": [
        {
          "name": "_lotNumber",
          "type": "uint256"
        }
      ],
      "name": "winningBidder",
      "outputs": [
        {
          "name": "",
          "type": "address"
        }
      ],
      "payable": false,
      "stateMutability": "view",
      "type": "function"
    },
    {
      "constant": true,
      "inputs": [
        {
          "name": "_lotNumber",
          "type": "uint256"
        }
      ],
      "name": "tokenLot",
      "outputs": [
        {
          "name": "",
          "type": "address"
        }
      ],
      "payable": false,
      "stateMutability": "view",
      "type": "function"
    },
    {
      "constant": false,
      "inputs": [
        {
          "name": "_lotNumber",
          "type": "uint256"
        }
      ],
      "name": "executePayment",
      "outputs": [],
      "payable": false,
      "stateMutability": "nonpayable",
      "type": "function"
    }
  ],
  "bytecode": "0x608060405234801561001057600080fd5b50604051604080610da98339810180604052604081101561003057600080fd5b810190808051906020019092919080519060200190929190505050816000806101000a81548173ffffffffffffffffffffffffffffffffffffffff021916908373ffffffffffffffffffffffffffffffffffffffff160217905550806002819055505050610d06806100a36000396000f3fe608060405260043610610072576000357c010000000000000000000000000000000000000000000000000000000090048063162a0cf8146100775780632dd7f648146100b257806368187e511461012d57806374bdda15146101a857806377350fa9146101d6578063a9d0c21914610225575b600080fd5b34801561008357600080fd5b506100b06004803603602081101561009a57600080fd5b8101908080359060200190929190505050610280565b005b3480156100be57600080fd5b506100eb600480360360208110156100d557600080fd5b81019080803590602001909291905050506104ff565b604051808273ffffffffffffffffffffffffffffffffffffffff1673ffffffffffffffffffffffffffffffffffffffff16815260200191505060405180910390f35b34801561013957600080fd5b506101666004803603602081101561015057600080fd5b8101908080359060200190929190505050610542565b604051808273ffffffffffffffffffffffffffffffffffffffff1673ffffffffffffffffffffffffffffffffffffffff16815260200191505060405180910390f35b6101d4600480360360208110156101be57600080fd5b8101908080359060200190929190505050610582565b005b3480156101e257600080fd5b5061020f600480360360208110156101f957600080fd5b8101908080359060200190929190505050610895565b6040518082815260200191505060405180910390f35b34801561023157600080fd5b5061027e6004803603604081101561024857600080fd5b81019080803573ffffffffffffffffffffffffffffffffffffffff169060200190929190803590602001909291905050506108fd565b005b436003600083815260200190815260200160002060010154106102a257600080fd5b6000809054906101000a900473ffffffffffffffffffffffffffffffffffffffff1673ffffffffffffffffffffffffffffffffffffffff166108fc60036000848152602001908152602001600020600201600101549081150290604051600060405180830381858888f19350505050158015610322573d6000803e3d6000fd5b506003600082815260200190815260200160002060000160009054906101000a900473ffffffffffffffffffffffffffffffffffffffff1673ffffffffffffffffffffffffffffffffffffffff166308daba2d6003600084815260200190815260200160002060020160000160009054906101000a900473ffffffffffffffffffffffffffffffffffffffff166040518263ffffffff167c0100000000000000000000000000000000000000000000000000000000028152600401808273ffffffffffffffffffffffffffffffffffffffff1673ffffffffffffffffffffffffffffffffffffffff168152602001915050600060405180830381600087803b15801561042d57600080fd5b505af1158015610441573d6000803e3d6000fd5b5050505060405180604001604052806000809054906101000a900473ffffffffffffffffffffffffffffffffffffffff1673ffffffffffffffffffffffffffffffffffffffff16815260200160008152506003600083815260200190815260200160002060020160008201518160000160006101000a81548173ffffffffffffffffffffffffffffffffffffffff021916908373ffffffffffffffffffffffffffffffffffffffff1602179055506020820151816001015590505050565b60006003600083815260200190815260200160002060020160000160009054906101000a900473ffffffffffffffffffffffffffffffffffffffff169050919050565b60006003600083815260200190815260200160002060000160009054906101000a900473ffffffffffffffffffffffffffffffffffffffff169050919050565b436003600083815260200190815260200160002060010154116105a457600080fd5b600360008281526020019081526020016000206002016001015434111561084a5760036000828152602001908152602001600020600201600360008381526020019081526020016000206004016000820160009054906101000a900473ffffffffffffffffffffffffffffffffffffffff168160000160006101000a81548173ffffffffffffffffffffffffffffffffffffffff021916908373ffffffffffffffffffffffffffffffffffffffff1602179055506001820154816001015590505060405180604001604052803373ffffffffffffffffffffffffffffffffffffffff168152602001348152506003600083815260200190815260200160002060020160008201518160000160006101000a81548173ffffffffffffffffffffffffffffffffffffffff021916908373ffffffffffffffffffffffffffffffffffffffff160217905550602082015181600101559050506003600082815260200190815260200160002060040160000160009054906101000a900473ffffffffffffffffffffffffffffffffffffffff1673ffffffffffffffffffffffffffffffffffffffff166108fc60036000848152602001908152602001600020600401600101549081150290604051600060405180830381858888f19350505050158015610792573d6000803e3d6000fd5b506002546107bf436003600085815260200190815260200160002060010154610bb190919063ffffffff16565b10156108455761082a6108056107f4436003600086815260200190815260200160002060010154610bb190919063ffffffff16565b600254610bb190919063ffffffff16565b6003600084815260200190815260200160002060010154610c3490919063ffffffff16565b60036000838152602001908152602001600020600101819055505b610892565b3373ffffffffffffffffffffffffffffffffffffffff166108fc349081150290604051600060405180830381858888f19350505050158015610890573d6000803e3d6000fd5b505b50565b6000806003600084815260200190815260200160002060020160010154146108f357600360008381526020019081526020016000206004016001015460036000848152602001908152602001600020600201600101540390506108f8565b600090505b919050565b6000809054906101000a900473ffffffffffffffffffffffffffffffffffffffff1673ffffffffffffffffffffffffffffffffffffffff163373ffffffffffffffffffffffffffffffffffffffff16146109a2576040517f08c379a0000000000000000000000000000000000000000000000000000000008152600401808060200182810382526023815260200180610cb86023913960400191505060405180910390fd5b6109b760018054610c3490919063ffffffff16565b60018190555060405180608001604052808373ffffffffffffffffffffffffffffffffffffffff16815260200182815260200160405180604001604052806000809054906101000a900473ffffffffffffffffffffffffffffffffffffffff1673ffffffffffffffffffffffffffffffffffffffff1681526020016000815250815260200160405180604001604052806000809054906101000a900473ffffffffffffffffffffffffffffffffffffffff1673ffffffffffffffffffffffffffffffffffffffff168152602001600081525081525060036000600154815260200190815260200160002060008201518160000160006101000a81548173ffffffffffffffffffffffffffffffffffffffff021916908373ffffffffffffffffffffffffffffffffffffffff1602179055506020820151816001015560408201518160020160008201518160000160006101000a81548173ffffffffffffffffffffffffffffffffffffffff021916908373ffffffffffffffffffffffffffffffffffffffff16021790555060208201518160010155505060608201518160040160008201518160000160006101000a81548173ffffffffffffffffffffffffffffffffffffffff021916908373ffffffffffffffffffffffffffffffffffffffff1602179055506020820151816001015550509050505050565b600082821115610c29576040517f08c379a00000000000000000000000000000000000000000000000000000000081526004018080602001828103825260138152602001807f556e646572666c6f772064657465637465642e0000000000000000000000000081525060200191505060405180910390fd5b818303905092915050565b6000818301905082811015610cb1576040517f08c379a00000000000000000000000000000000000000000000000000000000081526004018080602001828103825260128152602001807f4f766572666c6f772064657465637465642e000000000000000000000000000081525060200191505060405180910390fd5b9291505056fe596f7520617265206e6f742074686520546f6b656e4c6f616e20436f6e74726163742ea165627a7a72305820eec0b936f9da58df1f747123e96c5ddb06eaf658c9689b5030e8c4ca28d488240029",
  "source": "pragma solidity 0.5.6;\n\nimport \"./SafeMath.sol\";\nimport \"./Collateral.sol\";\n\n// ----------------------------------------------------------------------------\n// Collateral Auction Contract.\n// \n// ----------------------------------------------------------------------------\ncontract Auction {\n    using SafeMath for uint;\n\n    address payable tokenLoanContract;\n    uint lotNumber;\n    uint softClose;\n    \n    struct Bid {\n      address payable bidder;\n      uint value;\n    }\n    \n    struct AuctionStruct {\n        address tokenLot;\n        uint expiryBlockHeight;\n        Bid highestBid;\n        Bid nextHighestBid;\n    }\n\n    mapping(uint => AuctionStruct) auctions;\n    \n    constructor(address payable _tokenLoanContract, uint _softClose) public {\n        tokenLoanContract = _tokenLoanContract;\n        softClose = _softClose;\n    }\n\n    modifier onlyTokenLoan {\n        require(msg.sender == tokenLoanContract, \"You are not the TokenLoan Contract.\");\n        _;\n    }\n\n    function createNewAuction(address _tokenLot, uint _expiryBlockHeight) onlyTokenLoan external {\n        lotNumber = lotNumber.add(1);\n        auctions[lotNumber] = AuctionStruct({tokenLot: _tokenLot, expiryBlockHeight: _expiryBlockHeight, highestBid: Bid({bidder: tokenLoanContract, value: 0}), nextHighestBid: Bid({bidder: tokenLoanContract, value: 0})});\n    }\n    \n    function submitBid(uint _lotNumber) external payable {\n        require(auctions[_lotNumber].expiryBlockHeight > block.number);\n        if (msg.value > auctions[_lotNumber].highestBid.value) {\n            auctions[_lotNumber].nextHighestBid = auctions[_lotNumber].highestBid;\n            auctions[_lotNumber].highestBid = Bid({bidder: msg.sender, value: msg.value});\n            auctions[_lotNumber].nextHighestBid.bidder.transfer(auctions[_lotNumber].nextHighestBid.value);\n            \n            // Extend auction if a new highest bid is received under ~3 minutes before auction closes.\n            // This is called a \"soft close\" auction. It disincentivizes bidders from only bidding at the last second.\n            \n            if ((auctions[_lotNumber].expiryBlockHeight.sub(block.number)) < softClose) {\n                auctions[_lotNumber].expiryBlockHeight = auctions[_lotNumber].expiryBlockHeight.add((softClose.sub(auctions[_lotNumber].expiryBlockHeight.sub(block.number))));\n            }\n        } else {\n            msg.sender.transfer(msg.value);\n        }\n    }\n    \n    function twoHightestBidsDifference(uint _lotNumber) external view returns(uint) {\n        if (auctions[_lotNumber].highestBid.value != 0) {\n            return (auctions[_lotNumber].highestBid.value - auctions[_lotNumber].nextHighestBid.value);\n        }\n        return 0;\n    }\n    \n    function winningBidder(uint _lotNumber) external view returns (address) {\n        return auctions[_lotNumber].highestBid.bidder;\n    }\n    \n    function tokenLot(uint _lotNumber) external view returns (address) {\n        return auctions[_lotNumber].tokenLot;\n    }\n\n    function executePayment(uint _lotNumber) external {\n        require(auctions[_lotNumber].expiryBlockHeight < block.number);\n        tokenLoanContract.transfer(auctions[_lotNumber].highestBid.value);\n        Collateral(auctions[_lotNumber].tokenLot).sendAuctionWinner(auctions[_lotNumber].highestBid.bidder);\n        \n        // Destroy auction\n        auctions[_lotNumber].highestBid = Bid({bidder: tokenLoanContract, value: 0});\n    }\n    \n}",
  "sourcePath": "/home/adam/AdvancedSC/TokenLoan/contracts/Auction.sol",
  "compiler": {
    "name": "solc",
    "version": "0.5.6+commit.b259423e.Emscripten.clang"
  },
  "schemaVersion": "3.0.1",
  "updatedAt": "2019-04-04T08:36:33.861Z",
  "devdoc": {
    "methods": {}
  },
  "userdoc": {
    "methods": {}
  }
}