{
  "contractName": "Collateral",
  "abi": [
    {
      "inputs": [
        {
          "name": "_tokens",
          "type": "uint256[]"
        },
        {
          "name": "_user",
          "type": "address"
        },
        {
          "name": "_tokenLoanContract",
          "type": "address"
        },
        {
          "name": "_storageContract",
          "type": "address"
        },
        {
          "name": "_auctionContract",
          "type": "address"
        }
      ],
      "payable": false,
      "stateMutability": "nonpayable",
      "type": "constructor"
    },
    {
      "constant": false,
      "inputs": [],
      "name": "updateUserBalance",
      "outputs": [],
      "payable": false,
      "stateMutability": "nonpayable",
      "type": "function"
    },
    {
      "constant": false,
      "inputs": [],
      "name": "sendBack",
      "outputs": [],
      "payable": false,
      "stateMutability": "nonpayable",
      "type": "function"
    },
    {
      "constant": false,
      "inputs": [
        {
          "name": "_winner",
          "type": "address"
        }
      ],
      "name": "sendAuctionWinner",
      "outputs": [],
      "payable": false,
      "stateMutability": "nonpayable",
      "type": "function"
    }
  ],
  "bytecode": "0x608060405234801561001057600080fd5b50604051610fd4380380610fd4833981018060405260a081101561003357600080fd5b81019080805164010000000081111561004b57600080fd5b8281019050602081018481111561006157600080fd5b815185602082028301116401000000008211171561007e57600080fd5b505092919060200180519060200190929190805190602001909291908051906020019092919080519060200190929190505050836000806101000a81548173ffffffffffffffffffffffffffffffffffffffff021916908373ffffffffffffffffffffffffffffffffffffffff16021790555082600160006101000a81548173ffffffffffffffffffffffffffffffffffffffff021916908373ffffffffffffffffffffffffffffffffffffffff16021790555080600260006101000a81548173ffffffffffffffffffffffffffffffffffffffff021916908373ffffffffffffffffffffffffffffffffffffffff16021790555081600360006101000a81548173ffffffffffffffffffffffffffffffffffffffff021916908373ffffffffffffffffffffffffffffffffffffffff16021790555060008090505b855181101561022a5760048682815181106101d157fe5b6020026020010151908060018154018082558091505090600182039060005260206000200160009091929091909150555061022360018261023564010000000002610c3b179091906401000000009004565b90506101ba565b5050505050506102b8565b60008183019050828110156102b2576040517f08c379a00000000000000000000000000000000000000000000000000000000081526004018080602001828103825260128152602001807f4f766572666c6f772064657465637465642e000000000000000000000000000081525060200191505060405180910390fd5b92915050565b610d0d806102c76000396000f3fe608060405234801561001057600080fd5b506004361061005e576000357c01000000000000000000000000000000000000000000000000000000009004806308daba2d14610063578063732dd293146100a7578063d1e15045146100b1575b600080fd5b6100a56004803603602081101561007957600080fd5b81019080803573ffffffffffffffffffffffffffffffffffffffff1690602001909291905050506100bb565b005b6100af610515565b005b6100b96107c1565b005b600260009054906101000a900473ffffffffffffffffffffffffffffffffffffffff1673ffffffffffffffffffffffffffffffffffffffff163373ffffffffffffffffffffffffffffffffffffffff1614610161576040517f08c379a0000000000000000000000000000000000000000000000000000000008152600401808060200182810382526023815260200180610cbf6023913960400191505060405180910390fd5b60008090505b600480549050811015610511576000600360009054906101000a900473ffffffffffffffffffffffffffffffffffffffff1673ffffffffffffffffffffffffffffffffffffffff166336c87754600484815481106101c157fe5b90600052602060002001546040518263ffffffff167c01000000000000000000000000000000000000000000000000000000000281526004018082815260200191505060206040518083038186803b15801561021c57600080fd5b505afa158015610230573d6000803e3d6000fd5b505050506040513d602081101561024657600080fd5b810190808051906020019092919050505073ffffffffffffffffffffffffffffffffffffffff166370a08231306040518263ffffffff167c0100000000000000000000000000000000000000000000000000000000028152600401808273ffffffffffffffffffffffffffffffffffffffff1673ffffffffffffffffffffffffffffffffffffffff16815260200191505060206040518083038186803b1580156102ef57600080fd5b505afa158015610303573d6000803e3d6000fd5b505050506040513d602081101561031957600080fd5b8101908080519060200190929190505050905060008111156104f557600360009054906101000a900473ffffffffffffffffffffffffffffffffffffffff1673ffffffffffffffffffffffffffffffffffffffff166336c877546004848154811061038057fe5b90600052602060002001546040518263ffffffff167c01000000000000000000000000000000000000000000000000000000000281526004018082815260200191505060206040518083038186803b1580156103db57600080fd5b505afa1580156103ef573d6000803e3d6000fd5b505050506040513d602081101561040557600080fd5b810190808051906020019092919050505073ffffffffffffffffffffffffffffffffffffffff1663a9059cbb84836040518363ffffffff167c0100000000000000000000000000000000000000000000000000000000028152600401808373ffffffffffffffffffffffffffffffffffffffff1673ffffffffffffffffffffffffffffffffffffffff16815260200182815260200192505050602060405180830381600087803b1580156104b857600080fd5b505af11580156104cc573d6000803e3d6000fd5b505050506040513d60208110156104e257600080fd5b8101908080519060200190929190505050505b5061050a600182610c3b90919063ffffffff16565b9050610167565b5050565b60008090505b6004805490508110156107be57600160009054906101000a900473ffffffffffffffffffffffffffffffffffffffff1673ffffffffffffffffffffffffffffffffffffffff1663270226cc6004838154811061057357fe5b9060005260206000200154600360009054906101000a900473ffffffffffffffffffffffffffffffffffffffff1673ffffffffffffffffffffffffffffffffffffffff166336c87754600486815481106105c957fe5b90600052602060002001546040518263ffffffff167c01000000000000000000000000000000000000000000000000000000000281526004018082815260200191505060206040518083038186803b15801561062457600080fd5b505afa158015610638573d6000803e3d6000fd5b505050506040513d602081101561064e57600080fd5b810190808051906020019092919050505073ffffffffffffffffffffffffffffffffffffffff166370a08231306040518263ffffffff167c0100000000000000000000000000000000000000000000000000000000028152600401808273ffffffffffffffffffffffffffffffffffffffff1673ffffffffffffffffffffffffffffffffffffffff16815260200191505060206040518083038186803b1580156106f757600080fd5b505afa15801561070b573d6000803e3d6000fd5b505050506040513d602081101561072157600080fd5b81019080805190602001909291905050506040518363ffffffff167c01000000000000000000000000000000000000000000000000000000000281526004018083815260200182815260200192505050600060405180830381600087803b15801561078b57600080fd5b505af115801561079f573d6000803e3d6000fd5b505050506107b7600182610c3b90919063ffffffff16565b905061051b565b50565b600160009054906101000a900473ffffffffffffffffffffffffffffffffffffffff1673ffffffffffffffffffffffffffffffffffffffff163373ffffffffffffffffffffffffffffffffffffffff1614610867576040517f08c379a0000000000000000000000000000000000000000000000000000000008152600401808060200182810382526023815260200180610cbf6023913960400191505060405180910390fd5b60008090505b600480549050811015610c38576000600360009054906101000a900473ffffffffffffffffffffffffffffffffffffffff1673ffffffffffffffffffffffffffffffffffffffff166336c87754600484815481106108c757fe5b90600052602060002001546040518263ffffffff167c01000000000000000000000000000000000000000000000000000000000281526004018082815260200191505060206040518083038186803b15801561092257600080fd5b505afa158015610936573d6000803e3d6000fd5b505050506040513d602081101561094c57600080fd5b810190808051906020019092919050505073ffffffffffffffffffffffffffffffffffffffff166370a08231306040518263ffffffff167c0100000000000000000000000000000000000000000000000000000000028152600401808273ffffffffffffffffffffffffffffffffffffffff1673ffffffffffffffffffffffffffffffffffffffff16815260200191505060206040518083038186803b1580156109f557600080fd5b505afa158015610a09573d6000803e3d6000fd5b505050506040513d6020811015610a1f57600080fd5b810190808051906020019092919050505090506000811115610c1c57600360009054906101000a900473ffffffffffffffffffffffffffffffffffffffff1673ffffffffffffffffffffffffffffffffffffffff166336c8775460048481548110610a8657fe5b90600052602060002001546040518263ffffffff167c01000000000000000000000000000000000000000000000000000000000281526004018082815260200191505060206040518083038186803b158015610ae157600080fd5b505afa158015610af5573d6000803e3d6000fd5b505050506040513d6020811015610b0b57600080fd5b810190808051906020019092919050505073ffffffffffffffffffffffffffffffffffffffff1663a9059cbb6000809054906101000a900473ffffffffffffffffffffffffffffffffffffffff16836040518363ffffffff167c0100000000000000000000000000000000000000000000000000000000028152600401808373ffffffffffffffffffffffffffffffffffffffff1673ffffffffffffffffffffffffffffffffffffffff16815260200182815260200192505050602060405180830381600087803b158015610bdf57600080fd5b505af1158015610bf3573d6000803e3d6000fd5b505050506040513d6020811015610c0957600080fd5b8101908080519060200190929190505050505b50610c31600182610c3b90919063ffffffff16565b905061086d565b50565b6000818301905082811015610cb8576040517f08c379a00000000000000000000000000000000000000000000000000000000081526004018080602001828103825260128152602001807f4f766572666c6f772064657465637465642e000000000000000000000000000081525060200191505060405180910390fd5b9291505056fe596f7520617265206e6f742074686520546f6b656e4c6f616e20436f6e74726163742ea165627a7a7230582087ae6f65de6b417ae8b220fdaa640d952c3586a635e9b77f27ec25dedae1c88a0029",
  "source": "pragma solidity 0.5.6;\n\nimport \"./SafeMath.sol\";\nimport \"./TokenLoan.sol\";\nimport \"./TokenLoanStorage.sol\";\nimport \"./ERC20Interface.sol\";\n\n\n// ----------------------------------------------------------------------------\n// Collateral Contract.\n// \n// ----------------------------------------------------------------------------\ncontract Collateral {\n    using SafeMath for uint;\n\n    address payable user;\n    address tokenLoanContract;\n    address auctionContract;\n    address storageContract;\n    uint[] expectedTokens;\n\n    modifier onlyTokenLoan {\n        require(msg.sender == tokenLoanContract, \"You are not the TokenLoan Contract.\");\n        _;\n    }\n\n    modifier onlyAuction {\n        require(msg.sender == auctionContract, \"You are not the TokenLoan Contract.\");\n        _;\n    }\n\n\n    constructor (uint[] memory _tokens, address payable _user, address _tokenLoanContract, address _storageContract, address _auctionContract) public {\n        user = _user;\n        tokenLoanContract = _tokenLoanContract;\n        auctionContract = _auctionContract;\n        storageContract = _storageContract;\n        for (uint i = 0; i < _tokens.length; i = i.add(1)) {\n            expectedTokens.push(_tokens[i]);\n        }\n    }\n\n    function updateUserBalance() external {\n        for (uint i = 0; i < expectedTokens.length; i = i.add(1)) {\n            TokenLoan(tokenLoanContract).updateUserBalances(expectedTokens[i], \n                ERC20Interface(TokenLoanStorage(storageContract).acceptedTokens(expectedTokens[i])).balanceOf(address(this)));\n        }\n    }\n\n    function sendBack() external onlyTokenLoan {\n        for (uint i = 0; i < expectedTokens.length; i = i.add(1)) {\n            uint balance = ERC20Interface(TokenLoanStorage(storageContract).acceptedTokens(expectedTokens[i])).balanceOf(address(this));\n            if (balance > 0) {\n                ERC20Interface(TokenLoanStorage(storageContract).acceptedTokens(expectedTokens[i])).transfer(user, balance);\n            }\n        }\n    }\n\n    function sendAuctionWinner(address _winner) external onlyAuction {\n        for (uint i = 0; i < expectedTokens.length; i = i.add(1)) {\n            uint balance = ERC20Interface(TokenLoanStorage(storageContract).acceptedTokens(expectedTokens[i])).balanceOf(address(this));\n            if (balance > 0) {\n                ERC20Interface(TokenLoanStorage(storageContract).acceptedTokens(expectedTokens[i])).transfer(_winner, balance);\n            }\n        }\n    }\n}",
  "sourcePath": "/home/adam/AdvancedSC/TokenLoan/contracts/Collateral.sol",
  "compiler": {
    "name": "solc",
    "version": "0.5.6+commit.b259423e.Emscripten.clang"
  },
  "schemaVersion": "3.0.1",
  "updatedAt": "2019-04-04T08:36:33.892Z",
  "devdoc": {
    "methods": {}
  },
  "userdoc": {
    "methods": {}
  }
}