{
  "contractName": "Collateral",
  "abi": [
    {
      "constant": true,
      "inputs": [],
      "name": "user",
      "outputs": [
        {
          "name": "",
          "type": "address"
        }
      ],
      "payable": false,
      "stateMutability": "view",
      "type": "function"
    },
    {
      "inputs": [
        {
          "name": "_tokens",
          "type": "uint256[]"
        },
        {
          "name": "_user",
          "type": "address"
        },
        {
          "name": "_tokenLoanContract",
          "type": "address"
        },
        {
          "name": "_storageContract",
          "type": "address"
        },
        {
          "name": "_auctionContract",
          "type": "address"
        }
      ],
      "payable": false,
      "stateMutability": "nonpayable",
      "type": "constructor"
    },
    {
      "anonymous": false,
      "inputs": [
        {
          "indexed": false,
          "name": "_to",
          "type": "address"
        },
        {
          "indexed": false,
          "name": "_timestamp",
          "type": "uint256"
        }
      ],
      "name": "CollateralReturned",
      "type": "event"
    },
    {
      "constant": false,
      "inputs": [],
      "name": "updateUserBalance",
      "outputs": [],
      "payable": false,
      "stateMutability": "nonpayable",
      "type": "function"
    },
    {
      "constant": false,
      "inputs": [],
      "name": "sendBack",
      "outputs": [],
      "payable": false,
      "stateMutability": "nonpayable",
      "type": "function"
    },
    {
      "constant": false,
      "inputs": [
        {
          "name": "_winner",
          "type": "address"
        }
      ],
      "name": "sendAuctionWinner",
      "outputs": [],
      "payable": false,
      "stateMutability": "nonpayable",
      "type": "function"
    }
  ],
  "bytecode": "0x608060405234801561001057600080fd5b50604051611182380380611182833981018060405260a081101561003357600080fd5b81019080805164010000000081111561004b57600080fd5b8281019050602081018481111561006157600080fd5b815185602082028301116401000000008211171561007e57600080fd5b505092919060200180519060200190929190805190602001909291908051906020019092919080519060200190929190505050836000806101000a81548173ffffffffffffffffffffffffffffffffffffffff021916908373ffffffffffffffffffffffffffffffffffffffff16021790555082600160006101000a81548173ffffffffffffffffffffffffffffffffffffffff021916908373ffffffffffffffffffffffffffffffffffffffff16021790555080600260006101000a81548173ffffffffffffffffffffffffffffffffffffffff021916908373ffffffffffffffffffffffffffffffffffffffff16021790555081600360006101000a81548173ffffffffffffffffffffffffffffffffffffffff021916908373ffffffffffffffffffffffffffffffffffffffff16021790555060008090505b855181101561022e57600486828151811015156101d357fe5b90602001906020020151908060018154018082558091505090600182039060005260206000200160009091929091909150555061022760018261023964010000000002610e04179091906401000000009004565b90506101ba565b5050505050506102be565b600081830190508281101515156102b8576040517f08c379a00000000000000000000000000000000000000000000000000000000081526004018080602001828103825260128152602001807f4f766572666c6f772064657465637465642e000000000000000000000000000081525060200191505060405180910390fd5b92915050565b610eb5806102cd6000396000f3fe608060405260043610610062576000357c0100000000000000000000000000000000000000000000000000000000900463ffffffff16806308daba2d146100675780634f8632ba146100b8578063732dd2931461010f578063d1e1504514610126575b600080fd5b34801561007357600080fd5b506100b66004803603602081101561008a57600080fd5b81019080803573ffffffffffffffffffffffffffffffffffffffff16906020019092919050505061013d565b005b3480156100c457600080fd5b506100cd6105e0565b604051808273ffffffffffffffffffffffffffffffffffffffff1673ffffffffffffffffffffffffffffffffffffffff16815260200191505060405180910390f35b34801561011b57600080fd5b50610124610605565b005b34801561013257600080fd5b5061013b6108b5565b005b600260009054906101000a900473ffffffffffffffffffffffffffffffffffffffff1673ffffffffffffffffffffffffffffffffffffffff163373ffffffffffffffffffffffffffffffffffffffff16141515610228576040517f08c379a00000000000000000000000000000000000000000000000000000000081526004018080602001828103825260238152602001807f596f7520617265206e6f742074686520546f6b656e4c6f616e20436f6e74726181526020017f63742e000000000000000000000000000000000000000000000000000000000081525060400191505060405180910390fd5b60008090505b6004805490508110156105dc576000600360009054906101000a900473ffffffffffffffffffffffffffffffffffffffff1673ffffffffffffffffffffffffffffffffffffffff166336c8775460048481548110151561028a57fe5b90600052602060002001546040518263ffffffff167c01000000000000000000000000000000000000000000000000000000000281526004018082815260200191505060206040518083038186803b1580156102e557600080fd5b505afa1580156102f9573d6000803e3d6000fd5b505050506040513d602081101561030f57600080fd5b810190808051906020019092919050505073ffffffffffffffffffffffffffffffffffffffff166370a08231306040518263ffffffff167c0100000000000000000000000000000000000000000000000000000000028152600401808273ffffffffffffffffffffffffffffffffffffffff1673ffffffffffffffffffffffffffffffffffffffff16815260200191505060206040518083038186803b1580156103b857600080fd5b505afa1580156103cc573d6000803e3d6000fd5b505050506040513d60208110156103e257600080fd5b8101908080519060200190929190505050905060008111156105c057600360009054906101000a900473ffffffffffffffffffffffffffffffffffffffff1673ffffffffffffffffffffffffffffffffffffffff166336c8775460048481548110151561044b57fe5b90600052602060002001546040518263ffffffff167c01000000000000000000000000000000000000000000000000000000000281526004018082815260200191505060206040518083038186803b1580156104a657600080fd5b505afa1580156104ba573d6000803e3d6000fd5b505050506040513d60208110156104d057600080fd5b810190808051906020019092919050505073ffffffffffffffffffffffffffffffffffffffff1663a9059cbb84836040518363ffffffff167c0100000000000000000000000000000000000000000000000000000000028152600401808373ffffffffffffffffffffffffffffffffffffffff1673ffffffffffffffffffffffffffffffffffffffff16815260200182815260200192505050602060405180830381600087803b15801561058357600080fd5b505af1158015610597573d6000803e3d6000fd5b505050506040513d60208110156105ad57600080fd5b8101908080519060200190929190505050505b506105d5600182610e0490919063ffffffff16565b905061022e565b5050565b6000809054906101000a900473ffffffffffffffffffffffffffffffffffffffff1681565b60008090505b6004805490508110156108b257600160009054906101000a900473ffffffffffffffffffffffffffffffffffffffff1673ffffffffffffffffffffffffffffffffffffffff1663270226cc60048381548110151561066557fe5b9060005260206000200154600360009054906101000a900473ffffffffffffffffffffffffffffffffffffffff1673ffffffffffffffffffffffffffffffffffffffff166336c877546004868154811015156106bd57fe5b90600052602060002001546040518263ffffffff167c01000000000000000000000000000000000000000000000000000000000281526004018082815260200191505060206040518083038186803b15801561071857600080fd5b505afa15801561072c573d6000803e3d6000fd5b505050506040513d602081101561074257600080fd5b810190808051906020019092919050505073ffffffffffffffffffffffffffffffffffffffff166370a08231306040518263ffffffff167c0100000000000000000000000000000000000000000000000000000000028152600401808273ffffffffffffffffffffffffffffffffffffffff1673ffffffffffffffffffffffffffffffffffffffff16815260200191505060206040518083038186803b1580156107eb57600080fd5b505afa1580156107ff573d6000803e3d6000fd5b505050506040513d602081101561081557600080fd5b81019080805190602001909291905050506040518363ffffffff167c01000000000000000000000000000000000000000000000000000000000281526004018083815260200182815260200192505050600060405180830381600087803b15801561087f57600080fd5b505af1158015610893573d6000803e3d6000fd5b505050506108ab600182610e0490919063ffffffff16565b905061060b565b50565b600160009054906101000a900473ffffffffffffffffffffffffffffffffffffffff1673ffffffffffffffffffffffffffffffffffffffff163373ffffffffffffffffffffffffffffffffffffffff161415156109a0576040517f08c379a00000000000000000000000000000000000000000000000000000000081526004018080602001828103825260238152602001807f596f7520617265206e6f742074686520546f6b656e4c6f616e20436f6e74726181526020017f63742e000000000000000000000000000000000000000000000000000000000081525060400191505060405180910390fd5b60008090505b600480549050811015610d75576000600360009054906101000a900473ffffffffffffffffffffffffffffffffffffffff1673ffffffffffffffffffffffffffffffffffffffff166336c87754600484815481101515610a0257fe5b90600052602060002001546040518263ffffffff167c01000000000000000000000000000000000000000000000000000000000281526004018082815260200191505060206040518083038186803b158015610a5d57600080fd5b505afa158015610a71573d6000803e3d6000fd5b505050506040513d6020811015610a8757600080fd5b810190808051906020019092919050505073ffffffffffffffffffffffffffffffffffffffff166370a08231306040518263ffffffff167c0100000000000000000000000000000000000000000000000000000000028152600401808273ffffffffffffffffffffffffffffffffffffffff1673ffffffffffffffffffffffffffffffffffffffff16815260200191505060206040518083038186803b158015610b3057600080fd5b505afa158015610b44573d6000803e3d6000fd5b505050506040513d6020811015610b5a57600080fd5b810190808051906020019092919050505090506000811115610d5957600360009054906101000a900473ffffffffffffffffffffffffffffffffffffffff1673ffffffffffffffffffffffffffffffffffffffff166336c87754600484815481101515610bc357fe5b90600052602060002001546040518263ffffffff167c01000000000000000000000000000000000000000000000000000000000281526004018082815260200191505060206040518083038186803b158015610c1e57600080fd5b505afa158015610c32573d6000803e3d6000fd5b505050506040513d6020811015610c4857600080fd5b810190808051906020019092919050505073ffffffffffffffffffffffffffffffffffffffff1663a9059cbb6000809054906101000a900473ffffffffffffffffffffffffffffffffffffffff16836040518363ffffffff167c0100000000000000000000000000000000000000000000000000000000028152600401808373ffffffffffffffffffffffffffffffffffffffff1673ffffffffffffffffffffffffffffffffffffffff16815260200182815260200192505050602060405180830381600087803b158015610d1c57600080fd5b505af1158015610d30573d6000803e3d6000fd5b505050506040513d6020811015610d4657600080fd5b8101908080519060200190929190505050505b50610d6e600182610e0490919063ffffffff16565b90506109a6565b507f3db642b80902afb8ef23a2aeab4800b4b3717feb180705cf0a1c273ccc591c976000809054906101000a900473ffffffffffffffffffffffffffffffffffffffff1642604051808373ffffffffffffffffffffffffffffffffffffffff1673ffffffffffffffffffffffffffffffffffffffff1681526020018281526020019250505060405180910390a1565b60008183019050828110151515610e83576040517f08c379a00000000000000000000000000000000000000000000000000000000081526004018080602001828103825260128152602001807f4f766572666c6f772064657465637465642e000000000000000000000000000081525060200191505060405180910390fd5b9291505056fea165627a7a723058208ce64c340f89fc0b759d90f3fd9ba26224f6fe4049fc34e805d9797dd934a1c90029",
  "source": "pragma solidity 0.5.0;\n\nimport \"./SafeMath.sol\";\nimport \"./TokenLoan.sol\";\nimport \"./TokenLoanStorage.sol\";\nimport \"./ERC20Interface.sol\";\n\n\n// ----------------------------------------------------------------------------\n// Collateral Contract.\n// \n// ----------------------------------------------------------------------------\ncontract Collateral {\n    using SafeMath for uint;\n\n    event CollateralReturned(address _to, uint256 _timestamp);\n\n    address payable public user;\n    address tokenLoanContract;\n    address auctionContract;\n    address storageContract;\n    uint[] expectedTokens;\n\n    modifier onlyTokenLoan {\n        require(msg.sender == tokenLoanContract, \"You are not the TokenLoan Contract.\");\n        _;\n    }\n\n    modifier onlyAuction {\n        require(msg.sender == auctionContract, \"You are not the TokenLoan Contract.\");\n        _;\n    }\n\n\n    constructor (uint[] memory _tokens, address payable _user, address _tokenLoanContract, address _storageContract, address _auctionContract) public {\n        user = _user;\n        tokenLoanContract = _tokenLoanContract;\n        auctionContract = _auctionContract;\n        storageContract = _storageContract;\n        for (uint i = 0; i < _tokens.length; i = i.add(1)) {\n            expectedTokens.push(_tokens[i]);\n        }\n    }\n\n    function updateUserBalance() external {\n        for (uint i = 0; i < expectedTokens.length; i = i.add(1)) {\n            TokenLoan(tokenLoanContract).updateUserBalances(expectedTokens[i], \n                ERC20Interface(TokenLoanStorage(storageContract).acceptedTokens(expectedTokens[i])).balanceOf(address(this)));\n        }\n    }\n\n    function sendBack() external onlyTokenLoan {\n        for (uint i = 0; i < expectedTokens.length; i = i.add(1)) {\n            uint balance = ERC20Interface(TokenLoanStorage(storageContract).acceptedTokens(expectedTokens[i])).balanceOf(address(this));\n            if (balance > 0) {\n                ERC20Interface(TokenLoanStorage(storageContract).acceptedTokens(expectedTokens[i])).transfer(user, balance);\n            }\n        }\n        emit CollateralReturned(user, now);\n    }\n\n    function sendAuctionWinner(address _winner) external onlyAuction {\n        for (uint i = 0; i < expectedTokens.length; i = i.add(1)) {\n            uint balance = ERC20Interface(TokenLoanStorage(storageContract).acceptedTokens(expectedTokens[i])).balanceOf(address(this));\n            if (balance > 0) {\n                ERC20Interface(TokenLoanStorage(storageContract).acceptedTokens(expectedTokens[i])).transfer(_winner, balance);\n            }\n        }\n    }\n}",
  "sourcePath": "/home/adam/AdvancedSC/TokenLoan/contracts/Collateral.sol",
  "compiler": {
    "name": "solc",
    "version": "0.5.0+commit.1d4f565a.Emscripten.clang"
  },
  "schemaVersion": "3.0.1",
  "updatedAt": "2019-04-04T21:28:25.066Z",
  "devdoc": {
    "methods": {}
  },
  "userdoc": {
    "methods": {}
  }
}