{
  "contractName": "TokenLoan",
  "abi": [
    {
      "constant": true,
      "inputs": [],
      "name": "auctionContract",
      "outputs": [
        {
          "name": "",
          "type": "address"
        }
      ],
      "payable": false,
      "stateMutability": "view",
      "type": "function",
      "signature": "0x0ab8afac"
    },
    {
      "constant": true,
      "inputs": [],
      "name": "storageContract",
      "outputs": [
        {
          "name": "",
          "type": "address"
        }
      ],
      "payable": false,
      "stateMutability": "view",
      "type": "function",
      "signature": "0x11ce0267"
    },
    {
      "constant": true,
      "inputs": [],
      "name": "owner",
      "outputs": [
        {
          "name": "",
          "type": "address"
        }
      ],
      "payable": false,
      "stateMutability": "view",
      "type": "function",
      "signature": "0x8da5cb5b"
    },
    {
      "inputs": [
        {
          "name": "_storageContract",
          "type": "address"
        }
      ],
      "payable": false,
      "stateMutability": "nonpayable",
      "type": "constructor",
      "signature": "constructor"
    },
    {
      "anonymous": false,
      "inputs": [
        {
          "indexed": false,
          "name": "_newAddress",
          "type": "address"
        },
        {
          "indexed": false,
          "name": "_by",
          "type": "address"
        },
        {
          "indexed": false,
          "name": "_timestamp",
          "type": "uint256"
        }
      ],
      "name": "NewCollateralAddress",
      "type": "event",
      "signature": "0x5c2704598e8f05e3bf6fcf8df1af01a65c1c343cd7247bf474b4180290888973"
    },
    {
      "constant": false,
      "inputs": [
        {
          "name": "_auctionContract",
          "type": "address"
        }
      ],
      "name": "setAuctionContract",
      "outputs": [],
      "payable": false,
      "stateMutability": "nonpayable",
      "type": "function",
      "signature": "0x023924c7"
    },
    {
      "constant": false,
      "inputs": [
        {
          "name": "_tokens",
          "type": "uint256[]"
        }
      ],
      "name": "createCollateralContract",
      "outputs": [
        {
          "name": "",
          "type": "address"
        }
      ],
      "payable": false,
      "stateMutability": "nonpayable",
      "type": "function",
      "signature": "0x85a6bfb2"
    },
    {
      "constant": false,
      "inputs": [
        {
          "name": "_token",
          "type": "uint256"
        },
        {
          "name": "_balance",
          "type": "uint256"
        }
      ],
      "name": "updateUserBalances",
      "outputs": [],
      "payable": false,
      "stateMutability": "nonpayable",
      "type": "function",
      "signature": "0x270226cc"
    },
    {
      "constant": false,
      "inputs": [
        {
          "name": "_lotNumber",
          "type": "uint256"
        }
      ],
      "name": "closeAuction",
      "outputs": [],
      "payable": false,
      "stateMutability": "nonpayable",
      "type": "function",
      "signature": "0x236ed8f3"
    },
    {
      "constant": false,
      "inputs": [
        {
          "name": "_loanID",
          "type": "uint256"
        },
        {
          "name": "_isBad",
          "type": "bool"
        }
      ],
      "name": "checkLoan",
      "outputs": [],
      "payable": false,
      "stateMutability": "nonpayable",
      "type": "function",
      "signature": "0x31b47747"
    },
    {
      "constant": true,
      "inputs": [
        {
          "name": "_tokenName",
          "type": "string"
        }
      ],
      "name": "lookUpTokenIndex",
      "outputs": [
        {
          "name": "",
          "type": "uint256"
        }
      ],
      "payable": false,
      "stateMutability": "view",
      "type": "function",
      "signature": "0x64aaea54"
    },
    {
      "constant": false,
      "inputs": [
        {
          "name": "_user",
          "type": "address"
        },
        {
          "name": "_token",
          "type": "uint256"
        },
        {
          "name": "_amount",
          "type": "uint256"
        }
      ],
      "name": "sendStuckTokens",
      "outputs": [],
      "payable": false,
      "stateMutability": "nonpayable",
      "type": "function",
      "signature": "0x8a2d39a0"
    }
  ],
  "bytecode": "0x608060405234801561001057600080fd5b506040516020806133e38339810180604052602081101561003057600080fd5b8101908080519060200190929190505050336000806101000a81548173ffffffffffffffffffffffffffffffffffffffff021916908373ffffffffffffffffffffffffffffffffffffffff16021790555080600160006101000a81548173ffffffffffffffffffffffffffffffffffffffff021916908373ffffffffffffffffffffffffffffffffffffffff160217905550600160009054906101000a900473ffffffffffffffffffffffffffffffffffffffff16600360006101000a81548173ffffffffffffffffffffffffffffffffffffffff021916908373ffffffffffffffffffffffffffffffffffffffff160217905550506132ae806101356000396000f3fe608060405260043610620000af576000357c0100000000000000000000000000000000000000000000000000000000900463ffffffff168063023924c714620000b45780630ab8afac146200010957806311ce02671462000163578063236ed8f314620001bd578063270226cc14620001fc57806331b47747146200024557806364aaea54146200029057806385a6bfb214620003315780638a2d39a014620003fe5780638da5cb5b1462000467575b600080fd5b348015620000c157600080fd5b506200010760048036036020811015620000da57600080fd5b81019080803573ffffffffffffffffffffffffffffffffffffffff169060200190929190505050620004c1565b005b3480156200011657600080fd5b50620001216200062d565b604051808273ffffffffffffffffffffffffffffffffffffffff1673ffffffffffffffffffffffffffffffffffffffff16815260200191505060405180910390f35b3480156200017057600080fd5b506200017b62000653565b604051808273ffffffffffffffffffffffffffffffffffffffff1673ffffffffffffffffffffffffffffffffffffffff16815260200191505060405180910390f35b348015620001ca57600080fd5b50620001fa60048036036020811015620001e357600080fd5b810190808035906020019092919050505062000679565b005b3480156200020957600080fd5b5062000243600480360360408110156200022257600080fd5b81019080803590602001909291908035906020019092919050505062000980565b005b3480156200025257600080fd5b506200028e600480360360408110156200026b57600080fd5b810190808035906020019092919080351515906020019092919050505062000ccb565b005b3480156200029d57600080fd5b506200031b60048036036020811015620002b657600080fd5b8101908080359060200190640100000000811115620002d457600080fd5b820183602082011115620002e757600080fd5b803590602001918460018302840111640100000000831117156200030a57600080fd5b909192939192939050505062000e32565b6040518082815260200191505060405180910390f35b3480156200033e57600080fd5b50620003bc600480360360208110156200035757600080fd5b81019080803590602001906401000000008111156200037557600080fd5b8201836020820111156200038857600080fd5b80359060200191846020830284011164010000000083111715620003ab57600080fd5b909192939192939050505062000f60565b604051808273ffffffffffffffffffffffffffffffffffffffff1673ffffffffffffffffffffffffffffffffffffffff16815260200191505060405180910390f35b3480156200040b57600080fd5b5062000465600480360360608110156200042457600080fd5b81019080803573ffffffffffffffffffffffffffffffffffffffff1690602001909291908035906020019092919080359060200190929190505050620016d1565b005b3480156200047457600080fd5b506200047f62001949565b604051808273ffffffffffffffffffffffffffffffffffffffff1673ffffffffffffffffffffffffffffffffffffffff16815260200191505060405180910390f35b6000809054906101000a900473ffffffffffffffffffffffffffffffffffffffff1673ffffffffffffffffffffffffffffffffffffffff163373ffffffffffffffffffffffffffffffffffffffff1614151562000586576040517f08c379a000000000000000000000000000000000000000000000000000000000815260040180806020018281038252601f8152602001807f596f7520617265206e6f742074686520636f6e7472616374206f776e65722e0081525060200191505060405180910390fd5b80600260006101000a81548173ffffffffffffffffffffffffffffffffffffffff021916908373ffffffffffffffffffffffffffffffffffffffff160217905550600260009054906101000a900473ffffffffffffffffffffffffffffffffffffffff16600460006101000a81548173ffffffffffffffffffffffffffffffffffffffff021916908373ffffffffffffffffffffffffffffffffffffffff16021790555050565b600260009054906101000a900473ffffffffffffffffffffffffffffffffffffffff1681565b600160009054906101000a900473ffffffffffffffffffffffffffffffffffffffff1681565b6000600460009054906101000a900473ffffffffffffffffffffffffffffffffffffffff1673ffffffffffffffffffffffffffffffffffffffff16632dd7f648836040518263ffffffff167c01000000000000000000000000000000000000000000000000000000000281526004018082815260200191505060206040518083038186803b1580156200070b57600080fd5b505afa15801562000720573d6000803e3d6000fd5b505050506040513d60208110156200073757600080fd5b810190808051906020019092919050505090506000600460009054906101000a900473ffffffffffffffffffffffffffffffffffffffff1673ffffffffffffffffffffffffffffffffffffffff166368187e51846040518263ffffffff167c01000000000000000000000000000000000000000000000000000000000281526004018082815260200191505060206040518083038186803b158015620007dc57600080fd5b505afa158015620007f1573d6000803e3d6000fd5b505050506040513d60208110156200080857600080fd5b81019080805190602001909291905050509050600460009054906101000a900473ffffffffffffffffffffffffffffffffffffffff1673ffffffffffffffffffffffffffffffffffffffff1663162a0cf8846040518263ffffffff167c010000000000000000000000000000000000000000000000000000000002815260040180828152602001915050600060405180830381600087803b158015620008ad57600080fd5b505af1158015620008c2573d6000803e3d6000fd5b505050508073ffffffffffffffffffffffffffffffffffffffff166308daba2d836040518263ffffffff167c0100000000000000000000000000000000000000000000000000000000028152600401808273ffffffffffffffffffffffffffffffffffffffff1673ffffffffffffffffffffffffffffffffffffffff168152602001915050600060405180830381600087803b1580156200096257600080fd5b505af115801562000977573d6000803e3d6000fd5b50505050505050565b600360009054906101000a900473ffffffffffffffffffffffffffffffffffffffff1673ffffffffffffffffffffffffffffffffffffffff166331706b92336040518263ffffffff167c0100000000000000000000000000000000000000000000000000000000028152600401808273ffffffffffffffffffffffffffffffffffffffff1673ffffffffffffffffffffffffffffffffffffffff16815260200191505060206040518083038186803b15801562000a3c57600080fd5b505afa15801562000a51573d6000803e3d6000fd5b505050506040513d602081101562000a6857600080fd5b8101908080519060200190929190505050151562000b14576040517f08c379a00000000000000000000000000000000000000000000000000000000081526004018080602001828103825260288152602001807f596f7520617265206e6f7420612076616c696420436f6c6c61746572616c204381526020017f6f6e74726163742e00000000000000000000000000000000000000000000000081525060400191505060405180910390fd5b600360009054906101000a900473ffffffffffffffffffffffffffffffffffffffff1673ffffffffffffffffffffffffffffffffffffffff1663524f3262600360009054906101000a900473ffffffffffffffffffffffffffffffffffffffff1673ffffffffffffffffffffffffffffffffffffffff16636047698b336040518263ffffffff167c0100000000000000000000000000000000000000000000000000000000028152600401808273ffffffffffffffffffffffffffffffffffffffff1673ffffffffffffffffffffffffffffffffffffffff16815260200191505060206040518083038186803b15801562000c0e57600080fd5b505afa15801562000c23573d6000803e3d6000fd5b505050506040513d602081101562000c3a57600080fd5b810190808051906020019092919050505084846040518463ffffffff167c0100000000000000000000000000000000000000000000000000000000028152600401808481526020018381526020018281526020019350505050600060405180830381600087803b15801562000cae57600080fd5b505af115801562000cc3573d6000803e3d6000fd5b505050505050565b801562000ce35762000cdd826200196e565b62000e2e565b600360009054906101000a900473ffffffffffffffffffffffffffffffffffffffff1673ffffffffffffffffffffffffffffffffffffffff16634ff97ebf836040518263ffffffff167c01000000000000000000000000000000000000000000000000000000000281526004018082815260200191505060206040518083038186803b15801562000d7357600080fd5b505afa15801562000d88573d6000803e3d6000fd5b505050506040513d602081101562000d9f57600080fd5b810190808051906020019092919050505073ffffffffffffffffffffffffffffffffffffffff1663d1e150456040518163ffffffff167c0100000000000000000000000000000000000000000000000000000000028152600401600060405180830381600087803b15801562000e1457600080fd5b505af115801562000e29573d6000803e3d6000fd5b505050505b5050565b6000606083838080601f016020809104026020016040519081016040528093929190818152602001838380828437600081840152601f19601f820116905080830192505050505050509050600081805190602001209050600360009054906101000a900473ffffffffffffffffffffffffffffffffffffffff1673ffffffffffffffffffffffffffffffffffffffff16634452de54826040518263ffffffff167c01000000000000000000000000000000000000000000000000000000000281526004018082815260200191505060206040518083038186803b15801562000f1957600080fd5b505afa15801562000f2e573d6000803e3d6000fd5b505050506040513d602081101562000f4557600080fd5b81019080805190602001909291905050509250505092915050565b60008083833330600160009054906101000a900473ffffffffffffffffffffffffffffffffffffffff16600260009054906101000a900473ffffffffffffffffffffffffffffffffffffffff1662000fb7620020ef565b80806020018673ffffffffffffffffffffffffffffffffffffffff1673ffffffffffffffffffffffffffffffffffffffff1681526020018573ffffffffffffffffffffffffffffffffffffffff1673ffffffffffffffffffffffffffffffffffffffff1681526020018473ffffffffffffffffffffffffffffffffffffffff1673ffffffffffffffffffffffffffffffffffffffff1681526020018373ffffffffffffffffffffffffffffffffffffffff1673ffffffffffffffffffffffffffffffffffffffff1681526020018281038252888882818152602001925060200280828437600081840152601f19601f820116905080830192505050975050505050505050604051809103906000f080158015620010d8573d6000803e3d6000fd5b509050600360009054906101000a900473ffffffffffffffffffffffffffffffffffffffff1673ffffffffffffffffffffffffffffffffffffffff1663da30c5dc6040518163ffffffff167c0100000000000000000000000000000000000000000000000000000000028152600401600060405180830381600087803b1580156200116257600080fd5b505af115801562001177573d6000803e3d6000fd5b50505050600360009054906101000a900473ffffffffffffffffffffffffffffffffffffffff1673ffffffffffffffffffffffffffffffffffffffff1663daa3c9b2600360009054906101000a900473ffffffffffffffffffffffffffffffffffffffff1673ffffffffffffffffffffffffffffffffffffffff1663215b0dc66040518163ffffffff167c010000000000000000000000000000000000000000000000000000000002815260040160206040518083038186803b1580156200123e57600080fd5b505afa15801562001253573d6000803e3d6000fd5b505050506040513d60208110156200126a57600080fd5b8101908080519060200190929190505050338460016000808b8b6040518963ffffffff167c0100000000000000000000000000000000000000000000000000000000028152600401808981526020018873ffffffffffffffffffffffffffffffffffffffff1673ffffffffffffffffffffffffffffffffffffffff1681526020018773ffffffffffffffffffffffffffffffffffffffff1673ffffffffffffffffffffffffffffffffffffffff16815260200186151515158152602001858152602001848152602001806020018281038252848482818152602001925060200280828437600081840152601f19601f8201169050808301925050509950505050505050505050600060405180830381600087803b1580156200138b57600080fd5b505af1158015620013a0573d6000803e3d6000fd5b50505050600360009054906101000a900473ffffffffffffffffffffffffffffffffffffffff1673ffffffffffffffffffffffffffffffffffffffff1663b91cc8488260016040518363ffffffff167c0100000000000000000000000000000000000000000000000000000000028152600401808373ffffffffffffffffffffffffffffffffffffffff1673ffffffffffffffffffffffffffffffffffffffff1681526020018215151515815260200192505050600060405180830381600087803b1580156200146f57600080fd5b505af115801562001484573d6000803e3d6000fd5b50505050600360009054906101000a900473ffffffffffffffffffffffffffffffffffffffff1673ffffffffffffffffffffffffffffffffffffffff1663580e8d2682600360009054906101000a900473ffffffffffffffffffffffffffffffffffffffff1673ffffffffffffffffffffffffffffffffffffffff1663215b0dc66040518163ffffffff167c010000000000000000000000000000000000000000000000000000000002815260040160206040518083038186803b1580156200154c57600080fd5b505afa15801562001561573d6000803e3d6000fd5b505050506040513d60208110156200157857600080fd5b81019080805190602001909291905050506040518363ffffffff167c0100000000000000000000000000000000000000000000000000000000028152600401808373ffffffffffffffffffffffffffffffffffffffff1673ffffffffffffffffffffffffffffffffffffffff16815260200182815260200192505050600060405180830381600087803b1580156200160f57600080fd5b505af115801562001624573d6000803e3d6000fd5b505050507f5c2704598e8f05e3bf6fcf8df1af01a65c1c343cd7247bf474b4180290888973813342604051808473ffffffffffffffffffffffffffffffffffffffff1673ffffffffffffffffffffffffffffffffffffffff1681526020018373ffffffffffffffffffffffffffffffffffffffff1673ffffffffffffffffffffffffffffffffffffffff168152602001828152602001935050505060405180910390a18091505092915050565b6000809054906101000a900473ffffffffffffffffffffffffffffffffffffffff1673ffffffffffffffffffffffffffffffffffffffff163373ffffffffffffffffffffffffffffffffffffffff1614151562001796576040517f08c379a000000000000000000000000000000000000000000000000000000000815260040180806020018281038252601f8152602001807f596f7520617265206e6f742074686520636f6e7472616374206f776e65722e0081525060200191505060405180910390fd5b600360009054906101000a900473ffffffffffffffffffffffffffffffffffffffff1673ffffffffffffffffffffffffffffffffffffffff166336c87754836040518263ffffffff167c01000000000000000000000000000000000000000000000000000000000281526004018082815260200191505060206040518083038186803b1580156200182657600080fd5b505afa1580156200183b573d6000803e3d6000fd5b505050506040513d60208110156200185257600080fd5b810190808051906020019092919050505073ffffffffffffffffffffffffffffffffffffffff1663a9059cbb84836040518363ffffffff167c0100000000000000000000000000000000000000000000000000000000028152600401808373ffffffffffffffffffffffffffffffffffffffff1673ffffffffffffffffffffffffffffffffffffffff16815260200182815260200192505050602060405180830381600087803b1580156200190657600080fd5b505af11580156200191b573d6000803e3d6000fd5b505050506040513d60208110156200193257600080fd5b810190808051906020019092919050505050505050565b6000809054906101000a900473ffffffffffffffffffffffffffffffffffffffff1681565b600460009054906101000a900473ffffffffffffffffffffffffffffffffffffffff1673ffffffffffffffffffffffffffffffffffffffff1663a9d0c219600360009054906101000a900473ffffffffffffffffffffffffffffffffffffffff1673ffffffffffffffffffffffffffffffffffffffff16634ff97ebf846040518263ffffffff167c01000000000000000000000000000000000000000000000000000000000281526004018082815260200191505060206040518083038186803b15801562001a3c57600080fd5b505afa15801562001a51573d6000803e3d6000fd5b505050506040513d602081101562001a6857600080fd5b8101908080519060200190929190505050603c43016040518363ffffffff167c0100000000000000000000000000000000000000000000000000000000028152600401808373ffffffffffffffffffffffffffffffffffffffff1673ffffffffffffffffffffffffffffffffffffffff16815260200182815260200192505050600060405180830381600087803b15801562001b0357600080fd5b505af115801562001b18573d6000803e3d6000fd5b50505050600360009054906101000a900473ffffffffffffffffffffffffffffffffffffffff1673ffffffffffffffffffffffffffffffffffffffff1663daa3c9b282600360009054906101000a900473ffffffffffffffffffffffffffffffffffffffff1673ffffffffffffffffffffffffffffffffffffffff16635f998174856040518263ffffffff167c01000000000000000000000000000000000000000000000000000000000281526004018082815260200191505060206040518083038186803b15801562001beb57600080fd5b505afa15801562001c00573d6000803e3d6000fd5b505050506040513d602081101562001c1757600080fd5b8101908080519060200190929190505050600360009054906101000a900473ffffffffffffffffffffffffffffffffffffffff1673ffffffffffffffffffffffffffffffffffffffff16634ff97ebf866040518263ffffffff167c01000000000000000000000000000000000000000000000000000000000281526004018082815260200191505060206040518083038186803b15801562001cb857600080fd5b505afa15801562001ccd573d6000803e3d6000fd5b505050506040513d602081101562001ce457600080fd5b81019080805190602001909291905050506000600360009054906101000a900473ffffffffffffffffffffffffffffffffffffffff1673ffffffffffffffffffffffffffffffffffffffff16636b845d10886040518263ffffffff167c01000000000000000000000000000000000000000000000000000000000281526004018082815260200191505060206040518083038186803b15801562001d8757600080fd5b505afa15801562001d9c573d6000803e3d6000fd5b505050506040513d602081101562001db357600080fd5b8101908080519060200190929190505050600360009054906101000a900473ffffffffffffffffffffffffffffffffffffffff1673ffffffffffffffffffffffffffffffffffffffff16630a6efc19896040518263ffffffff167c01000000000000000000000000000000000000000000000000000000000281526004018082815260200191505060206040518083038186803b15801562001e5457600080fd5b505afa15801562001e69573d6000803e3d6000fd5b505050506040513d602081101562001e8057600080fd5b8101908080519060200190929190505050600360009054906101000a900473ffffffffffffffffffffffffffffffffffffffff1673ffffffffffffffffffffffffffffffffffffffff1663edc9718f8a6040518263ffffffff167c01000000000000000000000000000000000000000000000000000000000281526004018082815260200191505060006040518083038186803b15801562001f2157600080fd5b505afa15801562001f36573d6000803e3d6000fd5b505050506040513d6000823e3d601f19601f82011682018060405250602081101562001f6157600080fd5b81019080805164010000000081111562001f7a57600080fd5b8281019050602081018481111562001f9157600080fd5b815185602082028301116401000000008211171562001faf57600080fd5b50509291905050506040518863ffffffff167c0100000000000000000000000000000000000000000000000000000000028152600401808881526020018773ffffffffffffffffffffffffffffffffffffffff1673ffffffffffffffffffffffffffffffffffffffff1681526020018673ffffffffffffffffffffffffffffffffffffffff1673ffffffffffffffffffffffffffffffffffffffff1681526020018515151515815260200184815260200183815260200180602001828103825283818151815260200191508051906020019060200280838360005b83811015620020a75780820151818401526020810190506200208a565b5050505090500198505050505050505050600060405180830381600087803b158015620020d357600080fd5b505af1158015620020e8573d6000803e3d6000fd5b5050505050565b60405161118280620021018339019056fe608060405234801561001057600080fd5b50604051611182380380611182833981018060405260a081101561003357600080fd5b81019080805164010000000081111561004b57600080fd5b8281019050602081018481111561006157600080fd5b815185602082028301116401000000008211171561007e57600080fd5b505092919060200180519060200190929190805190602001909291908051906020019092919080519060200190929190505050836000806101000a81548173ffffffffffffffffffffffffffffffffffffffff021916908373ffffffffffffffffffffffffffffffffffffffff16021790555082600160006101000a81548173ffffffffffffffffffffffffffffffffffffffff021916908373ffffffffffffffffffffffffffffffffffffffff16021790555080600260006101000a81548173ffffffffffffffffffffffffffffffffffffffff021916908373ffffffffffffffffffffffffffffffffffffffff16021790555081600360006101000a81548173ffffffffffffffffffffffffffffffffffffffff021916908373ffffffffffffffffffffffffffffffffffffffff16021790555060008090505b855181101561022e57600486828151811015156101d357fe5b90602001906020020151908060018154018082558091505090600182039060005260206000200160009091929091909150555061022760018261023964010000000002610e04179091906401000000009004565b90506101ba565b5050505050506102be565b600081830190508281101515156102b8576040517f08c379a00000000000000000000000000000000000000000000000000000000081526004018080602001828103825260128152602001807f4f766572666c6f772064657465637465642e000000000000000000000000000081525060200191505060405180910390fd5b92915050565b610eb5806102cd6000396000f3fe608060405260043610610062576000357c0100000000000000000000000000000000000000000000000000000000900463ffffffff16806308daba2d146100675780634f8632ba146100b8578063732dd2931461010f578063d1e1504514610126575b600080fd5b34801561007357600080fd5b506100b66004803603602081101561008a57600080fd5b81019080803573ffffffffffffffffffffffffffffffffffffffff16906020019092919050505061013d565b005b3480156100c457600080fd5b506100cd6105e0565b604051808273ffffffffffffffffffffffffffffffffffffffff1673ffffffffffffffffffffffffffffffffffffffff16815260200191505060405180910390f35b34801561011b57600080fd5b50610124610605565b005b34801561013257600080fd5b5061013b6108b5565b005b600260009054906101000a900473ffffffffffffffffffffffffffffffffffffffff1673ffffffffffffffffffffffffffffffffffffffff163373ffffffffffffffffffffffffffffffffffffffff16141515610228576040517f08c379a00000000000000000000000000000000000000000000000000000000081526004018080602001828103825260238152602001807f596f7520617265206e6f742074686520546f6b656e4c6f616e20436f6e74726181526020017f63742e000000000000000000000000000000000000000000000000000000000081525060400191505060405180910390fd5b60008090505b6004805490508110156105dc576000600360009054906101000a900473ffffffffffffffffffffffffffffffffffffffff1673ffffffffffffffffffffffffffffffffffffffff166336c8775460048481548110151561028a57fe5b90600052602060002001546040518263ffffffff167c01000000000000000000000000000000000000000000000000000000000281526004018082815260200191505060206040518083038186803b1580156102e557600080fd5b505afa1580156102f9573d6000803e3d6000fd5b505050506040513d602081101561030f57600080fd5b810190808051906020019092919050505073ffffffffffffffffffffffffffffffffffffffff166370a08231306040518263ffffffff167c0100000000000000000000000000000000000000000000000000000000028152600401808273ffffffffffffffffffffffffffffffffffffffff1673ffffffffffffffffffffffffffffffffffffffff16815260200191505060206040518083038186803b1580156103b857600080fd5b505afa1580156103cc573d6000803e3d6000fd5b505050506040513d60208110156103e257600080fd5b8101908080519060200190929190505050905060008111156105c057600360009054906101000a900473ffffffffffffffffffffffffffffffffffffffff1673ffffffffffffffffffffffffffffffffffffffff166336c8775460048481548110151561044b57fe5b90600052602060002001546040518263ffffffff167c01000000000000000000000000000000000000000000000000000000000281526004018082815260200191505060206040518083038186803b1580156104a657600080fd5b505afa1580156104ba573d6000803e3d6000fd5b505050506040513d60208110156104d057600080fd5b810190808051906020019092919050505073ffffffffffffffffffffffffffffffffffffffff1663a9059cbb84836040518363ffffffff167c0100000000000000000000000000000000000000000000000000000000028152600401808373ffffffffffffffffffffffffffffffffffffffff1673ffffffffffffffffffffffffffffffffffffffff16815260200182815260200192505050602060405180830381600087803b15801561058357600080fd5b505af1158015610597573d6000803e3d6000fd5b505050506040513d60208110156105ad57600080fd5b8101908080519060200190929190505050505b506105d5600182610e0490919063ffffffff16565b905061022e565b5050565b6000809054906101000a900473ffffffffffffffffffffffffffffffffffffffff1681565b60008090505b6004805490508110156108b257600160009054906101000a900473ffffffffffffffffffffffffffffffffffffffff1673ffffffffffffffffffffffffffffffffffffffff1663270226cc60048381548110151561066557fe5b9060005260206000200154600360009054906101000a900473ffffffffffffffffffffffffffffffffffffffff1673ffffffffffffffffffffffffffffffffffffffff166336c877546004868154811015156106bd57fe5b90600052602060002001546040518263ffffffff167c01000000000000000000000000000000000000000000000000000000000281526004018082815260200191505060206040518083038186803b15801561071857600080fd5b505afa15801561072c573d6000803e3d6000fd5b505050506040513d602081101561074257600080fd5b810190808051906020019092919050505073ffffffffffffffffffffffffffffffffffffffff166370a08231306040518263ffffffff167c0100000000000000000000000000000000000000000000000000000000028152600401808273ffffffffffffffffffffffffffffffffffffffff1673ffffffffffffffffffffffffffffffffffffffff16815260200191505060206040518083038186803b1580156107eb57600080fd5b505afa1580156107ff573d6000803e3d6000fd5b505050506040513d602081101561081557600080fd5b81019080805190602001909291905050506040518363ffffffff167c01000000000000000000000000000000000000000000000000000000000281526004018083815260200182815260200192505050600060405180830381600087803b15801561087f57600080fd5b505af1158015610893573d6000803e3d6000fd5b505050506108ab600182610e0490919063ffffffff16565b905061060b565b50565b600160009054906101000a900473ffffffffffffffffffffffffffffffffffffffff1673ffffffffffffffffffffffffffffffffffffffff163373ffffffffffffffffffffffffffffffffffffffff161415156109a0576040517f08c379a00000000000000000000000000000000000000000000000000000000081526004018080602001828103825260238152602001807f596f7520617265206e6f742074686520546f6b656e4c6f616e20436f6e74726181526020017f63742e000000000000000000000000000000000000000000000000000000000081525060400191505060405180910390fd5b60008090505b600480549050811015610d75576000600360009054906101000a900473ffffffffffffffffffffffffffffffffffffffff1673ffffffffffffffffffffffffffffffffffffffff166336c87754600484815481101515610a0257fe5b90600052602060002001546040518263ffffffff167c01000000000000000000000000000000000000000000000000000000000281526004018082815260200191505060206040518083038186803b158015610a5d57600080fd5b505afa158015610a71573d6000803e3d6000fd5b505050506040513d6020811015610a8757600080fd5b810190808051906020019092919050505073ffffffffffffffffffffffffffffffffffffffff166370a08231306040518263ffffffff167c0100000000000000000000000000000000000000000000000000000000028152600401808273ffffffffffffffffffffffffffffffffffffffff1673ffffffffffffffffffffffffffffffffffffffff16815260200191505060206040518083038186803b158015610b3057600080fd5b505afa158015610b44573d6000803e3d6000fd5b505050506040513d6020811015610b5a57600080fd5b810190808051906020019092919050505090506000811115610d5957600360009054906101000a900473ffffffffffffffffffffffffffffffffffffffff1673ffffffffffffffffffffffffffffffffffffffff166336c87754600484815481101515610bc357fe5b90600052602060002001546040518263ffffffff167c01000000000000000000000000000000000000000000000000000000000281526004018082815260200191505060206040518083038186803b158015610c1e57600080fd5b505afa158015610c32573d6000803e3d6000fd5b505050506040513d6020811015610c4857600080fd5b810190808051906020019092919050505073ffffffffffffffffffffffffffffffffffffffff1663a9059cbb6000809054906101000a900473ffffffffffffffffffffffffffffffffffffffff16836040518363ffffffff167c0100000000000000000000000000000000000000000000000000000000028152600401808373ffffffffffffffffffffffffffffffffffffffff1673ffffffffffffffffffffffffffffffffffffffff16815260200182815260200192505050602060405180830381600087803b158015610d1c57600080fd5b505af1158015610d30573d6000803e3d6000fd5b505050506040513d6020811015610d4657600080fd5b8101908080519060200190929190505050505b50610d6e600182610e0490919063ffffffff16565b90506109a6565b507f3db642b80902afb8ef23a2aeab4800b4b3717feb180705cf0a1c273ccc591c976000809054906101000a900473ffffffffffffffffffffffffffffffffffffffff1642604051808373ffffffffffffffffffffffffffffffffffffffff1673ffffffffffffffffffffffffffffffffffffffff1681526020018281526020019250505060405180910390a1565b60008183019050828110151515610e83576040517f08c379a00000000000000000000000000000000000000000000000000000000081526004018080602001828103825260128152602001807f4f766572666c6f772064657465637465642e000000000000000000000000000081525060200191505060405180910390fd5b9291505056fea165627a7a723058208ce64c340f89fc0b759d90f3fd9ba26224f6fe4049fc34e805d9797dd934a1c90029a165627a7a72305820e030ebd995188d7ab317ebad0692607405c734d91dc980d48805a347c24626730029",
  "source": "pragma solidity 0.5.0;\n\nimport \"./SafeMath.sol\";\nimport \"./TokenLoanStorage.sol\";\nimport \"./ERC20Interface.sol\";\nimport \"./Collateral.sol\";\nimport \"./Auction.sol\";\n\n// ----------------------------------------------------------------------------\n// TokenLoan (Logic) Contract.\n// \n// ----------------------------------------------------------------------------\ncontract TokenLoan {\n    using SafeMath for uint;\n\n    event NewCollateralAddress(address _newAddress, address _by, uint256 _timestamp);\n\n    address public owner;\n    address payable public storageContract;\n    address public auctionContract;\n    TokenLoanStorage contractStorage;\n    Auction auction;\n\n\n    constructor (address payable _storageContract) public {\n        owner = msg.sender;\n        storageContract = _storageContract;\n        contractStorage = TokenLoanStorage(storageContract);\n    }\n\n    modifier onlyOwner {\n        require(msg.sender == owner, \"You are not the contract owner.\");\n        _;\n    }\n\n    modifier OnlyCollateralContract {\n        require(contractStorage.validCollateralContract(msg.sender), \"You are not a valid Collateral Contract.\");\n        _;\n    }\n\n    function setAuctionContract (address _auctionContract ) external onlyOwner {\n        auctionContract = _auctionContract;\n        auction = Auction(auctionContract);\n    }\n\n    function createCollateralContract (uint[] calldata _tokens) external returns (address) {\n        Collateral newCollateralContract = new Collateral(_tokens, msg.sender, address(this), storageContract, auctionContract);\n        contractStorage.incrementLoanID();\n        contractStorage.updateLoan(contractStorage.loanID(), msg.sender, address(newCollateralContract), true, 0, 0, _tokens);\n        contractStorage.setValidCollateralContract(address(newCollateralContract), true);\n        contractStorage.updateLoanIndexLookUp(address(newCollateralContract), contractStorage.loanID());\n        emit NewCollateralAddress(address(newCollateralContract), msg.sender, now);\n        return address(newCollateralContract);\n    }\n\n    function updateUserBalances(uint _token, uint _balance) external OnlyCollateralContract {\n        contractStorage.updateLoanTokenBalance(contractStorage.loanIndexLookUp(msg.sender), _token, _balance);\n    }\n\n    function closeAuction (uint _lotNumber) external {\n        address lotWinner = auction.winningBidder(_lotNumber);\n        address collateral = auction.tokenLot(_lotNumber);\n        auction.executePayment(_lotNumber);\n        Collateral(collateral).sendAuctionWinner(lotWinner);\n    }\n\n    function startAuction(uint _loanID) internal {\n        auction.createNewAuction(contractStorage.loanCollateralAddress(_loanID), block.number + 60);\n        contractStorage.updateLoan(\n            _loanID,\n            contractStorage.loanCollateralOwner(_loanID),\n            contractStorage.loanCollateralAddress(_loanID),\n            false,\n            contractStorage.loanType(_loanID),\n            contractStorage.loanAmount(_loanID),\n            contractStorage.loanTokens(_loanID)\n        );\n    }\n\n    // Dummy function, replace with an oracle. \n    function checkLoan (uint _loanID, bool _isBad) external {\n        // Query oracle. Assume loan is bad, auction of the Collateral.\n        if (_isBad) {\n            startAuction(_loanID);\n        } else {\n        // Loan is good, send the Collateral back to it's owner.\n            Collateral(contractStorage.loanCollateralAddress(_loanID)).sendBack();\n        }\n    }\n\n    function lookUpTokenIndex (string calldata _tokenName) external view returns (uint) {\n        bytes memory bytesName = bytes(_tokenName);\n        bytes32 key = keccak256(bytesName);\n        return contractStorage.tokenIndexLookUp(key);\n    }\n\n\n    function sendStuckTokens (address _user, uint _token, uint _amount) external onlyOwner {\n        ERC20Interface(contractStorage.acceptedTokens(_token)).transfer(_user, _amount);\n    }\n}\n\n",
  "sourcePath": "/home/adam/AdvancedSC/TokenLoan/contracts/TokenLoan.sol",
  "compiler": {
    "name": "solc",
    "version": "0.5.0+commit.1d4f565a.Emscripten.clang"
  },
  "schemaVersion": "3.0.1",
  "updatedAt": "2019-04-04T21:41:35.541Z",
  "devdoc": {
    "methods": {}
  },
  "userdoc": {
    "methods": {}
  }
}