{
  "contractName": "TokenLoan",
  "abi": [
    {
      "constant": true,
      "inputs": [],
      "name": "auctionContract",
      "outputs": [
        {
          "name": "",
          "type": "address"
        }
      ],
      "payable": false,
      "stateMutability": "view",
      "type": "function"
    },
    {
      "constant": true,
      "inputs": [],
      "name": "storageContract",
      "outputs": [
        {
          "name": "",
          "type": "address"
        }
      ],
      "payable": false,
      "stateMutability": "view",
      "type": "function"
    },
    {
      "constant": true,
      "inputs": [],
      "name": "owner",
      "outputs": [
        {
          "name": "",
          "type": "address"
        }
      ],
      "payable": false,
      "stateMutability": "view",
      "type": "function"
    },
    {
      "inputs": [
        {
          "name": "_storageContract",
          "type": "address"
        },
        {
          "name": "_auctionContract",
          "type": "address"
        }
      ],
      "payable": false,
      "stateMutability": "nonpayable",
      "type": "constructor"
    },
    {
      "constant": true,
      "inputs": [
        {
          "name": "_tokenName",
          "type": "string"
        }
      ],
      "name": "lookUpTokenIndex",
      "outputs": [
        {
          "name": "",
          "type": "uint256"
        }
      ],
      "payable": false,
      "stateMutability": "view",
      "type": "function"
    },
    {
      "constant": false,
      "inputs": [
        {
          "name": "_tokens",
          "type": "uint256[]"
        }
      ],
      "name": "createCollateralContract",
      "outputs": [
        {
          "name": "",
          "type": "address"
        }
      ],
      "payable": false,
      "stateMutability": "nonpayable",
      "type": "function"
    },
    {
      "constant": false,
      "inputs": [
        {
          "name": "_token",
          "type": "uint256"
        },
        {
          "name": "_balance",
          "type": "uint256"
        }
      ],
      "name": "updateUserBalances",
      "outputs": [],
      "payable": false,
      "stateMutability": "nonpayable",
      "type": "function"
    },
    {
      "constant": false,
      "inputs": [
        {
          "name": "_lotNumber",
          "type": "uint256"
        }
      ],
      "name": "closeAuction",
      "outputs": [],
      "payable": false,
      "stateMutability": "nonpayable",
      "type": "function"
    },
    {
      "constant": false,
      "inputs": [
        {
          "name": "_loanID",
          "type": "uint256"
        },
        {
          "name": "_isBad",
          "type": "bool"
        }
      ],
      "name": "checkLoan",
      "outputs": [],
      "payable": false,
      "stateMutability": "nonpayable",
      "type": "function"
    },
    {
      "constant": false,
      "inputs": [
        {
          "name": "_user",
          "type": "address"
        },
        {
          "name": "_token",
          "type": "uint256"
        },
        {
          "name": "_amount",
          "type": "uint256"
        }
      ],
      "name": "sendStuckTokens",
      "outputs": [],
      "payable": false,
      "stateMutability": "nonpayable",
      "type": "function"
    }
  ],
  "bytecode": "0x608060405234801561001057600080fd5b50604051604080612ff78339810180604052604081101561003057600080fd5b810190808051906020019092919080519060200190929190505050336000806101000a81548173ffffffffffffffffffffffffffffffffffffffff021916908373ffffffffffffffffffffffffffffffffffffffff16021790555081600160006101000a81548173ffffffffffffffffffffffffffffffffffffffff021916908373ffffffffffffffffffffffffffffffffffffffff160217905550600160009054906101000a900473ffffffffffffffffffffffffffffffffffffffff16600360006101000a81548173ffffffffffffffffffffffffffffffffffffffff021916908373ffffffffffffffffffffffffffffffffffffffff16021790555080600260006101000a81548173ffffffffffffffffffffffffffffffffffffffff021916908373ffffffffffffffffffffffffffffffffffffffff160217905550600260009054906101000a900473ffffffffffffffffffffffffffffffffffffffff16600460006101000a81548173ffffffffffffffffffffffffffffffffffffffff021916908373ffffffffffffffffffffffffffffffffffffffff1602179055505050612e13806101e46000396000f3fe60806040523480156200001157600080fd5b5060043610620000bd576000357c01000000000000000000000000000000000000000000000000000000009004806331b47747116200008c57806331b4774714620001c657806364aaea54146200020357806385a6bfb214620002965780638a2d39a014620003555780638da5cb5b14620003b057620000bd565b80630ab8afac14620000c257806311ce0267146200010e578063236ed8f3146200015a578063270226cc146200018b575b600080fd5b620000cc620003fc565b604051808273ffffffffffffffffffffffffffffffffffffffff1673ffffffffffffffffffffffffffffffffffffffff16815260200191505060405180910390f35b6200011862000422565b604051808273ffffffffffffffffffffffffffffffffffffffff1673ffffffffffffffffffffffffffffffffffffffff16815260200191505060405180910390f35b62000189600480360360208110156200017257600080fd5b810190808035906020019092919050505062000448565b005b620001c460048036036040811015620001a357600080fd5b8101908080359060200190929190803590602001909291905050506200074f565b005b6200020160048036036040811015620001de57600080fd5b810190808035906020019092919080351515906020019092919050505062000a56565b005b62000280600480360360208110156200021b57600080fd5b81019080803590602001906401000000008111156200023957600080fd5b8201836020820111156200024c57600080fd5b803590602001918460018302840111640100000000831117156200026f57600080fd5b909192939192939050505062000bbd565b6040518082815260200191505060405180910390f35b6200031360048036036020811015620002ae57600080fd5b8101908080359060200190640100000000811115620002cc57600080fd5b820183602082011115620002df57600080fd5b803590602001918460208302840111640100000000831117156200030257600080fd5b909192939192939050505062000ceb565b604051808273ffffffffffffffffffffffffffffffffffffffff1673ffffffffffffffffffffffffffffffffffffffff16815260200191505060405180910390f35b620003ae600480360360608110156200036d57600080fd5b81019080803573ffffffffffffffffffffffffffffffffffffffff1690602001909291908035906020019092919080359060200190929190505050620013c1565b005b620003ba62001637565b604051808273ffffffffffffffffffffffffffffffffffffffff1673ffffffffffffffffffffffffffffffffffffffff16815260200191505060405180910390f35b600260009054906101000a900473ffffffffffffffffffffffffffffffffffffffff1681565b600160009054906101000a900473ffffffffffffffffffffffffffffffffffffffff1681565b6000600460009054906101000a900473ffffffffffffffffffffffffffffffffffffffff1673ffffffffffffffffffffffffffffffffffffffff16632dd7f648836040518263ffffffff167c01000000000000000000000000000000000000000000000000000000000281526004018082815260200191505060206040518083038186803b158015620004da57600080fd5b505afa158015620004ef573d6000803e3d6000fd5b505050506040513d60208110156200050657600080fd5b810190808051906020019092919050505090506000600460009054906101000a900473ffffffffffffffffffffffffffffffffffffffff1673ffffffffffffffffffffffffffffffffffffffff166368187e51846040518263ffffffff167c01000000000000000000000000000000000000000000000000000000000281526004018082815260200191505060206040518083038186803b158015620005ab57600080fd5b505afa158015620005c0573d6000803e3d6000fd5b505050506040513d6020811015620005d757600080fd5b81019080805190602001909291905050509050600460009054906101000a900473ffffffffffffffffffffffffffffffffffffffff1673ffffffffffffffffffffffffffffffffffffffff1663162a0cf8846040518263ffffffff167c010000000000000000000000000000000000000000000000000000000002815260040180828152602001915050600060405180830381600087803b1580156200067c57600080fd5b505af115801562000691573d6000803e3d6000fd5b505050508073ffffffffffffffffffffffffffffffffffffffff166308daba2d836040518263ffffffff167c0100000000000000000000000000000000000000000000000000000000028152600401808273ffffffffffffffffffffffffffffffffffffffff1673ffffffffffffffffffffffffffffffffffffffff168152602001915050600060405180830381600087803b1580156200073157600080fd5b505af115801562000746573d6000803e3d6000fd5b50505050505050565b600360009054906101000a900473ffffffffffffffffffffffffffffffffffffffff1673ffffffffffffffffffffffffffffffffffffffff166331706b92336040518263ffffffff167c0100000000000000000000000000000000000000000000000000000000028152600401808273ffffffffffffffffffffffffffffffffffffffff1673ffffffffffffffffffffffffffffffffffffffff16815260200191505060206040518083038186803b1580156200080b57600080fd5b505afa15801562000820573d6000803e3d6000fd5b505050506040513d60208110156200083757600080fd5b81019080805190602001909291905050506200089f576040517f08c379a000000000000000000000000000000000000000000000000000000000815260040180806020018281038252602881526020018062002dc06028913960400191505060405180910390fd5b600360009054906101000a900473ffffffffffffffffffffffffffffffffffffffff1673ffffffffffffffffffffffffffffffffffffffff1663524f3262600360009054906101000a900473ffffffffffffffffffffffffffffffffffffffff1673ffffffffffffffffffffffffffffffffffffffff16636047698b336040518263ffffffff167c0100000000000000000000000000000000000000000000000000000000028152600401808273ffffffffffffffffffffffffffffffffffffffff1673ffffffffffffffffffffffffffffffffffffffff16815260200191505060206040518083038186803b1580156200099957600080fd5b505afa158015620009ae573d6000803e3d6000fd5b505050506040513d6020811015620009c557600080fd5b810190808051906020019092919050505084846040518463ffffffff167c0100000000000000000000000000000000000000000000000000000000028152600401808481526020018381526020018281526020019350505050600060405180830381600087803b15801562000a3957600080fd5b505af115801562000a4e573d6000803e3d6000fd5b505050505050565b801562000a6e5762000a68826200165c565b62000bb9565b600360009054906101000a900473ffffffffffffffffffffffffffffffffffffffff1673ffffffffffffffffffffffffffffffffffffffff16634ff97ebf836040518263ffffffff167c01000000000000000000000000000000000000000000000000000000000281526004018082815260200191505060206040518083038186803b15801562000afe57600080fd5b505afa15801562000b13573d6000803e3d6000fd5b505050506040513d602081101562000b2a57600080fd5b810190808051906020019092919050505073ffffffffffffffffffffffffffffffffffffffff1663d1e150456040518163ffffffff167c0100000000000000000000000000000000000000000000000000000000028152600401600060405180830381600087803b15801562000b9f57600080fd5b505af115801562000bb4573d6000803e3d6000fd5b505050505b5050565b6000606083838080601f016020809104026020016040519081016040528093929190818152602001838380828437600081840152601f19601f820116905080830192505050505050509050600081805190602001209050600360009054906101000a900473ffffffffffffffffffffffffffffffffffffffff1673ffffffffffffffffffffffffffffffffffffffff16634452de54826040518263ffffffff167c01000000000000000000000000000000000000000000000000000000000281526004018082815260200191505060206040518083038186803b15801562000ca457600080fd5b505afa15801562000cb9573d6000803e3d6000fd5b505050506040513d602081101562000cd057600080fd5b81019080805190602001909291905050509250505092915050565b60008083833330600160009054906101000a900473ffffffffffffffffffffffffffffffffffffffff16600260009054906101000a900473ffffffffffffffffffffffffffffffffffffffff1660405162000d469062001ddd565b80806020018673ffffffffffffffffffffffffffffffffffffffff1673ffffffffffffffffffffffffffffffffffffffff1681526020018573ffffffffffffffffffffffffffffffffffffffff1673ffffffffffffffffffffffffffffffffffffffff1681526020018473ffffffffffffffffffffffffffffffffffffffff1673ffffffffffffffffffffffffffffffffffffffff1681526020018373ffffffffffffffffffffffffffffffffffffffff1673ffffffffffffffffffffffffffffffffffffffff1681526020018281038252888882818152602001925060200280828437600081840152601f19601f820116905080830192505050975050505050505050604051809103906000f08015801562000e67573d6000803e3d6000fd5b509050600360009054906101000a900473ffffffffffffffffffffffffffffffffffffffff1673ffffffffffffffffffffffffffffffffffffffff1663da30c5dc6040518163ffffffff167c0100000000000000000000000000000000000000000000000000000000028152600401600060405180830381600087803b15801562000ef157600080fd5b505af115801562000f06573d6000803e3d6000fd5b50505050600360009054906101000a900473ffffffffffffffffffffffffffffffffffffffff1673ffffffffffffffffffffffffffffffffffffffff1663daa3c9b2600360009054906101000a900473ffffffffffffffffffffffffffffffffffffffff1673ffffffffffffffffffffffffffffffffffffffff1663215b0dc66040518163ffffffff167c010000000000000000000000000000000000000000000000000000000002815260040160206040518083038186803b15801562000fcd57600080fd5b505afa15801562000fe2573d6000803e3d6000fd5b505050506040513d602081101562000ff957600080fd5b8101908080519060200190929190505050338460016000808b8b6040518963ffffffff167c0100000000000000000000000000000000000000000000000000000000028152600401808981526020018873ffffffffffffffffffffffffffffffffffffffff1673ffffffffffffffffffffffffffffffffffffffff1681526020018773ffffffffffffffffffffffffffffffffffffffff1673ffffffffffffffffffffffffffffffffffffffff16815260200186151515158152602001858152602001848152602001806020018281038252848482818152602001925060200280828437600081840152601f19601f8201169050808301925050509950505050505050505050600060405180830381600087803b1580156200111a57600080fd5b505af11580156200112f573d6000803e3d6000fd5b50505050600360009054906101000a900473ffffffffffffffffffffffffffffffffffffffff1673ffffffffffffffffffffffffffffffffffffffff1663b91cc8488260016040518363ffffffff167c0100000000000000000000000000000000000000000000000000000000028152600401808373ffffffffffffffffffffffffffffffffffffffff1673ffffffffffffffffffffffffffffffffffffffff1681526020018215151515815260200192505050600060405180830381600087803b158015620011fe57600080fd5b505af115801562001213573d6000803e3d6000fd5b50505050600360009054906101000a900473ffffffffffffffffffffffffffffffffffffffff1673ffffffffffffffffffffffffffffffffffffffff1663580e8d2682600360009054906101000a900473ffffffffffffffffffffffffffffffffffffffff1673ffffffffffffffffffffffffffffffffffffffff1663215b0dc66040518163ffffffff167c010000000000000000000000000000000000000000000000000000000002815260040160206040518083038186803b158015620012db57600080fd5b505afa158015620012f0573d6000803e3d6000fd5b505050506040513d60208110156200130757600080fd5b81019080805190602001909291905050506040518363ffffffff167c0100000000000000000000000000000000000000000000000000000000028152600401808373ffffffffffffffffffffffffffffffffffffffff1673ffffffffffffffffffffffffffffffffffffffff16815260200182815260200192505050600060405180830381600087803b1580156200139e57600080fd5b505af1158015620013b3573d6000803e3d6000fd5b505050508091505092915050565b6000809054906101000a900473ffffffffffffffffffffffffffffffffffffffff1673ffffffffffffffffffffffffffffffffffffffff163373ffffffffffffffffffffffffffffffffffffffff161462001484576040517f08c379a000000000000000000000000000000000000000000000000000000000815260040180806020018281038252601f8152602001807f596f7520617265206e6f742074686520636f6e7472616374206f776e65722e0081525060200191505060405180910390fd5b600360009054906101000a900473ffffffffffffffffffffffffffffffffffffffff1673ffffffffffffffffffffffffffffffffffffffff166336c87754836040518263ffffffff167c01000000000000000000000000000000000000000000000000000000000281526004018082815260200191505060206040518083038186803b1580156200151457600080fd5b505afa15801562001529573d6000803e3d6000fd5b505050506040513d60208110156200154057600080fd5b810190808051906020019092919050505073ffffffffffffffffffffffffffffffffffffffff1663a9059cbb84836040518363ffffffff167c0100000000000000000000000000000000000000000000000000000000028152600401808373ffffffffffffffffffffffffffffffffffffffff1673ffffffffffffffffffffffffffffffffffffffff16815260200182815260200192505050602060405180830381600087803b158015620015f457600080fd5b505af115801562001609573d6000803e3d6000fd5b505050506040513d60208110156200162057600080fd5b810190808051906020019092919050505050505050565b6000809054906101000a900473ffffffffffffffffffffffffffffffffffffffff1681565b600460009054906101000a900473ffffffffffffffffffffffffffffffffffffffff1673ffffffffffffffffffffffffffffffffffffffff1663a9d0c219600360009054906101000a900473ffffffffffffffffffffffffffffffffffffffff1673ffffffffffffffffffffffffffffffffffffffff16634ff97ebf846040518263ffffffff167c01000000000000000000000000000000000000000000000000000000000281526004018082815260200191505060206040518083038186803b1580156200172a57600080fd5b505afa1580156200173f573d6000803e3d6000fd5b505050506040513d60208110156200175657600080fd5b8101908080519060200190929190505050603c43016040518363ffffffff167c0100000000000000000000000000000000000000000000000000000000028152600401808373ffffffffffffffffffffffffffffffffffffffff1673ffffffffffffffffffffffffffffffffffffffff16815260200182815260200192505050600060405180830381600087803b158015620017f157600080fd5b505af115801562001806573d6000803e3d6000fd5b50505050600360009054906101000a900473ffffffffffffffffffffffffffffffffffffffff1673ffffffffffffffffffffffffffffffffffffffff1663daa3c9b282600360009054906101000a900473ffffffffffffffffffffffffffffffffffffffff1673ffffffffffffffffffffffffffffffffffffffff16635f998174856040518263ffffffff167c01000000000000000000000000000000000000000000000000000000000281526004018082815260200191505060206040518083038186803b158015620018d957600080fd5b505afa158015620018ee573d6000803e3d6000fd5b505050506040513d60208110156200190557600080fd5b8101908080519060200190929190505050600360009054906101000a900473ffffffffffffffffffffffffffffffffffffffff1673ffffffffffffffffffffffffffffffffffffffff16634ff97ebf866040518263ffffffff167c01000000000000000000000000000000000000000000000000000000000281526004018082815260200191505060206040518083038186803b158015620019a657600080fd5b505afa158015620019bb573d6000803e3d6000fd5b505050506040513d6020811015620019d257600080fd5b81019080805190602001909291905050506000600360009054906101000a900473ffffffffffffffffffffffffffffffffffffffff1673ffffffffffffffffffffffffffffffffffffffff16636b845d10886040518263ffffffff167c01000000000000000000000000000000000000000000000000000000000281526004018082815260200191505060206040518083038186803b15801562001a7557600080fd5b505afa15801562001a8a573d6000803e3d6000fd5b505050506040513d602081101562001aa157600080fd5b8101908080519060200190929190505050600360009054906101000a900473ffffffffffffffffffffffffffffffffffffffff1673ffffffffffffffffffffffffffffffffffffffff16630a6efc19896040518263ffffffff167c01000000000000000000000000000000000000000000000000000000000281526004018082815260200191505060206040518083038186803b15801562001b4257600080fd5b505afa15801562001b57573d6000803e3d6000fd5b505050506040513d602081101562001b6e57600080fd5b8101908080519060200190929190505050600360009054906101000a900473ffffffffffffffffffffffffffffffffffffffff1673ffffffffffffffffffffffffffffffffffffffff1663edc9718f8a6040518263ffffffff167c01000000000000000000000000000000000000000000000000000000000281526004018082815260200191505060006040518083038186803b15801562001c0f57600080fd5b505afa15801562001c24573d6000803e3d6000fd5b505050506040513d6000823e3d601f19601f82011682018060405250602081101562001c4f57600080fd5b81019080805164010000000081111562001c6857600080fd5b8281019050602081018481111562001c7f57600080fd5b815185602082028301116401000000008211171562001c9d57600080fd5b50509291905050506040518863ffffffff167c0100000000000000000000000000000000000000000000000000000000028152600401808881526020018773ffffffffffffffffffffffffffffffffffffffff1673ffffffffffffffffffffffffffffffffffffffff1681526020018673ffffffffffffffffffffffffffffffffffffffff1673ffffffffffffffffffffffffffffffffffffffff1681526020018515151515815260200184815260200183815260200180602001828103825283818151815260200191508051906020019060200280838360005b8381101562001d9557808201518184015260208101905062001d78565b5050505090500198505050505050505050600060405180830381600087803b15801562001dc157600080fd5b505af115801562001dd6573d6000803e3d6000fd5b5050505050565b610fd48062001dec8339019056fe608060405234801561001057600080fd5b50604051610fd4380380610fd4833981018060405260a081101561003357600080fd5b81019080805164010000000081111561004b57600080fd5b8281019050602081018481111561006157600080fd5b815185602082028301116401000000008211171561007e57600080fd5b505092919060200180519060200190929190805190602001909291908051906020019092919080519060200190929190505050836000806101000a81548173ffffffffffffffffffffffffffffffffffffffff021916908373ffffffffffffffffffffffffffffffffffffffff16021790555082600160006101000a81548173ffffffffffffffffffffffffffffffffffffffff021916908373ffffffffffffffffffffffffffffffffffffffff16021790555080600260006101000a81548173ffffffffffffffffffffffffffffffffffffffff021916908373ffffffffffffffffffffffffffffffffffffffff16021790555081600360006101000a81548173ffffffffffffffffffffffffffffffffffffffff021916908373ffffffffffffffffffffffffffffffffffffffff16021790555060008090505b855181101561022a5760048682815181106101d157fe5b6020026020010151908060018154018082558091505090600182039060005260206000200160009091929091909150555061022360018261023564010000000002610c3b179091906401000000009004565b90506101ba565b5050505050506102b8565b60008183019050828110156102b2576040517f08c379a00000000000000000000000000000000000000000000000000000000081526004018080602001828103825260128152602001807f4f766572666c6f772064657465637465642e000000000000000000000000000081525060200191505060405180910390fd5b92915050565b610d0d806102c76000396000f3fe608060405234801561001057600080fd5b506004361061005e576000357c01000000000000000000000000000000000000000000000000000000009004806308daba2d14610063578063732dd293146100a7578063d1e15045146100b1575b600080fd5b6100a56004803603602081101561007957600080fd5b81019080803573ffffffffffffffffffffffffffffffffffffffff1690602001909291905050506100bb565b005b6100af610515565b005b6100b96107c1565b005b600260009054906101000a900473ffffffffffffffffffffffffffffffffffffffff1673ffffffffffffffffffffffffffffffffffffffff163373ffffffffffffffffffffffffffffffffffffffff1614610161576040517f08c379a0000000000000000000000000000000000000000000000000000000008152600401808060200182810382526023815260200180610cbf6023913960400191505060405180910390fd5b60008090505b600480549050811015610511576000600360009054906101000a900473ffffffffffffffffffffffffffffffffffffffff1673ffffffffffffffffffffffffffffffffffffffff166336c87754600484815481106101c157fe5b90600052602060002001546040518263ffffffff167c01000000000000000000000000000000000000000000000000000000000281526004018082815260200191505060206040518083038186803b15801561021c57600080fd5b505afa158015610230573d6000803e3d6000fd5b505050506040513d602081101561024657600080fd5b810190808051906020019092919050505073ffffffffffffffffffffffffffffffffffffffff166370a08231306040518263ffffffff167c0100000000000000000000000000000000000000000000000000000000028152600401808273ffffffffffffffffffffffffffffffffffffffff1673ffffffffffffffffffffffffffffffffffffffff16815260200191505060206040518083038186803b1580156102ef57600080fd5b505afa158015610303573d6000803e3d6000fd5b505050506040513d602081101561031957600080fd5b8101908080519060200190929190505050905060008111156104f557600360009054906101000a900473ffffffffffffffffffffffffffffffffffffffff1673ffffffffffffffffffffffffffffffffffffffff166336c877546004848154811061038057fe5b90600052602060002001546040518263ffffffff167c01000000000000000000000000000000000000000000000000000000000281526004018082815260200191505060206040518083038186803b1580156103db57600080fd5b505afa1580156103ef573d6000803e3d6000fd5b505050506040513d602081101561040557600080fd5b810190808051906020019092919050505073ffffffffffffffffffffffffffffffffffffffff1663a9059cbb84836040518363ffffffff167c0100000000000000000000000000000000000000000000000000000000028152600401808373ffffffffffffffffffffffffffffffffffffffff1673ffffffffffffffffffffffffffffffffffffffff16815260200182815260200192505050602060405180830381600087803b1580156104b857600080fd5b505af11580156104cc573d6000803e3d6000fd5b505050506040513d60208110156104e257600080fd5b8101908080519060200190929190505050505b5061050a600182610c3b90919063ffffffff16565b9050610167565b5050565b60008090505b6004805490508110156107be57600160009054906101000a900473ffffffffffffffffffffffffffffffffffffffff1673ffffffffffffffffffffffffffffffffffffffff1663270226cc6004838154811061057357fe5b9060005260206000200154600360009054906101000a900473ffffffffffffffffffffffffffffffffffffffff1673ffffffffffffffffffffffffffffffffffffffff166336c87754600486815481106105c957fe5b90600052602060002001546040518263ffffffff167c01000000000000000000000000000000000000000000000000000000000281526004018082815260200191505060206040518083038186803b15801561062457600080fd5b505afa158015610638573d6000803e3d6000fd5b505050506040513d602081101561064e57600080fd5b810190808051906020019092919050505073ffffffffffffffffffffffffffffffffffffffff166370a08231306040518263ffffffff167c0100000000000000000000000000000000000000000000000000000000028152600401808273ffffffffffffffffffffffffffffffffffffffff1673ffffffffffffffffffffffffffffffffffffffff16815260200191505060206040518083038186803b1580156106f757600080fd5b505afa15801561070b573d6000803e3d6000fd5b505050506040513d602081101561072157600080fd5b81019080805190602001909291905050506040518363ffffffff167c01000000000000000000000000000000000000000000000000000000000281526004018083815260200182815260200192505050600060405180830381600087803b15801561078b57600080fd5b505af115801561079f573d6000803e3d6000fd5b505050506107b7600182610c3b90919063ffffffff16565b905061051b565b50565b600160009054906101000a900473ffffffffffffffffffffffffffffffffffffffff1673ffffffffffffffffffffffffffffffffffffffff163373ffffffffffffffffffffffffffffffffffffffff1614610867576040517f08c379a0000000000000000000000000000000000000000000000000000000008152600401808060200182810382526023815260200180610cbf6023913960400191505060405180910390fd5b60008090505b600480549050811015610c38576000600360009054906101000a900473ffffffffffffffffffffffffffffffffffffffff1673ffffffffffffffffffffffffffffffffffffffff166336c87754600484815481106108c757fe5b90600052602060002001546040518263ffffffff167c01000000000000000000000000000000000000000000000000000000000281526004018082815260200191505060206040518083038186803b15801561092257600080fd5b505afa158015610936573d6000803e3d6000fd5b505050506040513d602081101561094c57600080fd5b810190808051906020019092919050505073ffffffffffffffffffffffffffffffffffffffff166370a08231306040518263ffffffff167c0100000000000000000000000000000000000000000000000000000000028152600401808273ffffffffffffffffffffffffffffffffffffffff1673ffffffffffffffffffffffffffffffffffffffff16815260200191505060206040518083038186803b1580156109f557600080fd5b505afa158015610a09573d6000803e3d6000fd5b505050506040513d6020811015610a1f57600080fd5b810190808051906020019092919050505090506000811115610c1c57600360009054906101000a900473ffffffffffffffffffffffffffffffffffffffff1673ffffffffffffffffffffffffffffffffffffffff166336c8775460048481548110610a8657fe5b90600052602060002001546040518263ffffffff167c01000000000000000000000000000000000000000000000000000000000281526004018082815260200191505060206040518083038186803b158015610ae157600080fd5b505afa158015610af5573d6000803e3d6000fd5b505050506040513d6020811015610b0b57600080fd5b810190808051906020019092919050505073ffffffffffffffffffffffffffffffffffffffff1663a9059cbb6000809054906101000a900473ffffffffffffffffffffffffffffffffffffffff16836040518363ffffffff167c0100000000000000000000000000000000000000000000000000000000028152600401808373ffffffffffffffffffffffffffffffffffffffff1673ffffffffffffffffffffffffffffffffffffffff16815260200182815260200192505050602060405180830381600087803b158015610bdf57600080fd5b505af1158015610bf3573d6000803e3d6000fd5b505050506040513d6020811015610c0957600080fd5b8101908080519060200190929190505050505b50610c31600182610c3b90919063ffffffff16565b905061086d565b50565b6000818301905082811015610cb8576040517f08c379a00000000000000000000000000000000000000000000000000000000081526004018080602001828103825260128152602001807f4f766572666c6f772064657465637465642e000000000000000000000000000081525060200191505060405180910390fd5b9291505056fe596f7520617265206e6f742074686520546f6b656e4c6f616e20436f6e74726163742ea165627a7a7230582087ae6f65de6b417ae8b220fdaa640d952c3586a635e9b77f27ec25dedae1c88a0029596f7520617265206e6f7420612076616c696420436f6c6c61746572616c20436f6e74726163742ea165627a7a723058201f44168b31d24a71efa99d39e1ab717789716ae72925451af39788401fcf6e570029",
  "source": "pragma solidity 0.5.6;\n\nimport \"./SafeMath.sol\";\nimport \"./TokenLoanStorage.sol\";\nimport \"./ERC20Interface.sol\";\nimport \"./Collateral.sol\";\nimport \"./Auction.sol\";\n\n// ----------------------------------------------------------------------------\n// TokenLoan (Logic) Contract.\n// \n// ----------------------------------------------------------------------------\ncontract TokenLoan {\n    using SafeMath for uint;\n\n    address public owner;\n    address payable public storageContract;\n    address public auctionContract;\n    TokenLoanStorage contractStorage;\n    Auction auction;\n\n\n    constructor (address payable _storageContract, address _auctionContract) public {\n        owner = msg.sender;\n        storageContract = _storageContract;\n        contractStorage = TokenLoanStorage(storageContract);\n        auctionContract = _auctionContract;\n        auction = Auction(auctionContract);\n    }\n\n    modifier onlyOwner {\n        require(msg.sender == owner, \"You are not the contract owner.\");\n        _;\n    }\n\n    modifier OnlyCollateralContract {\n        require(contractStorage.validCollateralContract(msg.sender), \"You are not a valid Collateral Contract.\");\n        _;\n    }\n\n    function lookUpTokenIndex (string calldata _tokenName) external view returns (uint) {\n        bytes memory bytesName = bytes(_tokenName);\n        bytes32 key = keccak256(bytesName);\n        return contractStorage.tokenIndexLookUp(key);\n    }\n\n    function createCollateralContract (uint[] calldata _tokens) external returns (address) {\n        Collateral newCollateralContract = new Collateral(_tokens, msg.sender, address(this), storageContract, auctionContract);\n        contractStorage.incrementLoanID();\n        contractStorage.updateLoan(contractStorage.loanID(), msg.sender, address(newCollateralContract), true, 0, 0, _tokens);\n        contractStorage.setValidCollateralContract(address(newCollateralContract), true);\n        contractStorage.updateLoanIndexLookUp(address(newCollateralContract), contractStorage.loanID());\n        return address(newCollateralContract);\n    }\n\n    function updateUserBalances(uint _token, uint _balance) external OnlyCollateralContract {\n        contractStorage.updateLoanTokenBalance(contractStorage.loanIndexLookUp(msg.sender), _token, _balance);\n    }\n\n    function closeAuction (uint _lotNumber) external {\n        address lotWinner = auction.winningBidder(_lotNumber);\n        address collateral = auction.tokenLot(_lotNumber);\n        auction.executePayment(_lotNumber);\n        Collateral(collateral).sendAuctionWinner(lotWinner);\n    }\n\n    function startAuction(uint _loanID) internal {\n        auction.createNewAuction(contractStorage.loanCollateralAddress(_loanID), block.number + 60);\n        contractStorage.updateLoan(\n            _loanID,\n            contractStorage.loanCollateralOwner(_loanID),\n            contractStorage.loanCollateralAddress(_loanID),\n            false,\n            contractStorage.loanType(_loanID),\n            contractStorage.loanAmount(_loanID),\n            contractStorage.loanTokens(_loanID)\n        );\n    }\n\n    // Dummy function, replace with an oracle. \n    function checkLoan (uint _loanID, bool _isBad) external {\n        // Query oracle. Assume loan is bad, auction of the Collateral.\n        if (_isBad) {\n            startAuction(_loanID);\n        } else {\n        // Loan is good, send the Collateral back to it's owner.\n            Collateral(contractStorage.loanCollateralAddress(_loanID)).sendBack();\n        }\n    }\n\n\n    function sendStuckTokens (address _user, uint _token, uint _amount) external onlyOwner {\n        ERC20Interface(contractStorage.acceptedTokens(_token)).transfer(_user, _amount);\n    }\n}\n\n",
  "sourcePath": "/home/adam/AdvancedSC/TokenLoan/contracts/TokenLoan.sol",
  "compiler": {
    "name": "solc",
    "version": "0.5.6+commit.b259423e.Emscripten.clang"
  },
  "schemaVersion": "3.0.1",
  "updatedAt": "2019-04-04T08:36:33.898Z",
  "devdoc": {
    "methods": {}
  },
  "userdoc": {
    "methods": {}
  }
}