{
  "contractName": "TokenLoanStorage",
  "abi": [
    {
      "constant": true,
      "inputs": [],
      "name": "loanID",
      "outputs": [
        {
          "name": "",
          "type": "uint256"
        }
      ],
      "payable": false,
      "stateMutability": "view",
      "type": "function",
      "signature": "0x215b0dc6"
    },
    {
      "constant": true,
      "inputs": [
        {
          "name": "",
          "type": "uint256"
        }
      ],
      "name": "tokenNames",
      "outputs": [
        {
          "name": "",
          "type": "string"
        }
      ],
      "payable": false,
      "stateMutability": "view",
      "type": "function",
      "signature": "0x310495ab"
    },
    {
      "constant": true,
      "inputs": [
        {
          "name": "",
          "type": "address"
        }
      ],
      "name": "validCollateralContract",
      "outputs": [
        {
          "name": "",
          "type": "bool"
        }
      ],
      "payable": false,
      "stateMutability": "view",
      "type": "function",
      "signature": "0x31706b92"
    },
    {
      "constant": true,
      "inputs": [
        {
          "name": "",
          "type": "uint256"
        }
      ],
      "name": "acceptedTokens",
      "outputs": [
        {
          "name": "",
          "type": "address"
        }
      ],
      "payable": false,
      "stateMutability": "view",
      "type": "function",
      "signature": "0x36c87754"
    },
    {
      "constant": true,
      "inputs": [
        {
          "name": "",
          "type": "bytes32"
        }
      ],
      "name": "tokenIndexLookUp",
      "outputs": [
        {
          "name": "",
          "type": "uint256"
        }
      ],
      "payable": false,
      "stateMutability": "view",
      "type": "function",
      "signature": "0x4452de54"
    },
    {
      "constant": true,
      "inputs": [
        {
          "name": "",
          "type": "bytes32"
        }
      ],
      "name": "collateralMapping",
      "outputs": [
        {
          "name": "",
          "type": "bytes"
        }
      ],
      "payable": false,
      "stateMutability": "view",
      "type": "function",
      "signature": "0x47ab3605"
    },
    {
      "constant": true,
      "inputs": [
        {
          "name": "",
          "type": "address"
        }
      ],
      "name": "loanIndexLookUp",
      "outputs": [
        {
          "name": "",
          "type": "uint256"
        }
      ],
      "payable": false,
      "stateMutability": "view",
      "type": "function",
      "signature": "0x6047698b"
    },
    {
      "constant": true,
      "inputs": [
        {
          "name": "",
          "type": "bytes32"
        }
      ],
      "name": "logicMapping",
      "outputs": [
        {
          "name": "",
          "type": "bytes"
        }
      ],
      "payable": false,
      "stateMutability": "view",
      "type": "function",
      "signature": "0x7f003d33"
    },
    {
      "constant": true,
      "inputs": [
        {
          "name": "",
          "type": "bytes32"
        }
      ],
      "name": "ownerMapping",
      "outputs": [
        {
          "name": "",
          "type": "bytes"
        }
      ],
      "payable": false,
      "stateMutability": "view",
      "type": "function",
      "signature": "0x7fa3af29"
    },
    {
      "constant": true,
      "inputs": [
        {
          "name": "",
          "type": "uint256"
        }
      ],
      "name": "totalTokenBalances",
      "outputs": [
        {
          "name": "",
          "type": "uint256"
        }
      ],
      "payable": false,
      "stateMutability": "view",
      "type": "function",
      "signature": "0x89156ec0"
    },
    {
      "constant": true,
      "inputs": [],
      "name": "owner",
      "outputs": [
        {
          "name": "",
          "type": "address"
        }
      ],
      "payable": false,
      "stateMutability": "view",
      "type": "function",
      "signature": "0x8da5cb5b"
    },
    {
      "constant": true,
      "inputs": [
        {
          "name": "",
          "type": "uint256"
        }
      ],
      "name": "previousLogicContracts",
      "outputs": [
        {
          "name": "",
          "type": "address"
        }
      ],
      "payable": false,
      "stateMutability": "view",
      "type": "function",
      "signature": "0x9c46a037"
    },
    {
      "constant": true,
      "inputs": [
        {
          "name": "",
          "type": "uint256"
        }
      ],
      "name": "removedTokens",
      "outputs": [
        {
          "name": "",
          "type": "bool"
        }
      ],
      "payable": false,
      "stateMutability": "view",
      "type": "function",
      "signature": "0xc100ce83"
    },
    {
      "constant": true,
      "inputs": [
        {
          "name": "",
          "type": "uint256"
        }
      ],
      "name": "loans",
      "outputs": [
        {
          "name": "collateralOwner",
          "type": "address"
        },
        {
          "name": "collateralAddress",
          "type": "address"
        },
        {
          "name": "open",
          "type": "bool"
        },
        {
          "name": "loanType",
          "type": "uint256"
        },
        {
          "name": "loanAmount",
          "type": "uint256"
        }
      ],
      "payable": false,
      "stateMutability": "view",
      "type": "function",
      "signature": "0xe1ec3c68"
    },
    {
      "inputs": [],
      "payable": false,
      "stateMutability": "nonpayable",
      "type": "constructor",
      "signature": "constructor"
    },
    {
      "constant": false,
      "inputs": [
        {
          "name": "_logicContract",
          "type": "address"
        }
      ],
      "name": "updateLogicContract",
      "outputs": [],
      "payable": false,
      "stateMutability": "nonpayable",
      "type": "function",
      "signature": "0x4d2d6330"
    },
    {
      "constant": false,
      "inputs": [
        {
          "name": "_tokenAddress",
          "type": "address"
        },
        {
          "name": "_tokenName",
          "type": "string"
        }
      ],
      "name": "addToken",
      "outputs": [],
      "payable": false,
      "stateMutability": "nonpayable",
      "type": "function",
      "signature": "0x2c8da560"
    },
    {
      "constant": false,
      "inputs": [
        {
          "name": "_tokenIndex",
          "type": "uint256"
        }
      ],
      "name": "removeToken",
      "outputs": [],
      "payable": false,
      "stateMutability": "nonpayable",
      "type": "function",
      "signature": "0x36c5d724"
    },
    {
      "constant": false,
      "inputs": [
        {
          "name": "_token",
          "type": "uint256"
        },
        {
          "name": "_name",
          "type": "string"
        }
      ],
      "name": "setTokenName",
      "outputs": [],
      "payable": false,
      "stateMutability": "nonpayable",
      "type": "function",
      "signature": "0xcdb0e89e"
    },
    {
      "constant": false,
      "inputs": [],
      "name": "incrementLoanID",
      "outputs": [],
      "payable": false,
      "stateMutability": "nonpayable",
      "type": "function",
      "signature": "0xda30c5dc"
    },
    {
      "constant": false,
      "inputs": [
        {
          "name": "_collateralContract",
          "type": "address"
        },
        {
          "name": "_value",
          "type": "bool"
        }
      ],
      "name": "setValidCollateralContract",
      "outputs": [],
      "payable": false,
      "stateMutability": "nonpayable",
      "type": "function",
      "signature": "0xb91cc848"
    },
    {
      "constant": false,
      "inputs": [
        {
          "name": "_loanID",
          "type": "uint256"
        },
        {
          "name": "_token",
          "type": "uint256"
        },
        {
          "name": "_balance",
          "type": "uint256"
        }
      ],
      "name": "updateLoanTokenBalance",
      "outputs": [],
      "payable": false,
      "stateMutability": "nonpayable",
      "type": "function",
      "signature": "0x524f3262"
    },
    {
      "constant": false,
      "inputs": [
        {
          "name": "_loanID",
          "type": "uint256"
        },
        {
          "name": "_collateralOwner",
          "type": "address"
        },
        {
          "name": "_collateralAddress",
          "type": "address"
        },
        {
          "name": "_open",
          "type": "bool"
        },
        {
          "name": "_loanType",
          "type": "uint256"
        },
        {
          "name": "_loanAmount",
          "type": "uint256"
        },
        {
          "name": "_tokens",
          "type": "uint256[]"
        }
      ],
      "name": "updateLoan",
      "outputs": [],
      "payable": false,
      "stateMutability": "nonpayable",
      "type": "function",
      "signature": "0xdaa3c9b2"
    },
    {
      "constant": false,
      "inputs": [
        {
          "name": "_token",
          "type": "uint256"
        },
        {
          "name": "_balance",
          "type": "uint256"
        }
      ],
      "name": "updateTotalTokenBalances",
      "outputs": [],
      "payable": false,
      "stateMutability": "nonpayable",
      "type": "function",
      "signature": "0xac38bf9d"
    },
    {
      "constant": false,
      "inputs": [
        {
          "name": "_address",
          "type": "address"
        },
        {
          "name": "_loanID",
          "type": "uint256"
        }
      ],
      "name": "updateLoanIndexLookUp",
      "outputs": [],
      "payable": false,
      "stateMutability": "nonpayable",
      "type": "function",
      "signature": "0x580e8d26"
    },
    {
      "constant": true,
      "inputs": [
        {
          "name": "_loanID",
          "type": "uint256"
        }
      ],
      "name": "loanCollateralAddress",
      "outputs": [
        {
          "name": "",
          "type": "address"
        }
      ],
      "payable": false,
      "stateMutability": "view",
      "type": "function",
      "signature": "0x4ff97ebf"
    },
    {
      "constant": true,
      "inputs": [
        {
          "name": "_loanID",
          "type": "uint256"
        }
      ],
      "name": "loanCollateralOwner",
      "outputs": [
        {
          "name": "",
          "type": "address"
        }
      ],
      "payable": false,
      "stateMutability": "view",
      "type": "function",
      "signature": "0x5f998174"
    },
    {
      "constant": true,
      "inputs": [
        {
          "name": "_loanID",
          "type": "uint256"
        }
      ],
      "name": "loanOpen",
      "outputs": [
        {
          "name": "",
          "type": "bool"
        }
      ],
      "payable": false,
      "stateMutability": "view",
      "type": "function",
      "signature": "0x71638331"
    },
    {
      "constant": true,
      "inputs": [
        {
          "name": "_loanID",
          "type": "uint256"
        }
      ],
      "name": "loanType",
      "outputs": [
        {
          "name": "",
          "type": "uint256"
        }
      ],
      "payable": false,
      "stateMutability": "view",
      "type": "function",
      "signature": "0x6b845d10"
    },
    {
      "constant": true,
      "inputs": [
        {
          "name": "_loanID",
          "type": "uint256"
        }
      ],
      "name": "loanAmount",
      "outputs": [
        {
          "name": "",
          "type": "uint256"
        }
      ],
      "payable": false,
      "stateMutability": "view",
      "type": "function",
      "signature": "0x0a6efc19"
    },
    {
      "constant": true,
      "inputs": [
        {
          "name": "_loanID",
          "type": "uint256"
        }
      ],
      "name": "loanTokens",
      "outputs": [
        {
          "name": "",
          "type": "uint256[]"
        }
      ],
      "payable": false,
      "stateMutability": "view",
      "type": "function",
      "signature": "0xedc9718f"
    },
    {
      "constant": false,
      "inputs": [
        {
          "name": "_key",
          "type": "bytes32"
        },
        {
          "name": "_value",
          "type": "bytes"
        }
      ],
      "name": "updateOwnerMapping",
      "outputs": [],
      "payable": false,
      "stateMutability": "nonpayable",
      "type": "function",
      "signature": "0xf33ecfe3"
    },
    {
      "constant": false,
      "inputs": [
        {
          "name": "_key",
          "type": "bytes32"
        },
        {
          "name": "_value",
          "type": "bytes"
        }
      ],
      "name": "updateLogicMapping",
      "outputs": [],
      "payable": false,
      "stateMutability": "nonpayable",
      "type": "function",
      "signature": "0xeb3df325"
    },
    {
      "constant": false,
      "inputs": [
        {
          "name": "_key",
          "type": "bytes32"
        },
        {
          "name": "_value",
          "type": "bytes"
        }
      ],
      "name": "updateCollateralMapping",
      "outputs": [],
      "payable": false,
      "stateMutability": "nonpayable",
      "type": "function",
      "signature": "0x2af7c4bd"
    }
  ],
  "bytecode": "0x608060405234801561001057600080fd5b50336000806101000a81548173ffffffffffffffffffffffffffffffffffffffff021916908373ffffffffffffffffffffffffffffffffffffffff1602179055506126b5806100606000396000f3fe608060405234801561001057600080fd5b5060043610610218576000357c0100000000000000000000000000000000000000000000000000000000900480636b845d1011610137578063b91cc848116100ca578063daa3c9b211610099578063daa3c9b214610c54578063e1ec3c6814610d37578063eb3df32514610df1578063edc9718f14610e74578063f33ecfe314610ef757610218565b8063b91cc84814610b31578063c100ce8314610b81578063cdb0e89e14610bc7578063da30c5dc14610c4a57610218565b806389156ec01161010657806389156ec0146109ff5780638da5cb5b14610a415780639c46a03714610a8b578063ac38bf9d14610af957610218565b80636b845d1014610829578063716383311461086b5780637f003d33146108b15780637fa3af291461095857610218565b80634452de54116101af578063524f32621161017e578063524f3262146106d3578063580e8d26146107155780635f998174146107635780636047698b146107d157610218565b80634452de541461053857806347ab36051461057a5780634d2d6330146106215780634ff97ebf1461066557610218565b8063310495ab116101eb578063310495ab1461039957806331706b921461044057806336c5d7241461049c57806336c87754146104ca57610218565b80630a6efc191461021d578063215b0dc61461025f5780632af7c4bd1461027d5780632c8da56014610300575b600080fd5b6102496004803603602081101561023357600080fd5b8101908080359060200190929190505050610f7a565b6040518082815260200191505060405180910390f35b610267610f9a565b6040518082815260200191505060405180910390f35b6102fe6004803603604081101561029357600080fd5b8101908080359060200190929190803590602001906401000000008111156102ba57600080fd5b8201836020820111156102cc57600080fd5b803590602001918460018302840111640100000000831117156102ee57600080fd5b9091929391929390505050610fa0565b005b6103976004803603604081101561031657600080fd5b81019080803573ffffffffffffffffffffffffffffffffffffffff1690602001909291908035906020019064010000000081111561035357600080fd5b82018360208201111561036557600080fd5b8035906020019184600183028401116401000000008311171561038757600080fd5b909192939192939050505061106a565b005b6103c5600480360360208110156103af57600080fd5b8101908080359060200190929190505050611259565b6040518080602001828103825283818151815260200191508051906020019080838360005b838110156104055780820151818401526020810190506103ea565b50505050905090810190601f1680156104325780820380516001836020036101000a031916815260200191505b509250505060405180910390f35b6104826004803603602081101561045657600080fd5b81019080803573ffffffffffffffffffffffffffffffffffffffff169060200190929190505050611309565b604051808215151515815260200191505060405180910390f35b6104c8600480360360208110156104b257600080fd5b8101908080359060200190929190505050611329565b005b6104f6600480360360208110156104e057600080fd5b810190808035906020019092919050505061141a565b604051808273ffffffffffffffffffffffffffffffffffffffff1673ffffffffffffffffffffffffffffffffffffffff16815260200191505060405180910390f35b6105646004803603602081101561054e57600080fd5b8101908080359060200190929190505050611456565b6040518082815260200191505060405180910390f35b6105a66004803603602081101561059057600080fd5b810190808035906020019092919050505061146e565b6040518080602001828103825283818151815260200191508051906020019080838360005b838110156105e65780820151818401526020810190506105cb565b50505050905090810190601f1680156106135780820380516001836020036101000a031916815260200191505b509250505060405180910390f35b6106636004803603602081101561063757600080fd5b81019080803573ffffffffffffffffffffffffffffffffffffffff16906020019092919050505061151e565b005b6106916004803603602081101561067b57600080fd5b81019080803590602001909291905050506116ac565b604051808273ffffffffffffffffffffffffffffffffffffffff1673ffffffffffffffffffffffffffffffffffffffff16815260200191505060405180910390f35b610713600480360360608110156106e957600080fd5b810190808035906020019092919080359060200190929190803590602001909291905050506116ec565b005b6107616004803603604081101561072b57600080fd5b81019080803573ffffffffffffffffffffffffffffffffffffffff169060200190929190803590602001909291905050506117c3565b005b61078f6004803603602081101561077957600080fd5b81019080803590602001909291905050506118b1565b604051808273ffffffffffffffffffffffffffffffffffffffff1673ffffffffffffffffffffffffffffffffffffffff16815260200191505060405180910390f35b610813600480360360208110156107e757600080fd5b81019080803573ffffffffffffffffffffffffffffffffffffffff1690602001909291905050506118f1565b6040518082815260200191505060405180910390f35b6108556004803603602081101561083f57600080fd5b8101908080359060200190929190505050611909565b6040518082815260200191505060405180910390f35b6108976004803603602081101561088157600080fd5b8101908080359060200190929190505050611929565b604051808215151515815260200191505060405180910390f35b6108dd600480360360208110156108c757600080fd5b8101908080359060200190929190505050611956565b6040518080602001828103825283818151815260200191508051906020019080838360005b8381101561091d578082015181840152602081019050610902565b50505050905090810190601f16801561094a5780820380516001836020036101000a031916815260200191505b509250505060405180910390f35b6109846004803603602081101561096e57600080fd5b8101908080359060200190929190505050611a06565b6040518080602001828103825283818151815260200191508051906020019080838360005b838110156109c45780820151818401526020810190506109a9565b50505050905090810190601f1680156109f15780820380516001836020036101000a031916815260200191505b509250505060405180910390f35b610a2b60048036036020811015610a1557600080fd5b8101908080359060200190929190505050611ab6565b6040518082815260200191505060405180910390f35b610a49611ace565b604051808273ffffffffffffffffffffffffffffffffffffffff1673ffffffffffffffffffffffffffffffffffffffff16815260200191505060405180910390f35b610ab760048036036020811015610aa157600080fd5b8101908080359060200190929190505050611af3565b604051808273ffffffffffffffffffffffffffffffffffffffff1673ffffffffffffffffffffffffffffffffffffffff16815260200191505060405180910390f35b610b2f60048036036040811015610b0f57600080fd5b810190808035906020019092919080359060200190929190505050611b2f565b005b610b7f60048036036040811015610b4757600080fd5b81019080803573ffffffffffffffffffffffffffffffffffffffff169060200190929190803515159060200190929190505050611bf1565b005b610bad60048036036020811015610b9757600080fd5b8101908080359060200190929190505050611cf2565b604051808215151515815260200191505060405180910390f35b610c4860048036036040811015610bdd57600080fd5b810190808035906020019092919080359060200190640100000000811115610c0457600080fd5b820183602082011115610c1657600080fd5b80359060200191846001830284011164010000000083111715610c3857600080fd5b9091929391929390505050611d12565b005b610c52611e6b565b005b610d35600480360360e0811015610c6a57600080fd5b8101908080359060200190929190803573ffffffffffffffffffffffffffffffffffffffff169060200190929190803573ffffffffffffffffffffffffffffffffffffffff169060200190929190803515159060200190929190803590602001909291908035906020019092919080359060200190640100000000811115610cf157600080fd5b820183602082011115610d0357600080fd5b80359060200191846020830284011164010000000083111715610d2557600080fd5b9091929391929390505050611f2f565b005b610d6360048036036020811015610d4d57600080fd5b8101908080359060200190929190505050612113565b604051808673ffffffffffffffffffffffffffffffffffffffff1673ffffffffffffffffffffffffffffffffffffffff1681526020018573ffffffffffffffffffffffffffffffffffffffff1673ffffffffffffffffffffffffffffffffffffffff168152602001841515151581526020018381526020018281526020019550505050505060405180910390f35b610e7260048036036040811015610e0757600080fd5b810190808035906020019092919080359060200190640100000000811115610e2e57600080fd5b820183602082011115610e4057600080fd5b80359060200191846001830284011164010000000083111715610e6257600080fd5b9091929391929390505050612196565b005b610ea060048036036020811015610e8a57600080fd5b8101908080359060200190929190505050612264565b6040518080602001828103825283818151815260200191508051906020019060200280838360005b83811015610ee3578082015181840152602081019050610ec8565b505050509050019250505060405180910390f35b610f7860048036036040811015610f0d57600080fd5b810190808035906020019092919080359060200190640100000000811115610f3457600080fd5b820183602082011115610f4657600080fd5b80359060200191846001830284011164010000000083111715610f6857600080fd5b90919293919293905050506122d2565b005b6000600a6000838152602001908152602001600020600301549050919050565b60035481565b600960003373ffffffffffffffffffffffffffffffffffffffff1673ffffffffffffffffffffffffffffffffffffffff16815260200190815260200160002060009054906101000a900460ff16611042576040517f08c379a00000000000000000000000000000000000000000000000000000000081526004018080602001828103825260288152602001806126356028913960400191505060405180910390fd5b8181600e600086815260200190815260200160002091906110649291906124c2565b50505050565b6000809054906101000a900473ffffffffffffffffffffffffffffffffffffffff1673ffffffffffffffffffffffffffffffffffffffff163373ffffffffffffffffffffffffffffffffffffffff161461112c576040517f08c379a000000000000000000000000000000000000000000000000000000000815260040180806020018281038252601f8152602001807f596f7520617265206e6f742074686520636f6e7472616374206f776e65722e0081525060200191505060405180910390fd5b60048390806001815401808255809150509060018203906000526020600020016000909192909190916101000a81548173ffffffffffffffffffffffffffffffffffffffff021916908373ffffffffffffffffffffffffffffffffffffffff160217905550508181600660006111b160016004805490506123bc90919063ffffffff16565b815260200190815260200160002091906111cc929190612542565b50606082828080601f016020809104026020016040519081016040528093929190818152602001838380828437600081840152601f19601f82011690508083019250505050505050905060008180519060200120905061123b60016004805490506123bc90919063ffffffff16565b60076000838152602001908152602001600020819055505050505050565b60066020528060005260406000206000915090508054600181600116156101000203166002900480601f0160208091040260200160405190810160405280929190818152602001828054600181600116156101000203166002900480156113015780601f106112d657610100808354040283529160200191611301565b820191906000526020600020905b8154815290600101906020018083116112e457829003601f168201915b505050505081565b60096020528060005260406000206000915054906101000a900460ff1681565b6000809054906101000a900473ffffffffffffffffffffffffffffffffffffffff1673ffffffffffffffffffffffffffffffffffffffff163373ffffffffffffffffffffffffffffffffffffffff16146113eb576040517f08c379a000000000000000000000000000000000000000000000000000000000815260040180806020018281038252601f8152602001807f596f7520617265206e6f742074686520636f6e7472616374206f776e65722e0081525060200191505060405180910390fd5b60016005600083815260200190815260200160002060006101000a81548160ff02191690831515021790555050565b6004818154811061142757fe5b906000526020600020016000915054906101000a900473ffffffffffffffffffffffffffffffffffffffff1681565b60076020528060005260406000206000915090505481565b600e6020528060005260406000206000915090508054600181600116156101000203166002900480601f0160208091040260200160405190810160405280929190818152602001828054600181600116156101000203166002900480156115165780601f106114eb57610100808354040283529160200191611516565b820191906000526020600020905b8154815290600101906020018083116114f957829003601f168201915b505050505081565b6000809054906101000a900473ffffffffffffffffffffffffffffffffffffffff1673ffffffffffffffffffffffffffffffffffffffff163373ffffffffffffffffffffffffffffffffffffffff16146115e0576040517f08c379a000000000000000000000000000000000000000000000000000000000815260040180806020018281038252601f8152602001807f596f7520617265206e6f742074686520636f6e7472616374206f776e65722e0081525060200191505060405180910390fd5b6002600160009054906101000a900473ffffffffffffffffffffffffffffffffffffffff1690806001815401808255809150509060018203906000526020600020016000909192909190916101000a81548173ffffffffffffffffffffffffffffffffffffffff021916908373ffffffffffffffffffffffffffffffffffffffff1602179055505080600160006101000a81548173ffffffffffffffffffffffffffffffffffffffff021916908373ffffffffffffffffffffffffffffffffffffffff16021790555050565b6000600a600083815260200190815260200160002060010160009054906101000a900473ffffffffffffffffffffffffffffffffffffffff169050919050565b600160009054906101000a900473ffffffffffffffffffffffffffffffffffffffff1673ffffffffffffffffffffffffffffffffffffffff163373ffffffffffffffffffffffffffffffffffffffff1614611792576040517f08c379a000000000000000000000000000000000000000000000000000000000815260040180806020018281038252602d81526020018061265d602d913960400191505060405180910390fd5b80600a6000858152602001908152602001600020600501600084815260200190815260200160002081905550505050565b600160009054906101000a900473ffffffffffffffffffffffffffffffffffffffff1673ffffffffffffffffffffffffffffffffffffffff163373ffffffffffffffffffffffffffffffffffffffff1614611869576040517f08c379a000000000000000000000000000000000000000000000000000000000815260040180806020018281038252602d81526020018061265d602d913960400191505060405180910390fd5b80600b60008473ffffffffffffffffffffffffffffffffffffffff1673ffffffffffffffffffffffffffffffffffffffff168152602001908152602001600020819055505050565b6000600a600083815260200190815260200160002060000160009054906101000a900473ffffffffffffffffffffffffffffffffffffffff169050919050565b600b6020528060005260406000206000915090505481565b6000600a6000838152602001908152602001600020600201549050919050565b6000600a600083815260200190815260200160002060010160149054906101000a900460ff169050919050565b600d6020528060005260406000206000915090508054600181600116156101000203166002900480601f0160208091040260200160405190810160405280929190818152602001828054600181600116156101000203166002900480156119fe5780601f106119d3576101008083540402835291602001916119fe565b820191906000526020600020905b8154815290600101906020018083116119e157829003601f168201915b505050505081565b600c6020528060005260406000206000915090508054600181600116156101000203166002900480601f016020809104026020016040519081016040528092919081815260200182805460018160011615610100020316600290048015611aae5780601f10611a8357610100808354040283529160200191611aae565b820191906000526020600020905b815481529060010190602001808311611a9157829003601f168201915b505050505081565b60086020528060005260406000206000915090505481565b6000809054906101000a900473ffffffffffffffffffffffffffffffffffffffff1681565b60028181548110611b0057fe5b906000526020600020016000915054906101000a900473ffffffffffffffffffffffffffffffffffffffff1681565b600160009054906101000a900473ffffffffffffffffffffffffffffffffffffffff1673ffffffffffffffffffffffffffffffffffffffff163373ffffffffffffffffffffffffffffffffffffffff1614611bd5576040517f08c379a000000000000000000000000000000000000000000000000000000000815260040180806020018281038252602d81526020018061265d602d913960400191505060405180910390fd5b8060086000848152602001908152602001600020819055505050565b600160009054906101000a900473ffffffffffffffffffffffffffffffffffffffff1673ffffffffffffffffffffffffffffffffffffffff163373ffffffffffffffffffffffffffffffffffffffff1614611c97576040517f08c379a000000000000000000000000000000000000000000000000000000000815260040180806020018281038252602d81526020018061265d602d913960400191505060405180910390fd5b80600960008473ffffffffffffffffffffffffffffffffffffffff1673ffffffffffffffffffffffffffffffffffffffff16815260200190815260200160002060006101000a81548160ff0219169083151502179055505050565b60056020528060005260406000206000915054906101000a900460ff1681565b6000809054906101000a900473ffffffffffffffffffffffffffffffffffffffff1673ffffffffffffffffffffffffffffffffffffffff163373ffffffffffffffffffffffffffffffffffffffff1614611dd4576040517f08c379a000000000000000000000000000000000000000000000000000000000815260040180806020018281038252601f8152602001807f596f7520617265206e6f742074686520636f6e7472616374206f776e65722e0081525060200191505060405180910390fd5b8181600660008681526020019081526020016000209190611df6929190612542565b50606082828080601f016020809104026020016040519081016040528093929190818152602001838380828437600081840152601f19601f8201169050808301925050505050505090506000818051906020012090508460076000838152602001908152602001600020819055505050505050565b600160009054906101000a900473ffffffffffffffffffffffffffffffffffffffff1673ffffffffffffffffffffffffffffffffffffffff163373ffffffffffffffffffffffffffffffffffffffff1614611f11576040517f08c379a000000000000000000000000000000000000000000000000000000000815260040180806020018281038252602d81526020018061265d602d913960400191505060405180910390fd5b611f27600160035461243f90919063ffffffff16565b600381905550565b600160009054906101000a900473ffffffffffffffffffffffffffffffffffffffff1673ffffffffffffffffffffffffffffffffffffffff163373ffffffffffffffffffffffffffffffffffffffff1614611fd5576040517f08c379a000000000000000000000000000000000000000000000000000000000815260040180806020018281038252602d81526020018061265d602d913960400191505060405180910390fd5b86600a60008a815260200190815260200160002060000160006101000a81548173ffffffffffffffffffffffffffffffffffffffff021916908373ffffffffffffffffffffffffffffffffffffffff16021790555085600a60008a815260200190815260200160002060010160006101000a81548173ffffffffffffffffffffffffffffffffffffffff021916908373ffffffffffffffffffffffffffffffffffffffff16021790555084600a60008a815260200190815260200160002060010160146101000a81548160ff02191690831515021790555083600a60008a81526020019081526020016000206002018190555082600a60008a8152602001908152602001600020600301819055508181600a60008b815260200190815260200160002060040191906121089291906125c2565b505050505050505050565b600a6020528060005260406000206000915090508060000160009054906101000a900473ffffffffffffffffffffffffffffffffffffffff16908060010160009054906101000a900473ffffffffffffffffffffffffffffffffffffffff16908060010160149054906101000a900460ff16908060020154908060030154905085565b600160009054906101000a900473ffffffffffffffffffffffffffffffffffffffff1673ffffffffffffffffffffffffffffffffffffffff163373ffffffffffffffffffffffffffffffffffffffff161461223c576040517f08c379a000000000000000000000000000000000000000000000000000000000815260040180806020018281038252602d81526020018061265d602d913960400191505060405180910390fd5b8181600d6000868152602001908152602001600020919061225e9291906124c2565b50505050565b6060600a60008381526020019081526020016000206004018054806020026020016040519081016040528092919081815260200182805480156122c657602002820191906000526020600020905b8154815260200190600101908083116122b2575b50505050509050919050565b6000809054906101000a900473ffffffffffffffffffffffffffffffffffffffff1673ffffffffffffffffffffffffffffffffffffffff163373ffffffffffffffffffffffffffffffffffffffff1614612394576040517f08c379a000000000000000000000000000000000000000000000000000000000815260040180806020018281038252601f8152602001807f596f7520617265206e6f742074686520636f6e7472616374206f776e65722e0081525060200191505060405180910390fd5b8181600c600086815260200190815260200160002091906123b69291906124c2565b50505050565b600082821115612434576040517f08c379a00000000000000000000000000000000000000000000000000000000081526004018080602001828103825260138152602001807f556e646572666c6f772064657465637465642e0000000000000000000000000081525060200191505060405180910390fd5b818303905092915050565b60008183019050828110156124bc576040517f08c379a00000000000000000000000000000000000000000000000000000000081526004018080602001828103825260128152602001807f4f766572666c6f772064657465637465642e000000000000000000000000000081525060200191505060405180910390fd5b92915050565b828054600181600116156101000203166002900490600052602060002090601f016020900481019282601f1061250357803560ff1916838001178555612531565b82800160010185558215612531579182015b82811115612530578235825591602001919060010190612515565b5b50905061253e919061260f565b5090565b828054600181600116156101000203166002900490600052602060002090601f016020900481019282601f1061258357803560ff19168380011785556125b1565b828001600101855582156125b1579182015b828111156125b0578235825591602001919060010190612595565b5b5090506125be919061260f565b5090565b8280548282559060005260206000209081019282156125fe579160200282015b828111156125fd5782358255916020019190600101906125e2565b5b50905061260b919061260f565b5090565b61263191905b8082111561262d576000816000905550600101612615565b5090565b9056fe596f7520617265206e6f7420612076616c696420436f6c6c61746572616c20636f6e74726163742e596f7520617265206e6f7420612076616c696420546f6b656e4c6f616e206c6f67696320636f6e74726163742ea165627a7a7230582088158853389ededf0d3e7f5d4069df02427fe5b24319488edec0dc50f442531b0029",
  "source": "pragma solidity 0.5.6;\n\nimport \"./SafeMath.sol\";\n\n\n// ----------------------------------------------------------------------------\n// TokenLoan (Storage) Contract.\n// \n// ----------------------------------------------------------------------------\ncontract TokenLoanStorage {\n    using SafeMath for uint;\n\n    address public owner;\n    address payable logicContract;\n    address[] public previousLogicContracts;\n    uint public loanID;\n\n    struct Loan {\n        address payable collateralOwner;\n        address collateralAddress;\n        bool open;\n        uint loanType;\n        uint loanAmount;\n        uint[] tokens;\n        mapping(uint => uint) tokenBalances;\n    }\n\n    address[] public acceptedTokens;\n    mapping(uint => bool) public removedTokens;\n    mapping(uint => string) public tokenNames;\n    mapping(bytes32 => uint) public tokenIndexLookUp;\n    mapping(uint => uint) public totalTokenBalances;\n    mapping(address => bool) public validCollateralContract;\n    mapping(uint => Loan) public loans;\n    mapping(address => uint) public loanIndexLookUp;\n\n    // Additional Mappings if required in the future:\n    mapping(bytes32 => bytes) public ownerMapping;\n    mapping(bytes32 => bytes) public logicMapping;\n    mapping(bytes32 => bytes) public collateralMapping;\n\n\n    constructor () public {\n        owner = msg.sender;\n    }\n\n    modifier onlyOwner {\n        require(msg.sender == owner, \"You are not the contract owner.\");\n        _;\n    }\n\n    modifier onlyLogicContract {\n        require(msg.sender == logicContract, \"You are not a valid TokenLoan logic contract.\");\n        _;\n    }\n\n    modifier onlyCollateralContract {\n        require(validCollateralContract[msg.sender], \"You are not a valid Collateral contract.\");\n        _;\n    }\n\n    function updateLogicContract (address payable _logicContract) external onlyOwner {\n        previousLogicContracts.push(logicContract);\n        logicContract = _logicContract;\n    }\n\n    function addToken (address _tokenAddress, string calldata _tokenName) external onlyOwner {\n        acceptedTokens.push(_tokenAddress);\n        tokenNames[acceptedTokens.length.sub(1)] = _tokenName;\n        bytes memory bytesName = bytes(_tokenName);\n        bytes32 key = keccak256(bytesName);\n        tokenIndexLookUp[key] = acceptedTokens.length.sub(1);\n    } \n\n    function removeToken (uint _tokenIndex) external onlyOwner {\n        removedTokens[_tokenIndex] = true;\n    }\n\n    function setTokenName (uint _token, string calldata _name) external onlyOwner {\n        tokenNames[_token] = _name;\n        bytes memory bytesName = bytes(_name);\n        bytes32 key = keccak256(bytesName);\n        tokenIndexLookUp[key] = _token;\n    }\n\n    function incrementLoanID() external onlyLogicContract {\n        loanID = loanID.add(1);\n    }\n\n    function setValidCollateralContract (address _collateralContract, bool _value) external onlyLogicContract {\n        validCollateralContract[_collateralContract] = _value;\n    }\n\n    function updateLoanTokenBalance(uint _loanID, uint _token, uint _balance) external onlyLogicContract {\n        loans[_loanID].tokenBalances[_token] = _balance;\n    }\n\n    function updateLoan(uint _loanID, address payable _collateralOwner, address _collateralAddress, bool _open, uint _loanType, uint _loanAmount, uint[] calldata _tokens) external onlyLogicContract {\n        loans[_loanID].collateralOwner = _collateralOwner;\n        loans[_loanID].collateralAddress = _collateralAddress;\n        loans[_loanID].open = _open;\n        loans[_loanID].loanType = _loanType;\n        loans[_loanID].loanAmount = _loanAmount;\n        loans[_loanID].tokens = _tokens;\n    }\n\n    function updateTotalTokenBalances (uint _token, uint _balance) external onlyLogicContract {\n        totalTokenBalances[_token] = _balance;\n    }\n    \n    function updateLoanIndexLookUp (address _address, uint _loanID) external onlyLogicContract {\n        loanIndexLookUp[_address] = _loanID;\n    }\n    \n    function loanCollateralAddress(uint _loanID) external view returns (address) {\n        return loans[_loanID].collateralAddress;\n    }\n    \n    function loanCollateralOwner(uint _loanID) external view returns (address payable) {\n        return loans[_loanID].collateralOwner;\n    }\n    \n    function loanOpen(uint _loanID) external view returns (bool) {\n        return loans[_loanID].open;\n    }\n    \n    function loanType(uint _loanID) external view returns (uint) {\n        return loans[_loanID].loanType;\n    }\n    \n    function loanAmount(uint _loanID) external view returns (uint) {\n        return loans[_loanID].loanAmount;\n    }\n    \n    function loanTokens(uint _loanID) external view returns (uint[] memory) {\n        return loans[_loanID].tokens;\n    }\n\n\n    // Setters for future mappings if required:\n    function updateOwnerMapping (bytes32 _key, bytes calldata _value) external onlyOwner {\n        ownerMapping[_key] = _value;\n    }\n\n    function updateLogicMapping (bytes32 _key, bytes calldata _value) external onlyLogicContract {\n        logicMapping[_key] = _value;\n    }\n\n    function updateCollateralMapping (bytes32 _key, bytes calldata _value) external onlyCollateralContract {\n        collateralMapping[_key] = _value;\n    }\n\n}\n",
  "sourcePath": "/home/adam/AdvancedSC/TokenLoan/contracts/TokenLoanStorage.sol",
  "compiler": {
    "name": "solc",
    "version": "0.5.6+commit.b259423e.Emscripten.clang"
  },
  "schemaVersion": "3.0.1",
  "updatedAt": "2019-04-04T09:04:24.616Z",
  "devdoc": {
    "methods": {}
  },
  "userdoc": {
    "methods": {}
  }
}