{
  "contractName": "TokenLoan",
  "abi": [
    {
      "constant": true,
      "inputs": [
        {
          "name": "",
          "type": "uint256"
        }
      ],
      "name": "collateralContracts",
      "outputs": [
        {
          "name": "",
          "type": "address"
        }
      ],
      "payable": false,
      "stateMutability": "view",
      "type": "function",
      "signature": "0x03850128"
    },
    {
      "constant": true,
      "inputs": [
        {
          "name": "",
          "type": "uint256"
        },
        {
          "name": "",
          "type": "address"
        }
      ],
      "name": "userTokenBalances",
      "outputs": [
        {
          "name": "",
          "type": "uint256"
        }
      ],
      "payable": false,
      "stateMutability": "view",
      "type": "function",
      "signature": "0x0b5b879e"
    },
    {
      "constant": true,
      "inputs": [
        {
          "name": "",
          "type": "uint256"
        }
      ],
      "name": "tokenNames",
      "outputs": [
        {
          "name": "",
          "type": "string"
        }
      ],
      "payable": false,
      "stateMutability": "view",
      "type": "function",
      "signature": "0x310495ab"
    },
    {
      "constant": true,
      "inputs": [
        {
          "name": "",
          "type": "uint256"
        }
      ],
      "name": "acceptedTokens",
      "outputs": [
        {
          "name": "",
          "type": "address"
        }
      ],
      "payable": false,
      "stateMutability": "view",
      "type": "function",
      "signature": "0x36c87754"
    },
    {
      "constant": true,
      "inputs": [
        {
          "name": "",
          "type": "bytes32"
        }
      ],
      "name": "tokenIndexLookUp",
      "outputs": [
        {
          "name": "",
          "type": "uint256"
        }
      ],
      "payable": false,
      "stateMutability": "view",
      "type": "function",
      "signature": "0x4452de54"
    },
    {
      "constant": true,
      "inputs": [
        {
          "name": "",
          "type": "uint256"
        }
      ],
      "name": "totalTokenBalances",
      "outputs": [
        {
          "name": "",
          "type": "uint256"
        }
      ],
      "payable": false,
      "stateMutability": "view",
      "type": "function",
      "signature": "0x89156ec0"
    },
    {
      "constant": true,
      "inputs": [],
      "name": "owner",
      "outputs": [
        {
          "name": "",
          "type": "address"
        }
      ],
      "payable": false,
      "stateMutability": "view",
      "type": "function",
      "signature": "0x8da5cb5b"
    },
    {
      "constant": true,
      "inputs": [
        {
          "name": "",
          "type": "uint256"
        }
      ],
      "name": "removedTokens",
      "outputs": [
        {
          "name": "",
          "type": "bool"
        }
      ],
      "payable": false,
      "stateMutability": "view",
      "type": "function",
      "signature": "0xc100ce83"
    },
    {
      "inputs": [],
      "payable": false,
      "stateMutability": "nonpayable",
      "type": "constructor",
      "signature": "constructor"
    },
    {
      "constant": false,
      "inputs": [
        {
          "name": "_tokenAddress",
          "type": "address"
        },
        {
          "name": "_tokenName",
          "type": "string"
        }
      ],
      "name": "addToken",
      "outputs": [],
      "payable": false,
      "stateMutability": "nonpayable",
      "type": "function",
      "signature": "0x2c8da560"
    },
    {
      "constant": false,
      "inputs": [
        {
          "name": "_tokenIndex",
          "type": "uint256"
        }
      ],
      "name": "removeToken",
      "outputs": [],
      "payable": false,
      "stateMutability": "nonpayable",
      "type": "function",
      "signature": "0x36c5d724"
    },
    {
      "constant": true,
      "inputs": [
        {
          "name": "_tokenName",
          "type": "string"
        }
      ],
      "name": "lookUpTokenIndex",
      "outputs": [
        {
          "name": "",
          "type": "uint256"
        }
      ],
      "payable": false,
      "stateMutability": "view",
      "type": "function",
      "signature": "0x64aaea54"
    },
    {
      "constant": false,
      "inputs": [],
      "name": "updateAllTotalTokenBalances",
      "outputs": [],
      "payable": false,
      "stateMutability": "nonpayable",
      "type": "function",
      "signature": "0x9318ab6f"
    },
    {
      "constant": false,
      "inputs": [
        {
          "name": "_token",
          "type": "uint256"
        },
        {
          "name": "_balance",
          "type": "uint256"
        },
        {
          "name": "_user",
          "type": "address"
        }
      ],
      "name": "updateUserBalances",
      "outputs": [],
      "payable": false,
      "stateMutability": "nonpayable",
      "type": "function",
      "signature": "0xe2824bc5"
    },
    {
      "constant": false,
      "inputs": [
        {
          "name": "_user",
          "type": "address"
        },
        {
          "name": "_token",
          "type": "uint256"
        },
        {
          "name": "_amount",
          "type": "uint256"
        }
      ],
      "name": "sendStuckTokens",
      "outputs": [],
      "payable": false,
      "stateMutability": "nonpayable",
      "type": "function",
      "signature": "0x8a2d39a0"
    }
  ],
  "bytecode": "0x608060405234801561001057600080fd5b50336000806101000a81548173ffffffffffffffffffffffffffffffffffffffff021916908373ffffffffffffffffffffffffffffffffffffffff16021790555061112e806100606000396000f3fe608060405234801561001057600080fd5b5060043610610107576000357c01000000000000000000000000000000000000000000000000000000009004806364aaea54116100a95780638da5cb5b116100835780638da5cb5b146105a55780639318ab6f146105ef578063c100ce83146105f9578063e2824bc51461063f57610107565b806364aaea541461043c57806389156ec01461050b5780638a2d39a01461054d57610107565b8063310495ab116100e5578063310495ab146102b757806336c5d7241461035e57806336c877541461038c5780634452de54146103fa57610107565b8063038501281461010c5780630b5b879e1461017a5780632c8da560146101dc575b600080fd5b6101386004803603602081101561012257600080fd5b8101908080359060200190929190505050610697565b604051808273ffffffffffffffffffffffffffffffffffffffff1673ffffffffffffffffffffffffffffffffffffffff16815260200191505060405180910390f35b6101c66004803603604081101561019057600080fd5b8101908080359060200190929190803573ffffffffffffffffffffffffffffffffffffffff1690602001909291905050506106d3565b6040518082815260200191505060405180910390f35b6102b5600480360360408110156101f257600080fd5b81019080803573ffffffffffffffffffffffffffffffffffffffff1690602001909291908035906020019064010000000081111561022f57600080fd5b82018360208201111561024157600080fd5b8035906020019184600183028401116401000000008311171561026357600080fd5b91908080601f016020809104026020016040519081016040528093929190818152602001838380828437600081840152601f19601f8201169050808301925050505050505091929192905050506106f8565b005b6102e3600480360360208110156102cd57600080fd5b81019080803590602001909291905050506108a5565b6040518080602001828103825283818151815260200191508051906020019080838360005b83811015610323578082015181840152602081019050610308565b50505050905090810190601f1680156103505780820380516001836020036101000a031916815260200191505b509250505060405180910390f35b61038a6004803603602081101561037457600080fd5b8101908080359060200190929190505050610955565b005b6103b8600480360360208110156103a257600080fd5b8101908080359060200190929190505050610a46565b604051808273ffffffffffffffffffffffffffffffffffffffff1673ffffffffffffffffffffffffffffffffffffffff16815260200191505060405180910390f35b6104266004803603602081101561041057600080fd5b8101908080359060200190929190505050610a82565b6040518082815260200191505060405180910390f35b6104f56004803603602081101561045257600080fd5b810190808035906020019064010000000081111561046f57600080fd5b82018360208201111561048157600080fd5b803590602001918460018302840111640100000000831117156104a357600080fd5b91908080601f016020809104026020016040519081016040528093929190818152602001838380828437600081840152601f19601f820116905080830192505050505050509192919290505050610a9a565b6040518082815260200191505060405180910390f35b6105376004803603602081101561052157600080fd5b8101908080359060200190929190505050610aca565b6040518082815260200191505060405180910390f35b6105a36004803603606081101561056357600080fd5b81019080803573ffffffffffffffffffffffffffffffffffffffff1690602001909291908035906020019092919080359060200190929190505050610ae2565b005b6105ad610cbf565b604051808273ffffffffffffffffffffffffffffffffffffffff1673ffffffffffffffffffffffffffffffffffffffff16815260200191505060405180910390f35b6105f7610ce4565b005b6106256004803603602081101561060f57600080fd5b8101908080359060200190929190505050610e5d565b604051808215151515815260200191505060405180910390f35b6106956004803603606081101561065557600080fd5b810190808035906020019092919080359060200190929190803573ffffffffffffffffffffffffffffffffffffffff169060200190929190505050610e7d565b005b600281815481106106a457fe5b906000526020600020016000915054906101000a900473ffffffffffffffffffffffffffffffffffffffff1681565b6007602052816000526040600020602052806000526040600020600091509150505481565b6000809054906101000a900473ffffffffffffffffffffffffffffffffffffffff1673ffffffffffffffffffffffffffffffffffffffff163373ffffffffffffffffffffffffffffffffffffffff16146107ba576040517f08c379a000000000000000000000000000000000000000000000000000000000815260040180806020018281038252601f8152602001807f596f7520617265206e6f742074686520636f6e7472616374206f776e65722e0081525060200191505060405180910390fd5b60018290806001815401808255809150509060018203906000526020600020016000909192909190916101000a81548173ffffffffffffffffffffffffffffffffffffffff021916908373ffffffffffffffffffffffffffffffffffffffff16021790555050806005600061083d60018080549050610f7990919063ffffffff16565b8152602001908152602001600020908051906020019061085e929190611035565b50606081905060008180519060200120905061088860018080549050610f7990919063ffffffff16565b600660008381526020019081526020016000208190555050505050565b60056020528060005260406000206000915090508054600181600116156101000203166002900480601f01602080910402602001604051908101604052809291908181526020018280546001816001161561010002031660029004801561094d5780601f106109225761010080835404028352916020019161094d565b820191906000526020600020905b81548152906001019060200180831161093057829003601f168201915b505050505081565b6000809054906101000a900473ffffffffffffffffffffffffffffffffffffffff1673ffffffffffffffffffffffffffffffffffffffff163373ffffffffffffffffffffffffffffffffffffffff1614610a17576040517f08c379a000000000000000000000000000000000000000000000000000000000815260040180806020018281038252601f8152602001807f596f7520617265206e6f742074686520636f6e7472616374206f776e65722e0081525060200191505060405180910390fd5b60016004600083815260200190815260200160002060006101000a81548160ff02191690831515021790555050565b60018181548110610a5357fe5b906000526020600020016000915054906101000a900473ffffffffffffffffffffffffffffffffffffffff1681565b60066020528060005260406000206000915090505481565b60006060829050600081805190602001209050600660008281526020019081526020016000205492505050919050565b60086020528060005260406000206000915090505481565b6000809054906101000a900473ffffffffffffffffffffffffffffffffffffffff1673ffffffffffffffffffffffffffffffffffffffff163373ffffffffffffffffffffffffffffffffffffffff1614610ba4576040517f08c379a000000000000000000000000000000000000000000000000000000000815260040180806020018281038252601f8152602001807f596f7520617265206e6f742074686520636f6e7472616374206f776e65722e0081525060200191505060405180910390fd5b60018281548110610bb157fe5b9060005260206000200160009054906101000a900473ffffffffffffffffffffffffffffffffffffffff1673ffffffffffffffffffffffffffffffffffffffff1663a9059cbb84836040518363ffffffff167c0100000000000000000000000000000000000000000000000000000000028152600401808373ffffffffffffffffffffffffffffffffffffffff1673ffffffffffffffffffffffffffffffffffffffff16815260200182815260200192505050602060405180830381600087803b158015610c7e57600080fd5b505af1158015610c92573d6000803e3d6000fd5b505050506040513d6020811015610ca857600080fd5b810190808051906020019092919050505050505050565b6000809054906101000a900473ffffffffffffffffffffffffffffffffffffffff1681565b60008090505b600180549050811015610e5a576004600082815260200190815260200160002060009054906101000a900460ff16610e3f5760018181548110610d2957fe5b9060005260206000200160009054906101000a900473ffffffffffffffffffffffffffffffffffffffff1673ffffffffffffffffffffffffffffffffffffffff166370a08231306040518263ffffffff167c0100000000000000000000000000000000000000000000000000000000028152600401808273ffffffffffffffffffffffffffffffffffffffff1673ffffffffffffffffffffffffffffffffffffffff16815260200191505060206040518083038186803b158015610dec57600080fd5b505afa158015610e00573d6000803e3d6000fd5b505050506040513d6020811015610e1657600080fd5b810190808051906020019092919050505060086000838152602001908152602001600020819055505b610e53600182610fd790919063ffffffff16565b9050610cea565b50565b60046020528060005260406000206000915054906101000a900460ff1681565b600360003373ffffffffffffffffffffffffffffffffffffffff1673ffffffffffffffffffffffffffffffffffffffff16815260200190815260200160002060009054906101000a900460ff16610f1f576040517f08c379a00000000000000000000000000000000000000000000000000000000081526004018080602001828103825260288152602001806110db6028913960400191505060405180910390fd5b816007600085815260200190815260200160002060008373ffffffffffffffffffffffffffffffffffffffff1673ffffffffffffffffffffffffffffffffffffffff16815260200190815260200160002081905550505050565b600082821115610fcc576040517f08c379a0000000000000000000000000000000000000000000000000000000008152600401808060200182810382526000815260200160200191505060405180910390fd5b818303905092915050565b600081830190508281101561102f576040517f08c379a0000000000000000000000000000000000000000000000000000000008152600401808060200182810382526000815260200160200191505060405180910390fd5b92915050565b828054600181600116156101000203166002900490600052602060002090601f016020900481019282601f1061107657805160ff19168380011785556110a4565b828001600101855582156110a4579182015b828111156110a3578251825591602001919060010190611088565b5b5090506110b191906110b5565b5090565b6110d791905b808211156110d35760008160009055506001016110bb565b5090565b9056fe596f7520617265206e6f7420612076616c696420436f6c6c61746572616c20436f6e74726163742ea165627a7a72305820347c9e0bd2af650e11dfc28a5c4538898d060e9fe6ed8cfdd9d0ad643932b4c00029",
  "source": "pragma solidity 0.5.6;\n\n// ----------------------------------------------------------------------------\n// Safe maths\n// ----------------------------------------------------------------------------\nlibrary SafeMath {\n    function add(uint a, uint b) internal pure returns (uint c) {\n        c = a + b;\n        require(c >= a, \"\");\n    }\n    function sub(uint a, uint b) internal pure returns (uint c) {\n        require(b <= a, \"\");\n        c = a - b;\n    }\n    function mul(uint a, uint b) internal pure returns (uint c) {\n        c = a * b;\n        require(a == 0 || c / a == b, \"\");\n    }\n    function div(uint a, uint b) internal pure returns (uint c) {\n        require(b > 0, \"\");\n        c = a / b;\n    }\n}\n\n// ----------------------------------------------------------------------------\n// ERC Token Standard #20 Interface\n// https://github.com/ethereum/EIPs/blob/master/EIPS/eip-20.md\n// ----------------------------------------------------------------------------\ncontract ERC20Interface {\n    function totalSupply() public view returns (uint);\n    function balanceOf(address tokenOwner) public view returns (uint balance);\n    function allowance(address tokenOwner, address spender) public view returns (uint remaining);\n    function transfer(address to, uint tokens) public returns (bool success);\n    function approve(address spender, uint tokens) public returns (bool success);\n    function transferFrom(address from, address to, uint tokens) public returns (bool success);\n\n    event Transfer(address indexed from, address indexed to, uint tokens);\n    event Approval(address indexed tokenOwner, address indexed spender, uint tokens);\n}\n\n// ----------------------------------------------------------------------------\n// TokenLoan Contract.\n// \n// ----------------------------------------------------------------------------\ncontract TokenLoan {\n    using SafeMath for uint;\n\n    address public owner;\n\n    address[] public acceptedTokens;\n    address[] public collateralContracts;\n    mapping(address => bool) validCC;\n    mapping(uint => bool) public removedTokens;\n    mapping(uint => string) public tokenNames;\n    mapping(bytes32 => uint) public tokenIndexLookUp;\n    mapping(uint => mapping(address => uint)) public userTokenBalances;\n    mapping(uint => uint) public totalTokenBalances;\n\n    \n\n    constructor () public {\n        owner = msg.sender;\n    }\n\n    modifier onlyOwner {\n        require(msg.sender == owner, \"You are not the contract owner.\");\n        _;\n    }\n\n    modifier OnlyCollateralContract {\n        require(validCC[msg.sender], \"You are not a valid Collateral Contract.\");\n        _;\n    }\n\n    function addToken (address _tokenAddress, string memory _tokenName) public onlyOwner {\n        acceptedTokens.push(_tokenAddress);\n        tokenNames[acceptedTokens.length.sub(1)] = _tokenName;\n        bytes memory bytesName = bytes(_tokenName);\n        bytes32 key = keccak256(bytesName);\n        tokenIndexLookUp[key] = acceptedTokens.length.sub(1);\n    } \n\n    function removeToken (uint _tokenIndex) public onlyOwner {\n        removedTokens[_tokenIndex] = true;\n    }\n\n    function lookUpTokenIndex (string memory _tokenName) public view returns(uint) {\n        bytes memory bytesName = bytes(_tokenName);\n        bytes32 key = keccak256(bytesName);\n        return tokenIndexLookUp[key];\n    }\n\n    function updateAllTotalTokenBalances () public {\n        for (uint i = 0; i < acceptedTokens.length; i = i.add(1)) {\n            if (!removedTokens[i]) {\n                totalTokenBalances[i] = ERC20Interface(acceptedTokens[i]).balanceOf(address(this));\n            }\n        }\n    }\n\n    function updateUserBalances(uint _token, uint _balance, address _user) public OnlyCollateralContract {\n        userTokenBalances[_token][_user] = _balance;\n    }\n\n    function sendStuckTokens (address _user, uint _token, uint _amount) public onlyOwner {\n        ERC20Interface(acceptedTokens[_token]).transfer(_user, _amount);\n    }\n}\n\n\n\n\n// ----------------------------------------------------------------------------\n// Collateral Contract.\n// \n// ----------------------------------------------------------------------------\ncontract Collateral {\n    using SafeMath for uint;\n\n    address payable user;\n    address tokenLoanContract;\n    uint[] expectedTokens;\n\n    modifier onlyTokenLoan {\n        require(msg.sender == tokenLoanContract, \"You are not the TokenLoan Contract.\");\n        _;\n    }\n\n\n    constructor (uint[] memory _tokens, address payable _user, address _tokenLoanContract) public {\n        user = _user;\n        tokenLoanContract = _tokenLoanContract;\n        for (uint i = 0; i < _tokens.length; i = i.add(1)) {\n            expectedTokens.push(_tokens[i]);\n        }\n    }\n\n    function updateUserBalance() public {\n        for (uint i = 0; i < expectedTokens.length; i = i.add(1)) {\n            TokenLoan(tokenLoanContract).updateUserBalances(expectedTokens[i], \n                ERC20Interface(TokenLoan(tokenLoanContract).acceptedTokens(expectedTokens[i])).balanceOf(address(this)), \n                user);\n        }\n    }\n\n    function sendBack() public onlyTokenLoan {\n        for (uint i = 0; i < expectedTokens.length; i = i.add(1)) {\n            uint balance = ERC20Interface(TokenLoan(tokenLoanContract).acceptedTokens(expectedTokens[i])).balanceOf(address(this));\n            if (balance > 0) {\n                ERC20Interface(TokenLoan(tokenLoanContract).acceptedTokens(expectedTokens[i])).transfer(user, balance);\n            }\n        }\n    }\n\n    function sendAuctionWinner(address _winner) public onlyTokenLoan {\n        for (uint i = 0; i < expectedTokens.length; i = i.add(1)) {\n            uint balance = ERC20Interface(TokenLoan(tokenLoanContract).acceptedTokens(expectedTokens[i])).balanceOf(address(this));\n            if (balance > 0) {\n                ERC20Interface(TokenLoan(tokenLoanContract).acceptedTokens(expectedTokens[i])).transfer(_winner, balance);\n            }\n        }\n    }\n}",
  "sourcePath": "/home/adam/AdvancedSC/TokenLoan/contracts/TokenLoan.sol",
  "compiler": {
    "name": "solc",
    "version": "0.5.6+commit.b259423e.Emscripten.clang"
  },
  "schemaVersion": "3.0.1",
  "updatedAt": "2019-03-14T00:35:47.603Z",
  "devdoc": {
    "methods": {}
  },
  "userdoc": {
    "methods": {}
  }
}