{
  "contractName": "TokenLoanStorage",
  "abi": [
    {
      "constant": true,
      "inputs": [],
      "name": "loanID",
      "outputs": [
        {
          "name": "",
          "type": "uint256"
        }
      ],
      "payable": false,
      "stateMutability": "view",
      "type": "function"
    },
    {
      "constant": true,
      "inputs": [
        {
          "name": "",
          "type": "uint256"
        }
      ],
      "name": "tokenNames",
      "outputs": [
        {
          "name": "",
          "type": "string"
        }
      ],
      "payable": false,
      "stateMutability": "view",
      "type": "function"
    },
    {
      "constant": true,
      "inputs": [
        {
          "name": "",
          "type": "address"
        }
      ],
      "name": "validCollateralContract",
      "outputs": [
        {
          "name": "",
          "type": "bool"
        }
      ],
      "payable": false,
      "stateMutability": "view",
      "type": "function"
    },
    {
      "constant": true,
      "inputs": [
        {
          "name": "",
          "type": "uint256"
        }
      ],
      "name": "acceptedTokens",
      "outputs": [
        {
          "name": "",
          "type": "address"
        }
      ],
      "payable": false,
      "stateMutability": "view",
      "type": "function"
    },
    {
      "constant": true,
      "inputs": [
        {
          "name": "",
          "type": "bytes32"
        }
      ],
      "name": "tokenIndexLookUp",
      "outputs": [
        {
          "name": "",
          "type": "uint256"
        }
      ],
      "payable": false,
      "stateMutability": "view",
      "type": "function"
    },
    {
      "constant": true,
      "inputs": [
        {
          "name": "",
          "type": "bytes32"
        }
      ],
      "name": "collateralMapping",
      "outputs": [
        {
          "name": "",
          "type": "bytes"
        }
      ],
      "payable": false,
      "stateMutability": "view",
      "type": "function"
    },
    {
      "constant": true,
      "inputs": [
        {
          "name": "",
          "type": "address"
        }
      ],
      "name": "loanIndexLookUp",
      "outputs": [
        {
          "name": "",
          "type": "uint256"
        }
      ],
      "payable": false,
      "stateMutability": "view",
      "type": "function"
    },
    {
      "constant": true,
      "inputs": [
        {
          "name": "",
          "type": "bytes32"
        }
      ],
      "name": "logicMapping",
      "outputs": [
        {
          "name": "",
          "type": "bytes"
        }
      ],
      "payable": false,
      "stateMutability": "view",
      "type": "function"
    },
    {
      "constant": true,
      "inputs": [
        {
          "name": "",
          "type": "bytes32"
        }
      ],
      "name": "ownerMapping",
      "outputs": [
        {
          "name": "",
          "type": "bytes"
        }
      ],
      "payable": false,
      "stateMutability": "view",
      "type": "function"
    },
    {
      "constant": true,
      "inputs": [
        {
          "name": "",
          "type": "uint256"
        }
      ],
      "name": "totalTokenBalances",
      "outputs": [
        {
          "name": "",
          "type": "uint256"
        }
      ],
      "payable": false,
      "stateMutability": "view",
      "type": "function"
    },
    {
      "constant": true,
      "inputs": [],
      "name": "owner",
      "outputs": [
        {
          "name": "",
          "type": "address"
        }
      ],
      "payable": false,
      "stateMutability": "view",
      "type": "function"
    },
    {
      "constant": true,
      "inputs": [
        {
          "name": "",
          "type": "uint256"
        }
      ],
      "name": "previousLogicContracts",
      "outputs": [
        {
          "name": "",
          "type": "address"
        }
      ],
      "payable": false,
      "stateMutability": "view",
      "type": "function"
    },
    {
      "constant": true,
      "inputs": [
        {
          "name": "",
          "type": "uint256"
        }
      ],
      "name": "removedTokens",
      "outputs": [
        {
          "name": "",
          "type": "bool"
        }
      ],
      "payable": false,
      "stateMutability": "view",
      "type": "function"
    },
    {
      "constant": true,
      "inputs": [
        {
          "name": "",
          "type": "uint256"
        }
      ],
      "name": "loans",
      "outputs": [
        {
          "name": "collateralOwner",
          "type": "address"
        },
        {
          "name": "collateralAddress",
          "type": "address"
        },
        {
          "name": "open",
          "type": "bool"
        },
        {
          "name": "loanType",
          "type": "uint256"
        },
        {
          "name": "loanAmount",
          "type": "uint256"
        }
      ],
      "payable": false,
      "stateMutability": "view",
      "type": "function"
    },
    {
      "inputs": [],
      "payable": false,
      "stateMutability": "nonpayable",
      "type": "constructor"
    },
    {
      "constant": false,
      "inputs": [
        {
          "name": "_logicContract",
          "type": "address"
        }
      ],
      "name": "updateLogicContract",
      "outputs": [],
      "payable": false,
      "stateMutability": "nonpayable",
      "type": "function"
    },
    {
      "constant": false,
      "inputs": [
        {
          "name": "_tokenAddress",
          "type": "address"
        },
        {
          "name": "_tokenName",
          "type": "string"
        }
      ],
      "name": "addToken",
      "outputs": [],
      "payable": false,
      "stateMutability": "nonpayable",
      "type": "function"
    },
    {
      "constant": false,
      "inputs": [
        {
          "name": "_tokenIndex",
          "type": "uint256"
        }
      ],
      "name": "removeToken",
      "outputs": [],
      "payable": false,
      "stateMutability": "nonpayable",
      "type": "function"
    },
    {
      "constant": false,
      "inputs": [
        {
          "name": "_token",
          "type": "uint256"
        },
        {
          "name": "_name",
          "type": "string"
        }
      ],
      "name": "setTokenName",
      "outputs": [],
      "payable": false,
      "stateMutability": "nonpayable",
      "type": "function"
    },
    {
      "constant": false,
      "inputs": [],
      "name": "incrementLoanID",
      "outputs": [],
      "payable": false,
      "stateMutability": "nonpayable",
      "type": "function"
    },
    {
      "constant": false,
      "inputs": [
        {
          "name": "_collateralContract",
          "type": "address"
        },
        {
          "name": "_value",
          "type": "bool"
        }
      ],
      "name": "setValidCollateralContract",
      "outputs": [],
      "payable": false,
      "stateMutability": "nonpayable",
      "type": "function"
    },
    {
      "constant": false,
      "inputs": [
        {
          "name": "_loanID",
          "type": "uint256"
        },
        {
          "name": "_token",
          "type": "uint256"
        },
        {
          "name": "_balance",
          "type": "uint256"
        }
      ],
      "name": "updateLoanTokenBalance",
      "outputs": [],
      "payable": false,
      "stateMutability": "nonpayable",
      "type": "function"
    },
    {
      "constant": false,
      "inputs": [
        {
          "name": "_loanID",
          "type": "uint256"
        },
        {
          "name": "_collateralOwner",
          "type": "address"
        },
        {
          "name": "_collateralAddress",
          "type": "address"
        },
        {
          "name": "_open",
          "type": "bool"
        },
        {
          "name": "_loanType",
          "type": "uint256"
        },
        {
          "name": "_loanAmount",
          "type": "uint256"
        },
        {
          "name": "_tokens",
          "type": "uint256[]"
        }
      ],
      "name": "updateLoan",
      "outputs": [],
      "payable": false,
      "stateMutability": "nonpayable",
      "type": "function"
    },
    {
      "constant": false,
      "inputs": [
        {
          "name": "_token",
          "type": "uint256"
        },
        {
          "name": "_balance",
          "type": "uint256"
        }
      ],
      "name": "updateTotalTokenBalances",
      "outputs": [],
      "payable": false,
      "stateMutability": "nonpayable",
      "type": "function"
    },
    {
      "constant": false,
      "inputs": [
        {
          "name": "_address",
          "type": "address"
        },
        {
          "name": "_loanID",
          "type": "uint256"
        }
      ],
      "name": "updateLoanIndexLookUp",
      "outputs": [],
      "payable": false,
      "stateMutability": "nonpayable",
      "type": "function"
    },
    {
      "constant": true,
      "inputs": [
        {
          "name": "_loanID",
          "type": "uint256"
        }
      ],
      "name": "loanCollateralAddress",
      "outputs": [
        {
          "name": "",
          "type": "address"
        }
      ],
      "payable": false,
      "stateMutability": "view",
      "type": "function"
    },
    {
      "constant": true,
      "inputs": [
        {
          "name": "_loanID",
          "type": "uint256"
        }
      ],
      "name": "loanCollateralOwner",
      "outputs": [
        {
          "name": "",
          "type": "address"
        }
      ],
      "payable": false,
      "stateMutability": "view",
      "type": "function"
    },
    {
      "constant": true,
      "inputs": [
        {
          "name": "_loanID",
          "type": "uint256"
        }
      ],
      "name": "loanOpen",
      "outputs": [
        {
          "name": "",
          "type": "bool"
        }
      ],
      "payable": false,
      "stateMutability": "view",
      "type": "function"
    },
    {
      "constant": true,
      "inputs": [
        {
          "name": "_loanID",
          "type": "uint256"
        }
      ],
      "name": "loanType",
      "outputs": [
        {
          "name": "",
          "type": "uint256"
        }
      ],
      "payable": false,
      "stateMutability": "view",
      "type": "function"
    },
    {
      "constant": true,
      "inputs": [
        {
          "name": "_loanID",
          "type": "uint256"
        }
      ],
      "name": "loanAmount",
      "outputs": [
        {
          "name": "",
          "type": "uint256"
        }
      ],
      "payable": false,
      "stateMutability": "view",
      "type": "function"
    },
    {
      "constant": true,
      "inputs": [
        {
          "name": "_loanID",
          "type": "uint256"
        }
      ],
      "name": "loanTokens",
      "outputs": [
        {
          "name": "",
          "type": "uint256[]"
        }
      ],
      "payable": false,
      "stateMutability": "view",
      "type": "function"
    },
    {
      "constant": false,
      "inputs": [
        {
          "name": "_key",
          "type": "bytes32"
        },
        {
          "name": "_value",
          "type": "bytes"
        }
      ],
      "name": "updateOwnerMapping",
      "outputs": [],
      "payable": false,
      "stateMutability": "nonpayable",
      "type": "function"
    },
    {
      "constant": false,
      "inputs": [
        {
          "name": "_key",
          "type": "bytes32"
        },
        {
          "name": "_value",
          "type": "bytes"
        }
      ],
      "name": "updateLogicMapping",
      "outputs": [],
      "payable": false,
      "stateMutability": "nonpayable",
      "type": "function"
    },
    {
      "constant": false,
      "inputs": [
        {
          "name": "_key",
          "type": "bytes32"
        },
        {
          "name": "_value",
          "type": "bytes"
        }
      ],
      "name": "updateCollateralMapping",
      "outputs": [],
      "payable": false,
      "stateMutability": "nonpayable",
      "type": "function"
    }
  ],
  "bytecode": "0x608060405234801561001057600080fd5b50336000806101000a81548173ffffffffffffffffffffffffffffffffffffffff021916908373ffffffffffffffffffffffffffffffffffffffff1602179055506129d0806100606000396000f3fe6080604052600436106101a1576000357c0100000000000000000000000000000000000000000000000000000000900463ffffffff1680630a6efc19146101a6578063215b0dc6146101f55780632af7c4bd146102205780632c8da560146102b0578063310495ab1461035657806331706b921461040a57806336c5d7241461047357806336c87754146104ae5780634452de541461052957806347ab3605146105785780634d2d63301461062c5780634ff97ebf1461067d578063524f3262146106f8578063580e8d26146107475780635f998174146107a25780636047698b1461081d5780636b845d101461088257806371638331146108d15780637f003d33146109245780637fa3af29146109d857806389156ec014610a8c5780638da5cb5b14610adb5780639c46a03714610b32578063ac38bf9d14610bad578063b91cc84814610bf2578063c100ce8314610c4f578063cdb0e89e14610ca2578063da30c5dc14610d32578063daa3c9b214610d49578063e1ec3c6814610e39578063eb3df32514610f00578063edc9718f14610f90578063f33ecfe314611020575b600080fd5b3480156101b257600080fd5b506101df600480360360208110156101c957600080fd5b81019080803590602001909291905050506110b0565b6040518082815260200191505060405180910390f35b34801561020157600080fd5b5061020a6110d0565b6040518082815260200191505060405180910390f35b34801561022c57600080fd5b506102ae6004803603604081101561024357600080fd5b81019080803590602001909291908035906020019064010000000081111561026a57600080fd5b82018360208201111561027c57600080fd5b8035906020019184600183028401116401000000008311171561029e57600080fd5b90919293919293905050506110d6565b005b3480156102bc57600080fd5b50610354600480360360408110156102d357600080fd5b81019080803573ffffffffffffffffffffffffffffffffffffffff1690602001909291908035906020019064010000000081111561031057600080fd5b82018360208201111561032257600080fd5b8035906020019184600183028401116401000000008311171561034457600080fd5b90919293919293905050506111e5565b005b34801561036257600080fd5b5061038f6004803603602081101561037957600080fd5b81019080803590602001909291905050506113d6565b6040518080602001828103825283818151815260200191508051906020019080838360005b838110156103cf5780820151818401526020810190506103b4565b50505050905090810190601f1680156103fc5780820380516001836020036101000a031916815260200191505b509250505060405180910390f35b34801561041657600080fd5b506104596004803603602081101561042d57600080fd5b81019080803573ffffffffffffffffffffffffffffffffffffffff169060200190929190505050611486565b604051808215151515815260200191505060405180910390f35b34801561047f57600080fd5b506104ac6004803603602081101561049657600080fd5b81019080803590602001909291905050506114a6565b005b3480156104ba57600080fd5b506104e7600480360360208110156104d157600080fd5b8101908080359060200190929190505050611599565b604051808273ffffffffffffffffffffffffffffffffffffffff1673ffffffffffffffffffffffffffffffffffffffff16815260200191505060405180910390f35b34801561053557600080fd5b506105626004803603602081101561054c57600080fd5b81019080803590602001909291905050506115d7565b6040518082815260200191505060405180910390f35b34801561058457600080fd5b506105b16004803603602081101561059b57600080fd5b81019080803590602001909291905050506115ef565b6040518080602001828103825283818151815260200191508051906020019080838360005b838110156105f15780820151818401526020810190506105d6565b50505050905090810190601f16801561061e5780820380516001836020036101000a031916815260200191505b509250505060405180910390f35b34801561063857600080fd5b5061067b6004803603602081101561064f57600080fd5b81019080803573ffffffffffffffffffffffffffffffffffffffff16906020019092919050505061169f565b005b34801561068957600080fd5b506106b6600480360360208110156106a057600080fd5b810190808035906020019092919050505061182f565b604051808273ffffffffffffffffffffffffffffffffffffffff1673ffffffffffffffffffffffffffffffffffffffff16815260200191505060405180910390f35b34801561070457600080fd5b506107456004803603606081101561071b57600080fd5b8101908080359060200190929190803590602001909291908035906020019092919050505061186f565b005b34801561075357600080fd5b506107a06004803603604081101561076a57600080fd5b81019080803573ffffffffffffffffffffffffffffffffffffffff1690602001909291908035906020019092919050505061198b565b005b3480156107ae57600080fd5b506107db600480360360208110156107c557600080fd5b8101908080359060200190929190505050611abe565b604051808273ffffffffffffffffffffffffffffffffffffffff1673ffffffffffffffffffffffffffffffffffffffff16815260200191505060405180910390f35b34801561082957600080fd5b5061086c6004803603602081101561084057600080fd5b81019080803573ffffffffffffffffffffffffffffffffffffffff169060200190929190505050611afe565b6040518082815260200191505060405180910390f35b34801561088e57600080fd5b506108bb600480360360208110156108a557600080fd5b8101908080359060200190929190505050611b16565b6040518082815260200191505060405180910390f35b3480156108dd57600080fd5b5061090a600480360360208110156108f457600080fd5b8101908080359060200190929190505050611b36565b604051808215151515815260200191505060405180910390f35b34801561093057600080fd5b5061095d6004803603602081101561094757600080fd5b8101908080359060200190929190505050611b63565b6040518080602001828103825283818151815260200191508051906020019080838360005b8381101561099d578082015181840152602081019050610982565b50505050905090810190601f1680156109ca5780820380516001836020036101000a031916815260200191505b509250505060405180910390f35b3480156109e457600080fd5b50610a11600480360360208110156109fb57600080fd5b8101908080359060200190929190505050611c13565b6040518080602001828103825283818151815260200191508051906020019080838360005b83811015610a51578082015181840152602081019050610a36565b50505050905090810190601f168015610a7e5780820380516001836020036101000a031916815260200191505b509250505060405180910390f35b348015610a9857600080fd5b50610ac560048036036020811015610aaf57600080fd5b8101908080359060200190929190505050611cc3565b6040518082815260200191505060405180910390f35b348015610ae757600080fd5b50610af0611cdb565b604051808273ffffffffffffffffffffffffffffffffffffffff1673ffffffffffffffffffffffffffffffffffffffff16815260200191505060405180910390f35b348015610b3e57600080fd5b50610b6b60048036036020811015610b5557600080fd5b8101908080359060200190929190505050611d00565b604051808273ffffffffffffffffffffffffffffffffffffffff1673ffffffffffffffffffffffffffffffffffffffff16815260200191505060405180910390f35b348015610bb957600080fd5b50610bf060048036036040811015610bd057600080fd5b810190808035906020019092919080359060200190929190505050611d3e565b005b348015610bfe57600080fd5b50610c4d60048036036040811015610c1557600080fd5b81019080803573ffffffffffffffffffffffffffffffffffffffff169060200190929190803515159060200190929190505050611e45565b005b348015610c5b57600080fd5b50610c8860048036036020811015610c7257600080fd5b8101908080359060200190929190505050611f8b565b604051808215151515815260200191505060405180910390f35b348015610cae57600080fd5b50610d3060048036036040811015610cc557600080fd5b810190808035906020019092919080359060200190640100000000811115610cec57600080fd5b820183602082011115610cfe57600080fd5b80359060200191846001830284011164010000000083111715610d2057600080fd5b9091929391929390505050611fab565b005b348015610d3e57600080fd5b50610d47612106565b005b348015610d5557600080fd5b50610e37600480360360e0811015610d6c57600080fd5b8101908080359060200190929190803573ffffffffffffffffffffffffffffffffffffffff169060200190929190803573ffffffffffffffffffffffffffffffffffffffff169060200190929190803515159060200190929190803590602001909291908035906020019092919080359060200190640100000000811115610df357600080fd5b820183602082011115610e0557600080fd5b80359060200191846020830284011164010000000083111715610e2757600080fd5b909192939192939050505061220f565b005b348015610e4557600080fd5b50610e7260048036036020811015610e5c57600080fd5b8101908080359060200190929190505050612438565b604051808673ffffffffffffffffffffffffffffffffffffffff1673ffffffffffffffffffffffffffffffffffffffff1681526020018573ffffffffffffffffffffffffffffffffffffffff1673ffffffffffffffffffffffffffffffffffffffff168152602001841515151581526020018381526020018281526020019550505050505060405180910390f35b348015610f0c57600080fd5b50610f8e60048036036040811015610f2357600080fd5b810190808035906020019092919080359060200190640100000000811115610f4a57600080fd5b820183602082011115610f5c57600080fd5b80359060200191846001830284011164010000000083111715610f7e57600080fd5b90919293919293905050506124bb565b005b348015610f9c57600080fd5b50610fc960048036036020811015610fb357600080fd5b81019080803590602001909291905050506125ce565b6040518080602001828103825283818151815260200191508051906020019060200280838360005b8381101561100c578082015181840152602081019050610ff1565b505050509050019250505060405180910390f35b34801561102c57600080fd5b506110ae6004803603604081101561104357600080fd5b81019080803590602001909291908035906020019064010000000081111561106a57600080fd5b82018360208201111561107c57600080fd5b8035906020019184600183028401116401000000008311171561109e57600080fd5b909192939192939050505061263c565b005b6000600a6000838152602001908152602001600020600301549050919050565b60035481565b600960003373ffffffffffffffffffffffffffffffffffffffff1673ffffffffffffffffffffffffffffffffffffffff16815260200190815260200160002060009054906101000a900460ff1615156111bd576040517f08c379a00000000000000000000000000000000000000000000000000000000081526004018080602001828103825260288152602001807f596f7520617265206e6f7420612076616c696420436f6c6c61746572616c206381526020017f6f6e74726163742e00000000000000000000000000000000000000000000000081525060400191505060405180910390fd5b8181600e600086815260200190815260200160002091906111df929190612832565b50505050565b6000809054906101000a900473ffffffffffffffffffffffffffffffffffffffff1673ffffffffffffffffffffffffffffffffffffffff163373ffffffffffffffffffffffffffffffffffffffff161415156112a9576040517f08c379a000000000000000000000000000000000000000000000000000000000815260040180806020018281038252601f8152602001807f596f7520617265206e6f742074686520636f6e7472616374206f776e65722e0081525060200191505060405180910390fd5b60048390806001815401808255809150509060018203906000526020600020016000909192909190916101000a81548173ffffffffffffffffffffffffffffffffffffffff021916908373ffffffffffffffffffffffffffffffffffffffff1602179055505081816006600061132e600160048054905061272890919063ffffffff16565b815260200190815260200160002091906113499291906128b2565b50606082828080601f016020809104026020016040519081016040528093929190818152602001838380828437600081840152601f19601f8201169050808301925050505050505090506000818051906020012090506113b8600160048054905061272890919063ffffffff16565b60076000838152602001908152602001600020819055505050505050565b60066020528060005260406000206000915090508054600181600116156101000203166002900480601f01602080910402602001604051908101604052809291908181526020018280546001816001161561010002031660029004801561147e5780601f106114535761010080835404028352916020019161147e565b820191906000526020600020905b81548152906001019060200180831161146157829003601f168201915b505050505081565b60096020528060005260406000206000915054906101000a900460ff1681565b6000809054906101000a900473ffffffffffffffffffffffffffffffffffffffff1673ffffffffffffffffffffffffffffffffffffffff163373ffffffffffffffffffffffffffffffffffffffff1614151561156a576040517f08c379a000000000000000000000000000000000000000000000000000000000815260040180806020018281038252601f8152602001807f596f7520617265206e6f742074686520636f6e7472616374206f776e65722e0081525060200191505060405180910390fd5b60016005600083815260200190815260200160002060006101000a81548160ff02191690831515021790555050565b6004818154811015156115a857fe5b906000526020600020016000915054906101000a900473ffffffffffffffffffffffffffffffffffffffff1681565b60076020528060005260406000206000915090505481565b600e6020528060005260406000206000915090508054600181600116156101000203166002900480601f0160208091040260200160405190810160405280929190818152602001828054600181600116156101000203166002900480156116975780601f1061166c57610100808354040283529160200191611697565b820191906000526020600020905b81548152906001019060200180831161167a57829003601f168201915b505050505081565b6000809054906101000a900473ffffffffffffffffffffffffffffffffffffffff1673ffffffffffffffffffffffffffffffffffffffff163373ffffffffffffffffffffffffffffffffffffffff16141515611763576040517f08c379a000000000000000000000000000000000000000000000000000000000815260040180806020018281038252601f8152602001807f596f7520617265206e6f742074686520636f6e7472616374206f776e65722e0081525060200191505060405180910390fd5b6002600160009054906101000a900473ffffffffffffffffffffffffffffffffffffffff1690806001815401808255809150509060018203906000526020600020016000909192909190916101000a81548173ffffffffffffffffffffffffffffffffffffffff021916908373ffffffffffffffffffffffffffffffffffffffff1602179055505080600160006101000a81548173ffffffffffffffffffffffffffffffffffffffff021916908373ffffffffffffffffffffffffffffffffffffffff16021790555050565b6000600a600083815260200190815260200160002060010160009054906101000a900473ffffffffffffffffffffffffffffffffffffffff169050919050565b600160009054906101000a900473ffffffffffffffffffffffffffffffffffffffff1673ffffffffffffffffffffffffffffffffffffffff163373ffffffffffffffffffffffffffffffffffffffff1614151561195a576040517f08c379a000000000000000000000000000000000000000000000000000000000815260040180806020018281038252602d8152602001807f596f7520617265206e6f7420612076616c696420546f6b656e4c6f616e206c6f81526020017f67696320636f6e74726163742e0000000000000000000000000000000000000081525060400191505060405180910390fd5b80600a6000858152602001908152602001600020600501600084815260200190815260200160002081905550505050565b600160009054906101000a900473ffffffffffffffffffffffffffffffffffffffff1673ffffffffffffffffffffffffffffffffffffffff163373ffffffffffffffffffffffffffffffffffffffff16141515611a76576040517f08c379a000000000000000000000000000000000000000000000000000000000815260040180806020018281038252602d8152602001807f596f7520617265206e6f7420612076616c696420546f6b656e4c6f616e206c6f81526020017f67696320636f6e74726163742e0000000000000000000000000000000000000081525060400191505060405180910390fd5b80600b60008473ffffffffffffffffffffffffffffffffffffffff1673ffffffffffffffffffffffffffffffffffffffff168152602001908152602001600020819055505050565b6000600a600083815260200190815260200160002060000160009054906101000a900473ffffffffffffffffffffffffffffffffffffffff169050919050565b600b6020528060005260406000206000915090505481565b6000600a6000838152602001908152602001600020600201549050919050565b6000600a600083815260200190815260200160002060010160149054906101000a900460ff169050919050565b600d6020528060005260406000206000915090508054600181600116156101000203166002900480601f016020809104026020016040519081016040528092919081815260200182805460018160011615610100020316600290048015611c0b5780601f10611be057610100808354040283529160200191611c0b565b820191906000526020600020905b815481529060010190602001808311611bee57829003601f168201915b505050505081565b600c6020528060005260406000206000915090508054600181600116156101000203166002900480601f016020809104026020016040519081016040528092919081815260200182805460018160011615610100020316600290048015611cbb5780601f10611c9057610100808354040283529160200191611cbb565b820191906000526020600020905b815481529060010190602001808311611c9e57829003601f168201915b505050505081565b60086020528060005260406000206000915090505481565b6000809054906101000a900473ffffffffffffffffffffffffffffffffffffffff1681565b600281815481101515611d0f57fe5b906000526020600020016000915054906101000a900473ffffffffffffffffffffffffffffffffffffffff1681565b600160009054906101000a900473ffffffffffffffffffffffffffffffffffffffff1673ffffffffffffffffffffffffffffffffffffffff163373ffffffffffffffffffffffffffffffffffffffff16141515611e29576040517f08c379a000000000000000000000000000000000000000000000000000000000815260040180806020018281038252602d8152602001807f596f7520617265206e6f7420612076616c696420546f6b656e4c6f616e206c6f81526020017f67696320636f6e74726163742e0000000000000000000000000000000000000081525060400191505060405180910390fd5b8060086000848152602001908152602001600020819055505050565b600160009054906101000a900473ffffffffffffffffffffffffffffffffffffffff1673ffffffffffffffffffffffffffffffffffffffff163373ffffffffffffffffffffffffffffffffffffffff16141515611f30576040517f08c379a000000000000000000000000000000000000000000000000000000000815260040180806020018281038252602d8152602001807f596f7520617265206e6f7420612076616c696420546f6b656e4c6f616e206c6f81526020017f67696320636f6e74726163742e0000000000000000000000000000000000000081525060400191505060405180910390fd5b80600960008473ffffffffffffffffffffffffffffffffffffffff1673ffffffffffffffffffffffffffffffffffffffff16815260200190815260200160002060006101000a81548160ff0219169083151502179055505050565b60056020528060005260406000206000915054906101000a900460ff1681565b6000809054906101000a900473ffffffffffffffffffffffffffffffffffffffff1673ffffffffffffffffffffffffffffffffffffffff163373ffffffffffffffffffffffffffffffffffffffff1614151561206f576040517f08c379a000000000000000000000000000000000000000000000000000000000815260040180806020018281038252601f8152602001807f596f7520617265206e6f742074686520636f6e7472616374206f776e65722e0081525060200191505060405180910390fd5b81816006600086815260200190815260200160002091906120919291906128b2565b50606082828080601f016020809104026020016040519081016040528093929190818152602001838380828437600081840152601f19601f8201169050808301925050505050505090506000818051906020012090508460076000838152602001908152602001600020819055505050505050565b600160009054906101000a900473ffffffffffffffffffffffffffffffffffffffff1673ffffffffffffffffffffffffffffffffffffffff163373ffffffffffffffffffffffffffffffffffffffff161415156121f1576040517f08c379a000000000000000000000000000000000000000000000000000000000815260040180806020018281038252602d8152602001807f596f7520617265206e6f7420612076616c696420546f6b656e4c6f616e206c6f81526020017f67696320636f6e74726163742e0000000000000000000000000000000000000081525060400191505060405180910390fd5b61220760016003546127ad90919063ffffffff16565b600381905550565b600160009054906101000a900473ffffffffffffffffffffffffffffffffffffffff1673ffffffffffffffffffffffffffffffffffffffff163373ffffffffffffffffffffffffffffffffffffffff161415156122fa576040517f08c379a000000000000000000000000000000000000000000000000000000000815260040180806020018281038252602d8152602001807f596f7520617265206e6f7420612076616c696420546f6b656e4c6f616e206c6f81526020017f67696320636f6e74726163742e0000000000000000000000000000000000000081525060400191505060405180910390fd5b86600a60008a815260200190815260200160002060000160006101000a81548173ffffffffffffffffffffffffffffffffffffffff021916908373ffffffffffffffffffffffffffffffffffffffff16021790555085600a60008a815260200190815260200160002060010160006101000a81548173ffffffffffffffffffffffffffffffffffffffff021916908373ffffffffffffffffffffffffffffffffffffffff16021790555084600a60008a815260200190815260200160002060010160146101000a81548160ff02191690831515021790555083600a60008a81526020019081526020016000206002018190555082600a60008a8152602001908152602001600020600301819055508181600a60008b8152602001908152602001600020600401919061242d929190612932565b505050505050505050565b600a6020528060005260406000206000915090508060000160009054906101000a900473ffffffffffffffffffffffffffffffffffffffff16908060010160009054906101000a900473ffffffffffffffffffffffffffffffffffffffff16908060010160149054906101000a900460ff16908060020154908060030154905085565b600160009054906101000a900473ffffffffffffffffffffffffffffffffffffffff1673ffffffffffffffffffffffffffffffffffffffff163373ffffffffffffffffffffffffffffffffffffffff161415156125a6576040517f08c379a000000000000000000000000000000000000000000000000000000000815260040180806020018281038252602d8152602001807f596f7520617265206e6f7420612076616c696420546f6b656e4c6f616e206c6f81526020017f67696320636f6e74726163742e0000000000000000000000000000000000000081525060400191505060405180910390fd5b8181600d600086815260200190815260200160002091906125c8929190612832565b50505050565b6060600a600083815260200190815260200160002060040180548060200260200160405190810160405280929190818152602001828054801561263057602002820191906000526020600020905b81548152602001906001019080831161261c575b50505050509050919050565b6000809054906101000a900473ffffffffffffffffffffffffffffffffffffffff1673ffffffffffffffffffffffffffffffffffffffff163373ffffffffffffffffffffffffffffffffffffffff16141515612700576040517f08c379a000000000000000000000000000000000000000000000000000000000815260040180806020018281038252601f8152602001807f596f7520617265206e6f742074686520636f6e7472616374206f776e65722e0081525060200191505060405180910390fd5b8181600c60008681526020019081526020016000209190612722929190612832565b50505050565b60008282111515156127a2576040517f08c379a00000000000000000000000000000000000000000000000000000000081526004018080602001828103825260138152602001807f556e646572666c6f772064657465637465642e0000000000000000000000000081525060200191505060405180910390fd5b818303905092915050565b6000818301905082811015151561282c576040517f08c379a00000000000000000000000000000000000000000000000000000000081526004018080602001828103825260128152602001807f4f766572666c6f772064657465637465642e000000000000000000000000000081525060200191505060405180910390fd5b92915050565b828054600181600116156101000203166002900490600052602060002090601f016020900481019282601f1061287357803560ff19168380011785556128a1565b828001600101855582156128a1579182015b828111156128a0578235825591602001919060010190612885565b5b5090506128ae919061297f565b5090565b828054600181600116156101000203166002900490600052602060002090601f016020900481019282601f106128f357803560ff1916838001178555612921565b82800160010185558215612921579182015b82811115612920578235825591602001919060010190612905565b5b50905061292e919061297f565b5090565b82805482825590600052602060002090810192821561296e579160200282015b8281111561296d578235825591602001919060010190612952565b5b50905061297b919061297f565b5090565b6129a191905b8082111561299d576000816000905550600101612985565b5090565b9056fea165627a7a72305820d915c2ea9dd9b223114711a3ea648cad6f6cc52cb517ac047898b0f77764c8f30029",
  "source": "pragma solidity 0.5.0;\n\nimport \"./SafeMath.sol\";\n\n\n// ----------------------------------------------------------------------------\n// TokenLoan (Storage) Contract.\n// \n// ----------------------------------------------------------------------------\ncontract TokenLoanStorage {\n    using SafeMath for uint;\n\n    address public owner;\n    address payable logicContract;\n    address[] public previousLogicContracts;\n    uint public loanID;\n\n    struct Loan {\n        address payable collateralOwner;\n        address collateralAddress;\n        bool open;\n        uint loanType;\n        uint loanAmount;\n        uint[] tokens;\n        mapping(uint => uint) tokenBalances;\n    }\n\n    address[] public acceptedTokens;\n    mapping(uint => bool) public removedTokens;\n    mapping(uint => string) public tokenNames;\n    mapping(bytes32 => uint) public tokenIndexLookUp;\n    mapping(uint => uint) public totalTokenBalances;\n    mapping(address => bool) public validCollateralContract;\n    mapping(uint => Loan) public loans;\n    mapping(address => uint) public loanIndexLookUp;\n\n    // Additional Mappings if required in the future:\n    mapping(bytes32 => bytes) public ownerMapping;\n    mapping(bytes32 => bytes) public logicMapping;\n    mapping(bytes32 => bytes) public collateralMapping;\n\n\n    constructor () public {\n        owner = msg.sender;\n    }\n\n    modifier onlyOwner {\n        require(msg.sender == owner, \"You are not the contract owner.\");\n        _;\n    }\n\n    modifier onlyLogicContract {\n        require(msg.sender == logicContract, \"You are not a valid TokenLoan logic contract.\");\n        _;\n    }\n\n    modifier onlyCollateralContract {\n        require(validCollateralContract[msg.sender], \"You are not a valid Collateral contract.\");\n        _;\n    }\n\n    function updateLogicContract (address payable _logicContract) external onlyOwner {\n        previousLogicContracts.push(logicContract);\n        logicContract = _logicContract;\n    }\n\n    function addToken (address _tokenAddress, string calldata _tokenName) external onlyOwner {\n        acceptedTokens.push(_tokenAddress);\n        tokenNames[acceptedTokens.length.sub(1)] = _tokenName;\n        bytes memory bytesName = bytes(_tokenName);\n        bytes32 key = keccak256(bytesName);\n        tokenIndexLookUp[key] = acceptedTokens.length.sub(1);\n    } \n\n    function removeToken (uint _tokenIndex) external onlyOwner {\n        removedTokens[_tokenIndex] = true;\n    }\n\n    function setTokenName (uint _token, string calldata _name) external onlyOwner {\n        tokenNames[_token] = _name;\n        bytes memory bytesName = bytes(_name);\n        bytes32 key = keccak256(bytesName);\n        tokenIndexLookUp[key] = _token;\n    }\n\n    function incrementLoanID() external onlyLogicContract {\n        loanID = loanID.add(1);\n    }\n\n    function setValidCollateralContract (address _collateralContract, bool _value) external onlyLogicContract {\n        validCollateralContract[_collateralContract] = _value;\n    }\n\n    function updateLoanTokenBalance(uint _loanID, uint _token, uint _balance) external onlyLogicContract {\n        loans[_loanID].tokenBalances[_token] = _balance;\n    }\n\n    function updateLoan(uint _loanID, address payable _collateralOwner, address _collateralAddress, bool _open, uint _loanType, uint _loanAmount, uint[] calldata _tokens) external onlyLogicContract {\n        loans[_loanID].collateralOwner = _collateralOwner;\n        loans[_loanID].collateralAddress = _collateralAddress;\n        loans[_loanID].open = _open;\n        loans[_loanID].loanType = _loanType;\n        loans[_loanID].loanAmount = _loanAmount;\n        loans[_loanID].tokens = _tokens;\n    }\n\n    function updateTotalTokenBalances (uint _token, uint _balance) external onlyLogicContract {\n        totalTokenBalances[_token] = _balance;\n    }\n    \n    function updateLoanIndexLookUp (address _address, uint _loanID) external onlyLogicContract {\n        loanIndexLookUp[_address] = _loanID;\n    }\n    \n    function loanCollateralAddress(uint _loanID) external view returns (address) {\n        return loans[_loanID].collateralAddress;\n    }\n    \n    function loanCollateralOwner(uint _loanID) external view returns (address payable) {\n        return loans[_loanID].collateralOwner;\n    }\n    \n    function loanOpen(uint _loanID) external view returns (bool) {\n        return loans[_loanID].open;\n    }\n    \n    function loanType(uint _loanID) external view returns (uint) {\n        return loans[_loanID].loanType;\n    }\n    \n    function loanAmount(uint _loanID) external view returns (uint) {\n        return loans[_loanID].loanAmount;\n    }\n    \n    function loanTokens(uint _loanID) external view returns (uint[] memory) {\n        return loans[_loanID].tokens;\n    }\n\n\n    // Setters for future mappings if required:\n    function updateOwnerMapping (bytes32 _key, bytes calldata _value) external onlyOwner {\n        ownerMapping[_key] = _value;\n    }\n\n    function updateLogicMapping (bytes32 _key, bytes calldata _value) external onlyLogicContract {\n        logicMapping[_key] = _value;\n    }\n\n    function updateCollateralMapping (bytes32 _key, bytes calldata _value) external onlyCollateralContract {\n        collateralMapping[_key] = _value;\n    }\n\n}\n",
  "sourcePath": "/home/adam/AdvancedSC/TokenLoan/contracts/TokenLoanStorage.sol",
  "compiler": {
    "name": "solc",
    "version": "0.5.0+commit.1d4f565a.Emscripten.clang"
  },
  "schemaVersion": "3.0.1",
  "updatedAt": "2019-04-04T21:26:12.693Z",
  "devdoc": {
    "methods": {}
  },
  "userdoc": {
    "methods": {}
  }
}